{
  "_format": "hh-sol-artifact-1",
  "contractName": "Rentdapp",
  "sourceName": "contracts/Rentdapp.sol",
  "abi": [
    {
      "inputs": [
        {
          "internalType": "address",
          "name": "_tokenAddress",
          "type": "address"
        }
      ],
      "stateMutability": "nonpayable",
      "type": "constructor"
    },
    {
      "inputs": [
        {
          "internalType": "address",
          "name": "owner",
          "type": "address"
        }
      ],
      "name": "OwnableInvalidOwner",
      "type": "error"
    },
    {
      "inputs": [
        {
          "internalType": "address",
          "name": "account",
          "type": "address"
        }
      ],
      "name": "OwnableUnauthorizedAccount",
      "type": "error"
    },
    {
      "inputs": [],
      "name": "ReentrancyGuardReentrantCall",
      "type": "error"
    },
    {
      "anonymous": false,
      "inputs": [
        {
          "indexed": false,
          "internalType": "string",
          "name": "name",
          "type": "string"
        },
        {
          "indexed": false,
          "internalType": "uint256",
          "name": "price",
          "type": "uint256"
        },
        {
          "indexed": false,
          "internalType": "address",
          "name": "owner",
          "type": "address"
        },
        {
          "indexed": false,
          "internalType": "uint256",
          "name": "id",
          "type": "uint256"
        }
      ],
      "name": "ApartmentCreated",
      "type": "event"
    },
    {
      "anonymous": false,
      "inputs": [
        {
          "indexed": false,
          "internalType": "string",
          "name": "name",
          "type": "string"
        },
        {
          "indexed": false,
          "internalType": "uint256",
          "name": "price",
          "type": "uint256"
        },
        {
          "indexed": false,
          "internalType": "address",
          "name": "owner",
          "type": "address"
        }
      ],
      "name": "ApartmentUpdated",
      "type": "event"
    },
    {
      "anonymous": false,
      "inputs": [
        {
          "indexed": true,
          "internalType": "address",
          "name": "previousOwner",
          "type": "address"
        },
        {
          "indexed": true,
          "internalType": "address",
          "name": "newOwner",
          "type": "address"
        }
      ],
      "name": "OwnershipTransferred",
      "type": "event"
    },
    {
      "inputs": [],
      "name": "PERCENTAGE_FACTOR",
      "outputs": [
        {
          "internalType": "uint256",
          "name": "",
          "type": "uint256"
        }
      ],
      "stateMutability": "view",
      "type": "function"
    },
    {
      "inputs": [],
      "name": "_totalAppartments",
      "outputs": [
        {
          "internalType": "uint256",
          "name": "",
          "type": "uint256"
        }
      ],
      "stateMutability": "view",
      "type": "function"
    },
    {
      "inputs": [],
      "name": "_totalBookings",
      "outputs": [
        {
          "internalType": "uint256",
          "name": "",
          "type": "uint256"
        }
      ],
      "stateMutability": "view",
      "type": "function"
    },
    {
      "inputs": [
        {
          "internalType": "uint256",
          "name": "aid",
          "type": "uint256"
        },
        {
          "internalType": "string",
          "name": "comment",
          "type": "string"
        }
      ],
      "name": "addReview",
      "outputs": [],
      "stateMutability": "nonpayable",
      "type": "function"
    },
    {
      "inputs": [],
      "name": "allowanceAmount",
      "outputs": [
        {
          "internalType": "uint256",
          "name": "",
          "type": "uint256"
        }
      ],
      "stateMutability": "view",
      "type": "function"
    },
    {
      "inputs": [
        {
          "internalType": "uint256",
          "name": "aid",
          "type": "uint256"
        },
        {
          "internalType": "uint256[]",
          "name": "dates",
          "type": "uint256[]"
        },
        {
          "internalType": "uint256",
          "name": "deadline",
          "type": "uint256"
        },
        {
          "internalType": "uint8",
          "name": "v",
          "type": "uint8"
        },
        {
          "internalType": "bytes32",
          "name": "r",
          "type": "bytes32"
        },
        {
          "internalType": "bytes32",
          "name": "s",
          "type": "bytes32"
        }
      ],
      "name": "bookApartment",
      "outputs": [],
      "stateMutability": "nonpayable",
      "type": "function"
    },
    {
      "inputs": [
        {
          "internalType": "uint256",
          "name": "aid",
          "type": "uint256"
        },
        {
          "internalType": "uint256",
          "name": "bookingId",
          "type": "uint256"
        },
        {
          "internalType": "uint256",
          "name": "deadline",
          "type": "uint256"
        },
        {
          "internalType": "uint8",
          "name": "v",
          "type": "uint8"
        },
        {
          "internalType": "bytes32",
          "name": "r",
          "type": "bytes32"
        },
        {
          "internalType": "bytes32",
          "name": "s",
          "type": "bytes32"
        }
      ],
      "name": "cancelBooking",
      "outputs": [],
      "stateMutability": "nonpayable",
      "type": "function"
    },
    {
      "inputs": [
        {
          "internalType": "uint256",
          "name": "aid",
          "type": "uint256"
        },
        {
          "internalType": "uint256",
          "name": "bookingId",
          "type": "uint256"
        },
        {
          "internalType": "uint256",
          "name": "deadline",
          "type": "uint256"
        },
        {
          "internalType": "uint8",
          "name": "v",
          "type": "uint8"
        },
        {
          "internalType": "bytes32",
          "name": "r",
          "type": "bytes32"
        },
        {
          "internalType": "bytes32",
          "name": "s",
          "type": "bytes32"
        }
      ],
      "name": "checkInApartment",
      "outputs": [],
      "stateMutability": "nonpayable",
      "type": "function"
    },
    {
      "inputs": [
        {
          "internalType": "uint256",
          "name": "aid",
          "type": "uint256"
        },
        {
          "internalType": "uint256",
          "name": "bookingId",
          "type": "uint256"
        },
        {
          "internalType": "uint256[]",
          "name": "dates",
          "type": "uint256[]"
        },
        {
          "internalType": "uint256",
          "name": "deadline",
          "type": "uint256"
        },
        {
          "internalType": "uint8",
          "name": "v",
          "type": "uint8"
        },
        {
          "internalType": "bytes32",
          "name": "r",
          "type": "bytes32"
        },
        {
          "internalType": "bytes32",
          "name": "s",
          "type": "bytes32"
        }
      ],
      "name": "checkOutApartment",
      "outputs": [],
      "stateMutability": "nonpayable",
      "type": "function"
    },
    {
      "inputs": [],
      "name": "contractBalance",
      "outputs": [
        {
          "internalType": "uint256",
          "name": "",
          "type": "uint256"
        }
      ],
      "stateMutability": "view",
      "type": "function"
    },
    {
      "inputs": [
        {
          "internalType": "string",
          "name": "name",
          "type": "string"
        },
        {
          "internalType": "string",
          "name": "description",
          "type": "string"
        },
        {
          "internalType": "string",
          "name": "category",
          "type": "string"
        },
        {
          "internalType": "string",
          "name": "location",
          "type": "string"
        },
        {
          "internalType": "string",
          "name": "images",
          "type": "string"
        },
        {
          "internalType": "uint256",
          "name": "rooms",
          "type": "uint256"
        },
        {
          "internalType": "uint256",
          "name": "price",
          "type": "uint256"
        },
        {
          "internalType": "uint256",
          "name": "deadline",
          "type": "uint256"
        },
        {
          "internalType": "uint8",
          "name": "v",
          "type": "uint8"
        },
        {
          "internalType": "bytes32",
          "name": "r",
          "type": "bytes32"
        },
        {
          "internalType": "bytes32",
          "name": "s",
          "type": "bytes32"
        }
      ],
      "name": "createApartment",
      "outputs": [],
      "stateMutability": "nonpayable",
      "type": "function"
    },
    {
      "inputs": [
        {
          "internalType": "uint256",
          "name": "aid",
          "type": "uint256"
        },
        {
          "internalType": "uint256[]",
          "name": "dates",
          "type": "uint256[]"
        }
      ],
      "name": "datesAreCleared",
      "outputs": [
        {
          "internalType": "bool",
          "name": "",
          "type": "bool"
        }
      ],
      "stateMutability": "view",
      "type": "function"
    },
    {
      "inputs": [
        {
          "internalType": "uint256",
          "name": "startDate",
          "type": "uint256"
        }
      ],
      "name": "daysUntilStartDate",
      "outputs": [
        {
          "internalType": "uint256",
          "name": "",
          "type": "uint256"
        }
      ],
      "stateMutability": "view",
      "type": "function"
    },
    {
      "inputs": [
        {
          "internalType": "uint256",
          "name": "id",
          "type": "uint256"
        },
        {
          "internalType": "uint256",
          "name": "deadline",
          "type": "uint256"
        },
        {
          "internalType": "uint8",
          "name": "v",
          "type": "uint8"
        },
        {
          "internalType": "bytes32",
          "name": "r",
          "type": "bytes32"
        },
        {
          "internalType": "bytes32",
          "name": "s",
          "type": "bytes32"
        }
      ],
      "name": "deleteApartment",
      "outputs": [],
      "stateMutability": "nonpayable",
      "type": "function"
    },
    {
      "inputs": [
        {
          "internalType": "uint256",
          "name": "id",
          "type": "uint256"
        }
      ],
      "name": "getApartment",
      "outputs": [
        {
          "components": [
            {
              "internalType": "uint256",
              "name": "id",
              "type": "uint256"
            },
            {
              "internalType": "string",
              "name": "name",
              "type": "string"
            },
            {
              "internalType": "string",
              "name": "description",
              "type": "string"
            },
            {
              "internalType": "string",
              "name": "category",
              "type": "string"
            },
            {
              "internalType": "string",
              "name": "location",
              "type": "string"
            },
            {
              "internalType": "string",
              "name": "images",
              "type": "string"
            },
            {
              "internalType": "uint256",
              "name": "rooms",
              "type": "uint256"
            },
            {
              "internalType": "uint256",
              "name": "price",
              "type": "uint256"
            },
            {
              "internalType": "address",
              "name": "owner",
              "type": "address"
            },
            {
              "internalType": "bool",
              "name": "booked",
              "type": "bool"
            },
            {
              "internalType": "bool",
              "name": "deleted",
              "type": "bool"
            },
            {
              "internalType": "uint256",
              "name": "timestamp",
              "type": "uint256"
            }
          ],
          "internalType": "struct Rentdapp.ApartmentStruct",
          "name": "",
          "type": "tuple"
        }
      ],
      "stateMutability": "view",
      "type": "function"
    },
    {
      "inputs": [],
      "name": "getApartmentCount",
      "outputs": [
        {
          "internalType": "uint256",
          "name": "",
          "type": "uint256"
        }
      ],
      "stateMutability": "view",
      "type": "function"
    },
    {
      "inputs": [],
      "name": "getApartments",
      "outputs": [
        {
          "components": [
            {
              "internalType": "uint256",
              "name": "id",
              "type": "uint256"
            },
            {
              "internalType": "string",
              "name": "name",
              "type": "string"
            },
            {
              "internalType": "string",
              "name": "description",
              "type": "string"
            },
            {
              "internalType": "string",
              "name": "category",
              "type": "string"
            },
            {
              "internalType": "string",
              "name": "location",
              "type": "string"
            },
            {
              "internalType": "string",
              "name": "images",
              "type": "string"
            },
            {
              "internalType": "uint256",
              "name": "rooms",
              "type": "uint256"
            },
            {
              "internalType": "uint256",
              "name": "price",
              "type": "uint256"
            },
            {
              "internalType": "address",
              "name": "owner",
              "type": "address"
            },
            {
              "internalType": "bool",
              "name": "booked",
              "type": "bool"
            },
            {
              "internalType": "bool",
              "name": "deleted",
              "type": "bool"
            },
            {
              "internalType": "uint256",
              "name": "timestamp",
              "type": "uint256"
            }
          ],
          "internalType": "struct Rentdapp.ApartmentStruct[]",
          "name": "Apartments",
          "type": "tuple[]"
        },
        {
          "internalType": "uint256",
          "name": "total_appartment_aval",
          "type": "uint256"
        }
      ],
      "stateMutability": "view",
      "type": "function"
    },
    {
      "inputs": [
        {
          "internalType": "uint256",
          "name": "aid",
          "type": "uint256"
        },
        {
          "internalType": "uint256",
          "name": "bookingId",
          "type": "uint256"
        }
      ],
      "name": "getBooking",
      "outputs": [
        {
          "components": [
            {
              "internalType": "uint256",
              "name": "id",
              "type": "uint256"
            },
            {
              "internalType": "uint256",
              "name": "aid",
              "type": "uint256"
            },
            {
              "internalType": "address",
              "name": "tenant",
              "type": "address"
            },
            {
              "internalType": "uint256",
              "name": "date",
              "type": "uint256"
            },
            {
              "internalType": "uint256",
              "name": "price",
              "type": "uint256"
            },
            {
              "internalType": "bool",
              "name": "checked",
              "type": "bool"
            },
            {
              "internalType": "bool",
              "name": "cancelled",
              "type": "bool"
            },
            {
              "internalType": "uint256",
              "name": "collateral",
              "type": "uint256"
            },
            {
              "internalType": "uint256",
              "name": "commision",
              "type": "uint256"
            }
          ],
          "internalType": "struct Rentdapp.BookingStruct",
          "name": "",
          "type": "tuple"
        }
      ],
      "stateMutability": "view",
      "type": "function"
    },
    {
      "inputs": [
        {
          "internalType": "uint256",
          "name": "aid",
          "type": "uint256"
        }
      ],
      "name": "getBookings",
      "outputs": [
        {
          "components": [
            {
              "internalType": "uint256",
              "name": "id",
              "type": "uint256"
            },
            {
              "internalType": "uint256",
              "name": "aid",
              "type": "uint256"
            },
            {
              "internalType": "address",
              "name": "tenant",
              "type": "address"
            },
            {
              "internalType": "uint256",
              "name": "date",
              "type": "uint256"
            },
            {
              "internalType": "uint256",
              "name": "price",
              "type": "uint256"
            },
            {
              "internalType": "bool",
              "name": "checked",
              "type": "bool"
            },
            {
              "internalType": "bool",
              "name": "cancelled",
              "type": "bool"
            },
            {
              "internalType": "uint256",
              "name": "collateral",
              "type": "uint256"
            },
            {
              "internalType": "uint256",
              "name": "commision",
              "type": "uint256"
            }
          ],
          "internalType": "struct Rentdapp.BookingStruct[]",
          "name": "",
          "type": "tuple[]"
        }
      ],
      "stateMutability": "view",
      "type": "function"
    },
    {
      "inputs": [
        {
          "internalType": "uint256",
          "name": "aid",
          "type": "uint256"
        }
      ],
      "name": "getQualifiedReviewers",
      "outputs": [
        {
          "internalType": "address[]",
          "name": "Tenants",
          "type": "address[]"
        }
      ],
      "stateMutability": "view",
      "type": "function"
    },
    {
      "inputs": [
        {
          "internalType": "uint256",
          "name": "aid",
          "type": "uint256"
        }
      ],
      "name": "getReviews",
      "outputs": [
        {
          "components": [
            {
              "internalType": "uint256",
              "name": "id",
              "type": "uint256"
            },
            {
              "internalType": "uint256",
              "name": "aid",
              "type": "uint256"
            },
            {
              "internalType": "string",
              "name": "reviewText",
              "type": "string"
            },
            {
              "internalType": "uint256",
              "name": "timestamp",
              "type": "uint256"
            },
            {
              "internalType": "address",
              "name": "owner",
              "type": "address"
            }
          ],
          "internalType": "struct Rentdapp.ReviewStruct[]",
          "name": "",
          "type": "tuple[]"
        }
      ],
      "stateMutability": "view",
      "type": "function"
    },
    {
      "inputs": [
        {
          "internalType": "uint256",
          "name": "aid",
          "type": "uint256"
        }
      ],
      "name": "getUnavailableDates",
      "outputs": [
        {
          "internalType": "uint256[]",
          "name": "",
          "type": "uint256[]"
        }
      ],
      "stateMutability": "view",
      "type": "function"
    },
    {
      "inputs": [],
      "name": "getUtilityFee",
      "outputs": [
        {
          "internalType": "uint256",
          "name": "",
          "type": "uint256"
        }
      ],
      "stateMutability": "view",
      "type": "function"
    },
    {
      "inputs": [],
      "name": "owner",
      "outputs": [
        {
          "internalType": "address",
          "name": "",
          "type": "address"
        }
      ],
      "stateMutability": "view",
      "type": "function"
    },
    {
      "inputs": [],
      "name": "permitToken",
      "outputs": [
        {
          "internalType": "contract IERC20Permit",
          "name": "",
          "type": "address"
        }
      ],
      "stateMutability": "view",
      "type": "function"
    },
    {
      "inputs": [],
      "name": "renounceOwnership",
      "outputs": [],
      "stateMutability": "nonpayable",
      "type": "function"
    },
    {
      "inputs": [
        {
          "internalType": "uint256",
          "name": "_newFee",
          "type": "uint256"
        }
      ],
      "name": "setUtilityFee",
      "outputs": [],
      "stateMutability": "nonpayable",
      "type": "function"
    },
    {
      "inputs": [
        {
          "internalType": "uint256",
          "name": "appartmentId",
          "type": "uint256"
        }
      ],
      "name": "tenantBooked",
      "outputs": [
        {
          "internalType": "bool",
          "name": "",
          "type": "bool"
        }
      ],
      "stateMutability": "view",
      "type": "function"
    },
    {
      "inputs": [],
      "name": "token",
      "outputs": [
        {
          "internalType": "contract IERC20",
          "name": "",
          "type": "address"
        }
      ],
      "stateMutability": "view",
      "type": "function"
    },
    {
      "inputs": [
        {
          "internalType": "address",
          "name": "newOwner",
          "type": "address"
        }
      ],
      "name": "transferOwnership",
      "outputs": [],
      "stateMutability": "nonpayable",
      "type": "function"
    },
    {
      "inputs": [
        {
          "internalType": "uint256",
          "name": "id",
          "type": "uint256"
        },
        {
          "internalType": "string",
          "name": "name",
          "type": "string"
        },
        {
          "internalType": "string",
          "name": "description",
          "type": "string"
        },
        {
          "internalType": "string",
          "name": "location",
          "type": "string"
        },
        {
          "internalType": "string",
          "name": "images",
          "type": "string"
        },
        {
          "internalType": "uint256",
          "name": "rooms",
          "type": "uint256"
        },
        {
          "internalType": "uint256",
          "name": "price",
          "type": "uint256"
        },
        {
          "internalType": "uint256",
          "name": "deadline",
          "type": "uint256"
        },
        {
          "internalType": "uint8",
          "name": "v",
          "type": "uint8"
        },
        {
          "internalType": "bytes32",
          "name": "r",
          "type": "bytes32"
        },
        {
          "internalType": "bytes32",
          "name": "s",
          "type": "bytes32"
        }
      ],
      "name": "updateApartment",
      "outputs": [],
      "stateMutability": "nonpayable",
      "type": "function"
    },
    {
      "inputs": [],
      "name": "utilityFee",
      "outputs": [
        {
          "internalType": "uint256",
          "name": "",
          "type": "uint256"
        }
      ],
      "stateMutability": "view",
      "type": "function"
    },
    {
      "inputs": [
        {
          "internalType": "address",
          "name": "recipient",
          "type": "address"
        },
        {
          "internalType": "uint256",
          "name": "amount",
          "type": "uint256"
        }
      ],
      "name": "withdrawTokens",
      "outputs": [],
      "stateMutability": "nonpayable",
      "type": "function"
    }
  ],
  "bytecode": "0x60806040526605af3107a4000060065569d3c20dee1639f99c00006007553480156200002a57600080fd5b506040516200769a3803806200769a833981810160405281019062000050919062000296565b33600073ffffffffffffffffffffffffffffffffffffffff168173ffffffffffffffffffffffffffffffffffffffff1603620000c65760006040517f1e4fbdf7000000000000000000000000000000000000000000000000000000008152600401620000bd9190620002d9565b60405180910390fd5b620000d7816200016860201b60201c565b506001808190555080600260006101000a81548173ffffffffffffffffffffffffffffffffffffffff021916908373ffffffffffffffffffffffffffffffffffffffff16021790555080600360006101000a81548173ffffffffffffffffffffffffffffffffffffffff021916908373ffffffffffffffffffffffffffffffffffffffff16021790555050620002f6565b60008060009054906101000a900473ffffffffffffffffffffffffffffffffffffffff169050816000806101000a81548173ffffffffffffffffffffffffffffffffffffffff021916908373ffffffffffffffffffffffffffffffffffffffff1602179055508173ffffffffffffffffffffffffffffffffffffffff168173ffffffffffffffffffffffffffffffffffffffff167f8be0079c531659141344cd1fd0a4f28419497f9722a3daafe3b4186f6b6457e060405160405180910390a35050565b600080fd5b600073ffffffffffffffffffffffffffffffffffffffff82169050919050565b60006200025e8262000231565b9050919050565b620002708162000251565b81146200027c57600080fd5b50565b600081519050620002908162000265565b92915050565b600060208284031215620002af57620002ae6200022c565b5b6000620002bf848285016200027f565b91505092915050565b620002d38162000251565b82525050565b6000602082019050620002f06000830184620002c8565b92915050565b61739480620003066000396000f3fe608060405234801561001057600080fd5b50600436106101fb5760003560e01c80638b7afe2e1161011a578063c4452e06116100ad578063ee01e5e71161007c578063ee01e5e7146105b3578063f2fde38b146105d1578063f4010995146105ed578063f62eca841461061d578063fc0c546a14610639576101fb565b8063c4452e0614610505578063c6bfd15414610535578063db2f80b714610565578063dccd8bd214610595576101fb565b80639f31a2be116100e95780639f31a2be1461047e578063b1c98099146104ae578063b7aa67a3146104cd578063beafdc9c146104e9576101fb565b80638b7afe2e146103f65780638ba15f3f146104145780638da5cb5b146104305780639d4a22551461044e576101fb565b806347a49fd911610192578063715018a611610161578063715018a614610394578063895ec2331461039e578063898700af146103ba5780638b560818146103d8576101fb565b806347a49fd91461030c5780635872cf9c1461032a5780635ac2f3bc146103485780635bb0c5d614610378576101fb565b806328e4c59f116101ce57806328e4c59f14610286578063375d69df146102a2578063455b3070146102c0578063463c1ddf146102f0576101fb565b806306b091f9146102005780630bb9ce331461021c57806313ee890b1461024c5780632258eb3b14610268575b600080fd5b61021a60048036038101906102159190614844565b610657565b005b61023660048036038101906102319190614884565b610830565b604051610243919061496f565b60405180910390f35b61026660048036038101906102619190614b46565b610a3e565b005b6102706110d4565b60405161027d9190614cb9565b60405180910390f35b6102a0600480360381019061029b9190614d9c565b6110de565b005b6102aa611474565b6040516102b79190614cb9565b60405180910390f35b6102da60048036038101906102d59190614e5a565b61147a565b6040516102e79190614f7b565b60405180910390f35b61030a60048036038101906103059190614f97565b611591565b005b6103146119bc565b6040516103219190614cb9565b60405180910390f35b6103326119c2565b60405161033f9190614cb9565b60405180910390f35b610362600480360381019061035d9190615117565b6119c8565b60405161036f9190615182565b60405180910390f35b610392600480360381019061038d919061519d565b611a4d565b005b61039c611cd1565b005b6103b860048036038101906103b39190614884565b611ce5565b005b6103c2611d3a565b6040516103cf9190615258565b60405180910390f35b6103e0611d60565b6040516103ed9190614cb9565b60405180910390f35b6103fe611d6a565b60405161040b9190614cb9565b60405180910390f35b61042e60048036038101906104299190615273565b611e0d565b005b6104386123c6565b604051610445919061532b565b60405180910390f35b61046860048036038101906104639190614884565b6123ef565b60405161047591906154fd565b60405180910390f35b61049860048036038101906104939190614884565b612567565b6040516104a59190615182565b60405180910390f35b6104b66125ce565b6040516104c4929190615701565b60405180910390f35b6104e760048036038101906104e29190615731565b612ab3565b005b61050360048036038101906104fe9190615731565b612ff2565b005b61051f600480360381019061051a9190614884565b6134ee565b60405161052c91906158de565b60405180910390f35b61054f600480360381019061054a9190614884565b6138aa565b60405161055c9190614cb9565b60405180910390f35b61057f600480360381019061057a9190614884565b61390f565b60405161058c91906159af565b60405180910390f35b61059d61397a565b6040516105aa9190614cb9565b60405180910390f35b6105bb613980565b6040516105c89190614cb9565b60405180910390f35b6105eb60048036038101906105e691906159d1565b613985565b005b61060760048036038101906106029190614884565b613a0b565b6040516106149190615b65565b60405180910390f35b61063760048036038101906106329190615b87565b613b46565b005b610641613cc3565b60405161064e9190615c23565b60405180910390f35b61065f613ce9565b610667613d70565b80600360009054906101000a900473ffffffffffffffffffffffffffffffffffffffff1673ffffffffffffffffffffffffffffffffffffffff166370a08231306040518263ffffffff1660e01b81526004016106c3919061532b565b602060405180830381865afa1580156106e0573d6000803e3d6000fd5b505050506040513d601f19601f820116820180604052508101906107049190615c53565b1015610745576040517f08c379a000000000000000000000000000000000000000000000000000000000815260040161073c90615cdd565b60405180910390fd5b600360009054906101000a900473ffffffffffffffffffffffffffffffffffffffff1673ffffffffffffffffffffffffffffffffffffffff1663a9059cbb83836040518363ffffffff1660e01b81526004016107a2929190615cfd565b6020604051808303816000875af11580156107c1573d6000803e3d6000fd5b505050506040513d601f19601f820116820180604052508101906107e59190615d52565b610824576040517f08c379a000000000000000000000000000000000000000000000000000000000815260040161081b90615dcb565b60405180910390fd5b61082c613db6565b5050565b6060600080600090505b60096000858152602001908152602001600020805490508110156108bd5760096000858152602001908152602001600020818154811061087d5761087c615deb565b5b906000526020600020906008020160050160009054906101000a900460ff16156108b05781806108ac90615e49565b9250505b808060010191505061083a565b508067ffffffffffffffff8111156108d8576108d76149ac565b5b6040519080825280602002602001820160405280156109065781602001602082028036833780820191505090505b509150600080600090505b6009600086815260200190815260200160002080549050811015610a365760096000868152602001908152602001600020818154811061095457610953615deb565b5b906000526020600020906008020160050160009054906101000a900460ff1615610a295760096000868152602001908152602001600020818154811061099d5761099c615deb565b5b906000526020600020906008020160020160009054906101000a900473ffffffffffffffffffffffffffffffffffffffff168483806109db90615e49565b9450815181106109ee576109ed615deb565b5b602002602001019073ffffffffffffffffffffffffffffffffffffffff16908173ffffffffffffffffffffffffffffffffffffffff16815250505b8080600101915050610911565b505050919050565b600b60008c815260200190815260200160002060009054906101000a900460ff16610a9e576040517f08c379a0000000000000000000000000000000000000000000000000000000008152600401610a9590615edd565b60405180910390fd5b600860008c815260200190815260200160002060080160009054906101000a900473ffffffffffffffffffffffffffffffffffffffff1673ffffffffffffffffffffffffffffffffffffffff163373ffffffffffffffffffffffffffffffffffffffff1614610b42576040517f08c379a0000000000000000000000000000000000000000000000000000000008152600401610b3990615f49565b60405180910390fd5b6000600860008d81526020019081526020016000206040518061018001604052908160008201548152602001600182018054610b7d90615f98565b80601f0160208091040260200160405190810160405280929190818152602001828054610ba990615f98565b8015610bf65780601f10610bcb57610100808354040283529160200191610bf6565b820191906000526020600020905b815481529060010190602001808311610bd957829003601f168201915b50505050508152602001600282018054610c0f90615f98565b80601f0160208091040260200160405190810160405280929190818152602001828054610c3b90615f98565b8015610c885780601f10610c5d57610100808354040283529160200191610c88565b820191906000526020600020905b815481529060010190602001808311610c6b57829003601f168201915b50505050508152602001600382018054610ca190615f98565b80601f0160208091040260200160405190810160405280929190818152602001828054610ccd90615f98565b8015610d1a5780601f10610cef57610100808354040283529160200191610d1a565b820191906000526020600020905b815481529060010190602001808311610cfd57829003601f168201915b50505050508152602001600482018054610d3390615f98565b80601f0160208091040260200160405190810160405280929190818152602001828054610d5f90615f98565b8015610dac5780601f10610d8157610100808354040283529160200191610dac565b820191906000526020600020905b815481529060010190602001808311610d8f57829003601f168201915b50505050508152602001600582018054610dc590615f98565b80601f0160208091040260200160405190810160405280929190818152602001828054610df190615f98565b8015610e3e5780601f10610e1357610100808354040283529160200191610e3e565b820191906000526020600020905b815481529060010190602001808311610e2157829003601f168201915b5050505050815260200160068201548152602001600782015481526020016008820160009054906101000a900473ffffffffffffffffffffffffffffffffffffffff1673ffffffffffffffffffffffffffffffffffffffff1673ffffffffffffffffffffffffffffffffffffffff1681526020016008820160149054906101000a900460ff161515151581526020016008820160159054906101000a900460ff1615151515815260200160098201548152505090508a8160200181905250898160400181905250888160800181905250878160a00181905250868160c0018181525050858160e0018181525050806008600083600001518152602001908152602001600020600082015181600001556020820151816001019081610f62919061616b565b506040820151816002019081610f78919061616b565b506060820151816003019081610f8e919061616b565b506080820151816004019081610fa4919061616b565b5060a0820151816005019081610fba919061616b565b5060c0820151816006015560e082015181600701556101008201518160080160006101000a81548173ffffffffffffffffffffffffffffffffffffffff021916908373ffffffffffffffffffffffffffffffffffffffff1602179055506101208201518160080160146101000a81548160ff0219169083151502179055506101408201518160080160156101000a81548160ff02191690831515021790555061016082015181600901559050506000600654905061107d33308389898989613dbf565b7f219242c38af47599659b8884972ac47cbae53eecb21cd56fbc1a7355e96e66cf82602001518360e001518461010001516040516110bd93929190616276565b60405180910390a150505050505050505050505050565b6000600454905090565b6110e6613d70565b600060096000898152602001908152602001600020878154811061110d5761110c615deb565b5b90600052602060002090600802016040518061012001604052908160008201548152602001600182015481526020016002820160009054906101000a900473ffffffffffffffffffffffffffffffffffffffff1673ffffffffffffffffffffffffffffffffffffffff1673ffffffffffffffffffffffffffffffffffffffff16815260200160038201548152602001600482015481526020016005820160009054906101000a900460ff161515151581526020016005820160019054906101000a900460ff16151515158152602001600682015481526020016007820154815250509050806040015173ffffffffffffffffffffffffffffffffffffffff163373ffffffffffffffffffffffffffffffffffffffff1614611263576040517f08c379a000000000000000000000000000000000000000000000000000000000815260040161125a90616300565b60405180910390fd5b8060a001516112a7576040517f08c379a000000000000000000000000000000000000000000000000000000000815260040161129e9061636c565b60405180910390fd5b6112b188876119c8565b156112f1576040517f08c379a00000000000000000000000000000000000000000000000000000000081526004016112e8906163d8565b60405180910390fd5b6001600960008a8152602001908152602001600020888154811061131857611317615deb565b5b906000526020600020906008020160050160016101000a81548160ff0219169083151502179055506000600d60008a815260200190815260200160002060008360600151815260200190815260200160002060006101000a81548160ff02191690831515021790555060006001600c60008b8152602001908152602001600020805490506113a691906163f8565b90506000600c60008b815260200190815260200160002082815481106113cf576113ce615deb565b5b9060005260206000200154905080600c60008c81526020019081526020016000208a8154811061140257611401615deb565b5b9060005260206000200181905550600c60008b81526020019081526020016000208054806114335761143261642c565b5b600190038181906000526020600020016000905590556000600654905061145f3330838b8b8b8b613dbf565b5050505061146b613db6565b50505050505050565b60075481565b611482614676565b6009600084815260200190815260200160002082815481106114a7576114a6615deb565b5b90600052602060002090600802016040518061012001604052908160008201548152602001600182015481526020016002820160009054906101000a900473ffffffffffffffffffffffffffffffffffffffff1673ffffffffffffffffffffffffffffffffffffffff1673ffffffffffffffffffffffffffffffffffffffff16815260200160038201548152602001600482015481526020016005820160009054906101000a900460ff161515151581526020016005820160019054906101000a900460ff1615151515815260200160068201548152602001600782015481525050905092915050565b60008b51116115d5576040517f08c379a00000000000000000000000000000000000000000000000000000000081526004016115cc906164a7565b60405180910390fd5b60008a5111611619576040517f08c379a000000000000000000000000000000000000000000000000000000000815260040161161090616513565b60405180910390fd5b600088511161165d576040517f08c379a00000000000000000000000000000000000000000000000000000000081526004016116549061657f565b60405180910390fd5b60008751116116a1576040517f08c379a0000000000000000000000000000000000000000000000000000000008152600401611698906165eb565b60405180910390fd5b600086116116e4576040517f08c379a00000000000000000000000000000000000000000000000000000000081526004016116db90616657565b60405180910390fd5b60008511611727576040517f08c379a000000000000000000000000000000000000000000000000000000000815260040161171e906166c3565b60405180910390fd5b60046000815461173690615e49565b919050819055506117456146dc565b6004548160000181815250508b81602001819052508a8160400181905250898160600181905250888160800181905250878160a00181905250868160c0018181525050858160e00181815250503381610100019073ffffffffffffffffffffffffffffffffffffffff16908173ffffffffffffffffffffffffffffffffffffffff16815250506117d36142db565b816101600181815250506001600b60008360000151815260200190815260200160002060006101000a81548160ff021916908315150217905550806008600083600001518152602001908152602001600020600082015181600001556020820151816001019081611844919061616b565b50604082015181600201908161185a919061616b565b506060820151816003019081611870919061616b565b506080820151816004019081611886919061616b565b5060a082015181600501908161189c919061616b565b5060c0820151816006015560e082015181600701556101008201518160080160006101000a81548173ffffffffffffffffffffffffffffffffffffffff021916908373ffffffffffffffffffffffffffffffffffffffff1602179055506101208201518160080160146101000a81548160ff0219169083151502179055506101408201518160080160156101000a81548160ff02191690831515021790555061016082015181600901559050506000600654905061195f33308389898989613dbf565b7f6129ffb6f3beb35c9d53678c1cb25b7b5d068ebfa8a53c7a319ef1f0fe39e84b82602001518360e0015184610100015185600001516040516119a594939291906166e3565b60405180910390a150505050505050505050505050565b60055481565b60045481565b600080600090505b8251811015611a4157600d60008581526020019081526020016000206000848381518110611a0157611a00615deb565b5b6020026020010151815260200190815260200160002060009054906101000a900460ff1615611a34576000915050611a47565b80806001019150506119d0565b50600190505b92915050565b600b600083815260200190815260200160002060009054906101000a900460ff16611aad576040517f08c379a0000000000000000000000000000000000000000000000000000000008152600401611aa49061677b565b60405180910390fd5b600e60003373ffffffffffffffffffffffffffffffffffffffff1673ffffffffffffffffffffffffffffffffffffffff168152602001908152602001600020600083815260200190815260200160002060009054906101000a900460ff16611b4a576040517f08c379a0000000000000000000000000000000000000000000000000000000008152600401611b41906167e7565b60405180910390fd5b6000815111611b8e576040517f08c379a0000000000000000000000000000000000000000000000000000000008152600401611b8590616853565b60405180910390fd5b611b96614757565b600a6000848152602001908152602001600020805490508160000181815250508281602001818152505081816040018190525033816080019073ffffffffffffffffffffffffffffffffffffffff16908173ffffffffffffffffffffffffffffffffffffffff1681525050611c096142db565b816060018181525050600a600084815260200190815260200160002081908060018154018082558091505060019003906000526020600020906005020160009091909190915060008201518160000155602082015181600101556040820151816002019081611c78919061616b565b506060820151816003015560808201518160040160006101000a81548173ffffffffffffffffffffffffffffffffffffffff021916908373ffffffffffffffffffffffffffffffffffffffff1602179055505050505050565b611cd9613ce9565b611ce360006142fb565b565b611ced613ce9565b60008111611d30576040517f08c379a0000000000000000000000000000000000000000000000000000000008152600401611d27906168e5565b60405180910390fd5b8060068190555050565b600260009054906101000a900473ffffffffffffffffffffffffffffffffffffffff1681565b6000600654905090565b6000600360009054906101000a900473ffffffffffffffffffffffffffffffffffffffff1673ffffffffffffffffffffffffffffffffffffffff166370a08231306040518263ffffffff1660e01b8152600401611dc7919061532b565b602060405180830381865afa158015611de4573d6000803e3d6000fd5b505050506040513d601f19601f82011682018060405250810190611e089190615c53565b905090565b611e15613d70565b600085516008600089815260200190815260200160002060070154611e3a9190616905565b90506000600b600089815260200190815260200160002060009054906101000a900460ff16611e9e576040517f08c379a0000000000000000000000000000000000000000000000000000000008152600401611e9590616993565b60405180910390fd5b611ea888886119c8565b611ee7576040517f08c379a0000000000000000000000000000000000000000000000000000000008152600401611ede906169ff565b60405180910390fd5b60005b875181101561229e57600d60008a81526020019081526020016000206000898381518110611f1b57611f1a615deb565b5b6020026020010151815260200190815260200160002060009054906101000a900460ff1615611f7f576040517f08c379a0000000000000000000000000000000000000000000000000000000008152600401611f7690616a6b565b60405180910390fd5b611f87614676565b600960008b8152602001908152602001600020805490508160000181815250508981602001818152505033816040019073ffffffffffffffffffffffffffffffffffffffff16908173ffffffffffffffffffffffffffffffffffffffff1681525050888281518110611ffc57611ffb615deb565b5b6020026020010151816060018181525050600860008b8152602001908152602001600020600701548160800181815250506000612041826080015183606001516143bf565b905060006120528360800151614411565b9050818360e00181815250508083610100018181525050600960008d8152602001908152602001600020839080600181540180825580915050600190039060005260206000209060080201600090919091909150600082015181600001556020820151816001015560408201518160020160006101000a81548173ffffffffffffffffffffffffffffffffffffffff021916908373ffffffffffffffffffffffffffffffffffffffff160217905550606082015181600301556080820151816004015560a08201518160050160006101000a81548160ff02191690831515021790555060c08201518160050160016101000a81548160ff02191690831515021790555060e0820151816006015561010082015181600701555050600c60008d81526020019081526020016000208b858151811061219257612191615deb565b5b602002602001015190806001815401808255809150506001900390600052602060002001600090919091909150556001600d60008e815260200190815260200160002060008d87815181106121ea576121e9615deb565b5b6020026020010151815260200190815260200160002060006101000a81548160ff0219169083151502179055506001600e60003373ffffffffffffffffffffffffffffffffffffffff1673ffffffffffffffffffffffffffffffffffffffff16815260200190815260200160002060008e815260200190815260200160002060006101000a81548160ff021916908315150217905550818561228c9190616a8b565b94505050508080600101915050611eea565b5080826122ab9190616a8b565b600360009054906101000a900473ffffffffffffffffffffffffffffffffffffffff1673ffffffffffffffffffffffffffffffffffffffff166370a08231336040518263ffffffff1660e01b8152600401612306919061532b565b602060405180830381865afa158015612323573d6000803e3d6000fd5b505050506040513d601f19601f820116820180604052508101906123479190615c53565b1015612388576040517f08c379a000000000000000000000000000000000000000000000000000000000815260040161237f90616b0b565b60405180910390fd5b6000600654905060008290506123a33330848b8b8b8b613dbf565b6123b23330838b8b8b8b613dbf565b505050506123be613db6565b505050505050565b60008060009054906101000a900473ffffffffffffffffffffffffffffffffffffffff16905090565b6060600a6000838152602001908152602001600020805480602002602001604051908101604052809291908181526020016000905b8282101561255c57838290600052602060002090600502016040518060a0016040529081600082015481526020016001820154815260200160028201805461246b90615f98565b80601f016020809104026020016040519081016040528092919081815260200182805461249790615f98565b80156124e45780601f106124b9576101008083540402835291602001916124e4565b820191906000526020600020905b8154815290600101906020018083116124c757829003601f168201915b50505050508152602001600382015481526020016004820160009054906101000a900473ffffffffffffffffffffffffffffffffffffffff1673ffffffffffffffffffffffffffffffffffffffff1673ffffffffffffffffffffffffffffffffffffffff168152505081526020019060010190612424565b505050509050919050565b6000600e60003373ffffffffffffffffffffffffffffffffffffffff1673ffffffffffffffffffffffffffffffffffffffff168152602001908152602001600020600083815260200190815260200160002060009054906101000a900460ff169050919050565b60606000806000600190505b600454811161262d576008600082815260200190815260200160002060080160159054906101000a900460ff1661261a57818061261690615e49565b9250505b808061262590615e49565b9150506125da565b508067ffffffffffffffff811115612648576126476149ac565b5b60405190808252806020026020018201604052801561268157816020015b61266e6146dc565b8152602001906001900390816126665790505b509250600080600190505b6004548111612aa8576008600082815260200190815260200160002060080160159054906101000a900460ff16612a95576008600082815260200190815260200160002060405180610180016040529081600082015481526020016001820180546126f690615f98565b80601f016020809104026020016040519081016040528092919081815260200182805461272290615f98565b801561276f5780601f106127445761010080835404028352916020019161276f565b820191906000526020600020905b81548152906001019060200180831161275257829003601f168201915b5050505050815260200160028201805461278890615f98565b80601f01602080910402602001604051908101604052809291908181526020018280546127b490615f98565b80156128015780601f106127d657610100808354040283529160200191612801565b820191906000526020600020905b8154815290600101906020018083116127e457829003601f168201915b5050505050815260200160038201805461281a90615f98565b80601f016020809104026020016040519081016040528092919081815260200182805461284690615f98565b80156128935780601f1061286857610100808354040283529160200191612893565b820191906000526020600020905b81548152906001019060200180831161287657829003601f168201915b505050505081526020016004820180546128ac90615f98565b80601f01602080910402602001604051908101604052809291908181526020018280546128d890615f98565b80156129255780601f106128fa57610100808354040283529160200191612925565b820191906000526020600020905b81548152906001019060200180831161290857829003601f168201915b5050505050815260200160058201805461293e90615f98565b80601f016020809104026020016040519081016040528092919081815260200182805461296a90615f98565b80156129b75780601f1061298c576101008083540402835291602001916129b7565b820191906000526020600020905b81548152906001019060200180831161299a57829003601f168201915b5050505050815260200160068201548152602001600782015481526020016008820160009054906101000a900473ffffffffffffffffffffffffffffffffffffffff1673ffffffffffffffffffffffffffffffffffffffff1673ffffffffffffffffffffffffffffffffffffffff1681526020016008820160149054906101000a900460ff161515151581526020016008820160159054906101000a900460ff16151515158152602001600982015481525050858380612a7690615e49565b945081518110612a8957612a88615deb565b5b60200260200101819052505b8080612aa090615e49565b91505061268c565b508351925050509091565b612abb613d70565b6000600960008881526020019081526020016000208681548110612ae257612ae1615deb565b5b90600052602060002090600802016040518061012001604052908160008201548152602001600182015481526020016002820160009054906101000a900473ffffffffffffffffffffffffffffffffffffffff1673ffffffffffffffffffffffffffffffffffffffff1673ffffffffffffffffffffffffffffffffffffffff16815260200160038201548152602001600482015481526020016005820160009054906101000a900460ff161515151581526020016005820160019054906101000a900460ff16151515158152602001600682015481526020016007820154815250509050600b600088815260200190815260200160002060009054906101000a900460ff16612c26576040517f08c379a0000000000000000000000000000000000000000000000000000000008152600401612c1d90616993565b60405180910390fd5b8060a0015115612c6b576040517f08c379a0000000000000000000000000000000000000000000000000000000008152600401612c6290616b77565b60405180910390fd5b600d600088815260200190815260200160002060008260600151815260200190815260200160002060009054906101000a900460ff16612ce0576040517f08c379a0000000000000000000000000000000000000000000000000000000008152600401612cd790616be3565b60405180910390fd5b612ce86123c6565b73ffffffffffffffffffffffffffffffffffffffff163373ffffffffffffffffffffffffffffffffffffffff1614612dda57806040015173ffffffffffffffffffffffffffffffffffffffff163373ffffffffffffffffffffffffffffffffffffffff1614612d8c576040517f08c379a0000000000000000000000000000000000000000000000000000000008152600401612d8390616c4f565b60405180910390fd5b612d946142db565b816060015111612dd9576040517f08c379a0000000000000000000000000000000000000000000000000000000008152600401612dd090616ce1565b60405180910390fd5b5b600d600088815260200190815260200160002060008260600151815260200190815260200160002060009054906101000a900460ff16612e4f576040517f08c379a0000000000000000000000000000000000000000000000000000000008152600401612e4690616d4d565b60405180910390fd5b60018160c00190151590811515815250506000600d600089815260200190815260200160002060008360600151815260200190815260200160002060006101000a81548160ff02191690831515021790555060006001600c60008a815260200190815260200160002080549050612ec691906163f8565b90506000600c60008a81526020019081526020016000208281548110612eef57612eee615deb565b5b9060005260206000200154905080600c60008b81526020019081526020016000208981548110612f2257612f21615deb565b5b9060005260206000200181905550600c60008a8152602001908152602001600020805480612f5357612f5261642c565b5b6001900381819060005260206000200160009055905560006006549050612fb4600860008c815260200190815260200160002060080160009054906101000a900473ffffffffffffffffffffffffffffffffffffffff168560e00151614438565b612fcf33612fc06123c6565b8661010001518b8b8b8b613dbf565b612fde3330838b8b8b8b613dbf565b50505050612fea613db6565b505050505050565b612ffa613d70565b600060096000888152602001908152602001600020868154811061302157613020615deb565b5b90600052602060002090600802016040518061012001604052908160008201548152602001600182015481526020016002820160009054906101000a900473ffffffffffffffffffffffffffffffffffffffff1673ffffffffffffffffffffffffffffffffffffffff1673ffffffffffffffffffffffffffffffffffffffff16815260200160038201548152602001600482015481526020016005820160009054906101000a900460ff161515151581526020016005820160019054906101000a900460ff16151515158152602001600682015481526020016007820154815250509050806040015173ffffffffffffffffffffffffffffffffffffffff163373ffffffffffffffffffffffffffffffffffffffff1614613177576040517f08c379a000000000000000000000000000000000000000000000000000000000815260040161316e90616300565b60405180910390fd5b8060a00151156131bc576040517f08c379a00000000000000000000000000000000000000000000000000000000081526004016131b390616b77565b60405180910390fd5b600b600088815260200190815260200160002060009054906101000a900460ff1661321c576040517f08c379a000000000000000000000000000000000000000000000000000000000815260040161321390616db9565b60405180910390fd5b8060c0015115613261576040517f08c379a000000000000000000000000000000000000000000000000000000000815260040161325890616e25565b60405180910390fd5b80606001514210156132a8576040517f08c379a000000000000000000000000000000000000000000000000000000000815260040161329f90616e91565b60405180910390fd5b6201518081606001516132bb9190616a8b565b4211156132fd576040517f08c379a00000000000000000000000000000000000000000000000000000000081526004016132f490616efd565b60405180910390fd5b6000600360009054906101000a900473ffffffffffffffffffffffffffffffffffffffff1673ffffffffffffffffffffffffffffffffffffffff166370a08231336040518263ffffffff1660e01b815260040161335a919061532b565b602060405180830381865afa158015613377573d6000803e3d6000fd5b505050506040513d601f19601f8201168201806040525081019061339b9190615c53565b9050600082608001519050808210156133e9576040517f08c379a00000000000000000000000000000000000000000000000000000000081526004016133e090616b0b565b60405180910390fd5b6001600960008b815260200190815260200160002089815481106134105761340f615deb565b5b906000526020600020906008020160050160006101000a81548160ff0219169083151502179055506000600654905060008460e0015190506134a133600860008e815260200190815260200160002060080160009054906101000a900473ffffffffffffffffffffffffffffffffffffffff16876101000151886080015161349891906163f8565b8c8c8c8c613dbf565b6134bc336134ad6123c6565b8761010001518c8c8c8c613dbf565b6134ca856040015182614438565b6134d93330848c8c8c8c613dbf565b50505050506134e6613db6565b505050505050565b6134f66146dc565b60086000838152602001908152602001600020604051806101800160405290816000820154815260200160018201805461352f90615f98565b80601f016020809104026020016040519081016040528092919081815260200182805461355b90615f98565b80156135a85780601f1061357d576101008083540402835291602001916135a8565b820191906000526020600020905b81548152906001019060200180831161358b57829003601f168201915b505050505081526020016002820180546135c190615f98565b80601f01602080910402602001604051908101604052809291908181526020018280546135ed90615f98565b801561363a5780601f1061360f5761010080835404028352916020019161363a565b820191906000526020600020905b81548152906001019060200180831161361d57829003601f168201915b5050505050815260200160038201805461365390615f98565b80601f016020809104026020016040519081016040528092919081815260200182805461367f90615f98565b80156136cc5780601f106136a1576101008083540402835291602001916136cc565b820191906000526020600020905b8154815290600101906020018083116136af57829003601f168201915b505050505081526020016004820180546136e590615f98565b80601f016020809104026020016040519081016040528092919081815260200182805461371190615f98565b801561375e5780601f106137335761010080835404028352916020019161375e565b820191906000526020600020905b81548152906001019060200180831161374157829003601f168201915b5050505050815260200160058201805461377790615f98565b80601f01602080910402602001604051908101604052809291908181526020018280546137a390615f98565b80156137f05780601f106137c5576101008083540402835291602001916137f0565b820191906000526020600020905b8154815290600101906020018083116137d357829003601f168201915b5050505050815260200160068201548152602001600782015481526020016008820160009054906101000a900473ffffffffffffffffffffffffffffffffffffffff1673ffffffffffffffffffffffffffffffffffffffff1673ffffffffffffffffffffffffffffffffffffffff1681526020016008820160149054906101000a900460ff161515151581526020016008820160159054906101000a900460ff161515151581526020016009820154815250509050919050565b60004282116138ee576040517f08c379a00000000000000000000000000000000000000000000000000000000081526004016138e590616f69565b60405180910390fd5b6201518042836138fe91906163f8565b6139089190616fb8565b9050919050565b6060600c600083815260200190815260200160002080548060200260200160405190810160405280929190818152602001828054801561396e57602002820191906000526020600020905b81548152602001906001019080831161395a575b50505050509050919050565b60065481565b606481565b61398d613ce9565b600073ffffffffffffffffffffffffffffffffffffffff168173ffffffffffffffffffffffffffffffffffffffff16036139ff5760006040517f1e4fbdf70000000000000000000000000000000000000000000000000000000081526004016139f6919061532b565b60405180910390fd5b613a08816142fb565b50565b606060096000838152602001908152602001600020805480602002602001604051908101604052809291908181526020016000905b82821015613b3b57838290600052602060002090600802016040518061012001604052908160008201548152602001600182015481526020016002820160009054906101000a900473ffffffffffffffffffffffffffffffffffffffff1673ffffffffffffffffffffffffffffffffffffffff1673ffffffffffffffffffffffffffffffffffffffff16815260200160038201548152602001600482015481526020016005820160009054906101000a900460ff161515151581526020016005820160019054906101000a900460ff161515151581526020016006820154815260200160078201548152505081526020019060010190613a40565b505050509050919050565b600b600086815260200190815260200160002060009054906101000a900460ff16613ba6576040517f08c379a0000000000000000000000000000000000000000000000000000000008152600401613b9d90615edd565b60405180910390fd5b6008600086815260200190815260200160002060080160009054906101000a900473ffffffffffffffffffffffffffffffffffffffff1673ffffffffffffffffffffffffffffffffffffffff163373ffffffffffffffffffffffffffffffffffffffff1614613c4a576040517f08c379a0000000000000000000000000000000000000000000000000000000008152600401613c4190615f49565b60405180910390fd5b6000600b600087815260200190815260200160002060006101000a81548160ff02191690831515021790555060016008600087815260200190815260200160002060080160156101000a81548160ff02191690831515021790555060006006549050613cbb33308388888888613dbf565b505050505050565b600360009054906101000a900473ffffffffffffffffffffffffffffffffffffffff1681565b613cf161466e565b73ffffffffffffffffffffffffffffffffffffffff16613d0f6123c6565b73ffffffffffffffffffffffffffffffffffffffff1614613d6e57613d3261466e565b6040517f118cdaa7000000000000000000000000000000000000000000000000000000008152600401613d65919061532b565b60405180910390fd5b565b600260015403613dac576040517f3ee5aeb500000000000000000000000000000000000000000000000000000000815260040160405180910390fd5b6002600181905550565b60018081905550565b6000600360009054906101000a900473ffffffffffffffffffffffffffffffffffffffff1673ffffffffffffffffffffffffffffffffffffffff166370a08231896040518263ffffffff1660e01b8152600401613e1c919061532b565b602060405180830381865afa158015613e39573d6000803e3d6000fd5b505050506040513d601f19601f82011682018060405250810190613e5d9190615c53565b905085811015613ea2576040517f08c379a0000000000000000000000000000000000000000000000000000000008152600401613e9990616b0b565b60405180910390fd5b6000600360009054906101000a900473ffffffffffffffffffffffffffffffffffffffff1673ffffffffffffffffffffffffffffffffffffffff1663dd62ed3e33306040518363ffffffff1660e01b8152600401613f01929190616fe9565b602060405180830381865afa158015613f1e573d6000803e3d6000fd5b505050506040513d601f19601f82011682018060405250810190613f429190615c53565b905086811015613fe857600260009054906101000a900473ffffffffffffffffffffffffffffffffffffffff1673ffffffffffffffffffffffffffffffffffffffff1663d505accf33306007548a8a8a8a6040518863ffffffff1660e01b8152600401613fb59796959493929190617030565b600060405180830381600087803b158015613fcf57600080fd5b505af1158015613fe3573d6000803e3d6000fd5b505050505b86600360009054906101000a900473ffffffffffffffffffffffffffffffffffffffff1673ffffffffffffffffffffffffffffffffffffffff1663dd62ed3e33306040518363ffffffff1660e01b8152600401614046929190616fe9565b602060405180830381865afa158015614063573d6000803e3d6000fd5b505050506040513d601f19601f820116820180604052508101906140879190615c53565b10156140c8576040517f08c379a00000000000000000000000000000000000000000000000000000000081526004016140bf906170eb565b60405180910390fd5b600073ffffffffffffffffffffffffffffffffffffffff168973ffffffffffffffffffffffffffffffffffffffff1603614137576040517f08c379a000000000000000000000000000000000000000000000000000000000815260040161412e90617157565b60405180910390fd5b600073ffffffffffffffffffffffffffffffffffffffff168873ffffffffffffffffffffffffffffffffffffffff16036141a6576040517f08c379a000000000000000000000000000000000000000000000000000000000815260040161419d906171c3565b60405180910390fd5b600087116141e9576040517f08c379a00000000000000000000000000000000000000000000000000000000081526004016141e09061722f565b60405180910390fd5b6000600360009054906101000a900473ffffffffffffffffffffffffffffffffffffffff1673ffffffffffffffffffffffffffffffffffffffff166323b872dd8b8b8b6040518463ffffffff1660e01b815260040161424a9392919061724f565b6020604051808303816000875af1158015614269573d6000803e3d6000fd5b505050506040513d601f19601f8201168201806040525081019061428d9190615d52565b9050806142cf576040517f08c379a00000000000000000000000000000000000000000000000000000000081526004016142c6906172d2565b60405180910390fd5b50505050505050505050565b60006103e880426142ec9190616905565b6142f69190616a8b565b905090565b60008060009054906101000a900473ffffffffffffffffffffffffffffffffffffffff169050816000806101000a81548173ffffffffffffffffffffffffffffffffffffffff021916908373ffffffffffffffffffffffffffffffffffffffff1602179055508173ffffffffffffffffffffffffffffffffffffffff168173ffffffffffffffffffffffffffffffffffffffff167f8be0079c531659141344cd1fd0a4f28419497f9722a3daafe3b4186f6b6457e060405160405180910390a35050565b6000806143cb836138aa565b905060006064806143dc9190616905565b60aa866143e99190616905565b6143f39190616fb8565b9050600081836144039190616905565b905080935050505092915050565b60008060646008846144239190616905565b61442d9190616fb8565b905080915050919050565b600073ffffffffffffffffffffffffffffffffffffffff168273ffffffffffffffffffffffffffffffffffffffff16036144a7576040517f08c379a000000000000000000000000000000000000000000000000000000000815260040161449e9061733e565b60405180910390fd5b80600360009054906101000a900473ffffffffffffffffffffffffffffffffffffffff1673ffffffffffffffffffffffffffffffffffffffff166370a08231306040518263ffffffff1660e01b8152600401614503919061532b565b602060405180830381865afa158015614520573d6000803e3d6000fd5b505050506040513d601f19601f820116820180604052508101906145449190615c53565b1015614585576040517f08c379a000000000000000000000000000000000000000000000000000000000815260040161457c90616b0b565b60405180910390fd5b6000600360009054906101000a900473ffffffffffffffffffffffffffffffffffffffff1673ffffffffffffffffffffffffffffffffffffffff1663a9059cbb84846040518363ffffffff1660e01b81526004016145e4929190615cfd565b6020604051808303816000875af1158015614603573d6000803e3d6000fd5b505050506040513d601f19601f820116820180604052508101906146279190615d52565b905080614669576040517f08c379a0000000000000000000000000000000000000000000000000000000008152600401614660906172d2565b60405180910390fd5b505050565b600033905090565b6040518061012001604052806000815260200160008152602001600073ffffffffffffffffffffffffffffffffffffffff168152602001600081526020016000815260200160001515815260200160001515815260200160008152602001600081525090565b6040518061018001604052806000815260200160608152602001606081526020016060815260200160608152602001606081526020016000815260200160008152602001600073ffffffffffffffffffffffffffffffffffffffff168152602001600015158152602001600015158152602001600081525090565b6040518060a0016040528060008152602001600081526020016060815260200160008152602001600073ffffffffffffffffffffffffffffffffffffffff1681525090565b6000604051905090565b600080fd5b600080fd5b600073ffffffffffffffffffffffffffffffffffffffff82169050919050565b60006147db826147b0565b9050919050565b6147eb816147d0565b81146147f657600080fd5b50565b600081359050614808816147e2565b92915050565b6000819050919050565b6148218161480e565b811461482c57600080fd5b50565b60008135905061483e81614818565b92915050565b6000806040838503121561485b5761485a6147a6565b5b6000614869858286016147f9565b925050602061487a8582860161482f565b9150509250929050565b60006020828403121561489a576148996147a6565b5b60006148a88482850161482f565b91505092915050565b600081519050919050565b600082825260208201905092915050565b6000819050602082019050919050565b6148e6816147d0565b82525050565b60006148f883836148dd565b60208301905092915050565b6000602082019050919050565b600061491c826148b1565b61492681856148bc565b9350614931836148cd565b8060005b8381101561496257815161494988826148ec565b975061495483614904565b925050600181019050614935565b5085935050505092915050565b600060208201905081810360008301526149898184614911565b905092915050565b600080fd5b600080fd5b6000601f19601f8301169050919050565b7f4e487b7100000000000000000000000000000000000000000000000000000000600052604160045260246000fd5b6149e48261499b565b810181811067ffffffffffffffff82111715614a0357614a026149ac565b5b80604052505050565b6000614a1661479c565b9050614a2282826149db565b919050565b600067ffffffffffffffff821115614a4257614a416149ac565b5b614a4b8261499b565b9050602081019050919050565b82818337600083830152505050565b6000614a7a614a7584614a27565b614a0c565b905082815260208101848484011115614a9657614a95614996565b5b614aa1848285614a58565b509392505050565b600082601f830112614abe57614abd614991565b5b8135614ace848260208601614a67565b91505092915050565b600060ff82169050919050565b614aed81614ad7565b8114614af857600080fd5b50565b600081359050614b0a81614ae4565b92915050565b6000819050919050565b614b2381614b10565b8114614b2e57600080fd5b50565b600081359050614b4081614b1a565b92915050565b60008060008060008060008060008060006101608c8e031215614b6c57614b6b6147a6565b5b6000614b7a8e828f0161482f565b9b505060208c013567ffffffffffffffff811115614b9b57614b9a6147ab565b5b614ba78e828f01614aa9565b9a505060408c013567ffffffffffffffff811115614bc857614bc76147ab565b5b614bd48e828f01614aa9565b99505060608c013567ffffffffffffffff811115614bf557614bf46147ab565b5b614c018e828f01614aa9565b98505060808c013567ffffffffffffffff811115614c2257614c216147ab565b5b614c2e8e828f01614aa9565b97505060a0614c3f8e828f0161482f565b96505060c0614c508e828f0161482f565b95505060e0614c618e828f0161482f565b945050610100614c738e828f01614afb565b935050610120614c858e828f01614b31565b925050610140614c978e828f01614b31565b9150509295989b509295989b9093969950565b614cb38161480e565b82525050565b6000602082019050614cce6000830184614caa565b92915050565b600067ffffffffffffffff821115614cef57614cee6149ac565b5b602082029050602081019050919050565b600080fd5b6000614d18614d1384614cd4565b614a0c565b90508083825260208201905060208402830185811115614d3b57614d3a614d00565b5b835b81811015614d645780614d50888261482f565b845260208401935050602081019050614d3d565b5050509392505050565b600082601f830112614d8357614d82614991565b5b8135614d93848260208601614d05565b91505092915050565b600080600080600080600060e0888a031215614dbb57614dba6147a6565b5b6000614dc98a828b0161482f565b9750506020614dda8a828b0161482f565b965050604088013567ffffffffffffffff811115614dfb57614dfa6147ab565b5b614e078a828b01614d6e565b9550506060614e188a828b0161482f565b9450506080614e298a828b01614afb565b93505060a0614e3a8a828b01614b31565b92505060c0614e4b8a828b01614b31565b91505092959891949750929550565b60008060408385031215614e7157614e706147a6565b5b6000614e7f8582860161482f565b9250506020614e908582860161482f565b9150509250929050565b614ea38161480e565b82525050565b60008115159050919050565b614ebe81614ea9565b82525050565b61012082016000820151614edb6000850182614e9a565b506020820151614eee6020850182614e9a565b506040820151614f0160408501826148dd565b506060820151614f146060850182614e9a565b506080820151614f276080850182614e9a565b5060a0820151614f3a60a0850182614eb5565b5060c0820151614f4d60c0850182614eb5565b5060e0820151614f6060e0850182614e9a565b50610100820151614f75610100850182614e9a565b50505050565b600061012082019050614f916000830184614ec4565b92915050565b60008060008060008060008060008060006101608c8e031215614fbd57614fbc6147a6565b5b60008c013567ffffffffffffffff811115614fdb57614fda6147ab565b5b614fe78e828f01614aa9565b9b505060208c013567ffffffffffffffff811115615008576150076147ab565b5b6150148e828f01614aa9565b9a505060408c013567ffffffffffffffff811115615035576150346147ab565b5b6150418e828f01614aa9565b99505060608c013567ffffffffffffffff811115615062576150616147ab565b5b61506e8e828f01614aa9565b98505060808c013567ffffffffffffffff81111561508f5761508e6147ab565b5b61509b8e828f01614aa9565b97505060a06150ac8e828f0161482f565b96505060c06150bd8e828f0161482f565b95505060e06150ce8e828f0161482f565b9450506101006150e08e828f01614afb565b9350506101206150f28e828f01614b31565b9250506101406151048e828f01614b31565b9150509295989b509295989b9093969950565b6000806040838503121561512e5761512d6147a6565b5b600061513c8582860161482f565b925050602083013567ffffffffffffffff81111561515d5761515c6147ab565b5b61516985828601614d6e565b9150509250929050565b61517c81614ea9565b82525050565b60006020820190506151976000830184615173565b92915050565b600080604083850312156151b4576151b36147a6565b5b60006151c28582860161482f565b925050602083013567ffffffffffffffff8111156151e3576151e26147ab565b5b6151ef85828601614aa9565b9150509250929050565b6000819050919050565b600061521e615219615214846147b0565b6151f9565b6147b0565b9050919050565b600061523082615203565b9050919050565b600061524282615225565b9050919050565b61525281615237565b82525050565b600060208201905061526d6000830184615249565b92915050565b60008060008060008060c087890312156152905761528f6147a6565b5b600061529e89828a0161482f565b965050602087013567ffffffffffffffff8111156152bf576152be6147ab565b5b6152cb89828a01614d6e565b95505060406152dc89828a0161482f565b94505060606152ed89828a01614afb565b93505060806152fe89828a01614b31565b92505060a061530f89828a01614b31565b9150509295509295509295565b615325816147d0565b82525050565b6000602082019050615340600083018461531c565b92915050565b600081519050919050565b600082825260208201905092915050565b6000819050602082019050919050565b600081519050919050565b600082825260208201905092915050565b60005b838110156153ac578082015181840152602081019050615391565b60008484015250505050565b60006153c382615372565b6153cd818561537d565b93506153dd81856020860161538e565b6153e68161499b565b840191505092915050565b600060a0830160008301516154096000860182614e9a565b50602083015161541c6020860182614e9a565b506040830151848203604086015261543482826153b8565b91505060608301516154496060860182614e9a565b50608083015161545c60808601826148dd565b508091505092915050565b600061547383836153f1565b905092915050565b6000602082019050919050565b600061549382615346565b61549d8185615351565b9350836020820285016154af85615362565b8060005b858110156154eb57848403895281516154cc8582615467565b94506154d78361547b565b925060208a019950506001810190506154b3565b50829750879550505050505092915050565b600060208201905081810360008301526155178184615488565b905092915050565b600081519050919050565b600082825260208201905092915050565b6000819050602082019050919050565b6000610180830160008301516155646000860182614e9a565b506020830151848203602086015261557c82826153b8565b9150506040830151848203604086015261559682826153b8565b915050606083015184820360608601526155b082826153b8565b915050608083015184820360808601526155ca82826153b8565b91505060a083015184820360a08601526155e482826153b8565b91505060c08301516155f960c0860182614e9a565b5060e083015161560c60e0860182614e9a565b506101008301516156216101008601826148dd565b50610120830151615636610120860182614eb5565b5061014083015161564b610140860182614eb5565b50610160830151615660610160860182614e9a565b508091505092915050565b6000615677838361554b565b905092915050565b6000602082019050919050565b60006156978261551f565b6156a1818561552a565b9350836020820285016156b38561553b565b8060005b858110156156ef57848403895281516156d0858261566b565b94506156db8361567f565b925060208a019950506001810190506156b7565b50829750879550505050505092915050565b6000604082019050818103600083015261571b818561568c565b905061572a6020830184614caa565b9392505050565b60008060008060008060c0878903121561574e5761574d6147a6565b5b600061575c89828a0161482f565b965050602061576d89828a0161482f565b955050604061577e89828a0161482f565b945050606061578f89828a01614afb565b93505060806157a089828a01614b31565b92505060a06157b189828a01614b31565b9150509295509295509295565b6000610180830160008301516157d76000860182614e9a565b50602083015184820360208601526157ef82826153b8565b9150506040830151848203604086015261580982826153b8565b9150506060830151848203606086015261582382826153b8565b9150506080830151848203608086015261583d82826153b8565b91505060a083015184820360a086015261585782826153b8565b91505060c083015161586c60c0860182614e9a565b5060e083015161587f60e0860182614e9a565b506101008301516158946101008601826148dd565b506101208301516158a9610120860182614eb5565b506101408301516158be610140860182614eb5565b506101608301516158d3610160860182614e9a565b508091505092915050565b600060208201905081810360008301526158f881846157be565b905092915050565b600081519050919050565b600082825260208201905092915050565b6000819050602082019050919050565b60006159388383614e9a565b60208301905092915050565b6000602082019050919050565b600061595c82615900565b615966818561590b565b93506159718361591c565b8060005b838110156159a2578151615989888261592c565b975061599483615944565b925050600181019050615975565b5085935050505092915050565b600060208201905081810360008301526159c98184615951565b905092915050565b6000602082840312156159e7576159e66147a6565b5b60006159f5848285016147f9565b91505092915050565b600081519050919050565b600082825260208201905092915050565b6000819050602082019050919050565b61012082016000820151615a416000850182614e9a565b506020820151615a546020850182614e9a565b506040820151615a6760408501826148dd565b506060820151615a7a6060850182614e9a565b506080820151615a8d6080850182614e9a565b5060a0820151615aa060a0850182614eb5565b5060c0820151615ab360c0850182614eb5565b5060e0820151615ac660e0850182614e9a565b50610100820151615adb610100850182614e9a565b50505050565b6000615aed8383615a2a565b6101208301905092915050565b6000602082019050919050565b6000615b12826159fe565b615b1c8185615a09565b9350615b2783615a1a565b8060005b83811015615b58578151615b3f8882615ae1565b9750615b4a83615afa565b925050600181019050615b2b565b5085935050505092915050565b60006020820190508181036000830152615b7f8184615b07565b905092915050565b600080600080600060a08688031215615ba357615ba26147a6565b5b6000615bb18882890161482f565b9550506020615bc28882890161482f565b9450506040615bd388828901614afb565b9350506060615be488828901614b31565b9250506080615bf588828901614b31565b9150509295509295909350565b6000615c0d82615225565b9050919050565b615c1d81615c02565b82525050565b6000602082019050615c386000830184615c14565b92915050565b600081519050615c4d81614818565b92915050565b600060208284031215615c6957615c686147a6565b5b6000615c7784828501615c3e565b91505092915050565b600082825260208201905092915050565b7f496e73756666696369656e7420636f6e74726163742062616c616e6365000000600082015250565b6000615cc7601d83615c80565b9150615cd282615c91565b602082019050919050565b60006020820190508181036000830152615cf681615cba565b9050919050565b6000604082019050615d12600083018561531c565b615d1f6020830184614caa565b9392505050565b615d2f81614ea9565b8114615d3a57600080fd5b50565b600081519050615d4c81615d26565b92915050565b600060208284031215615d6857615d676147a6565b5b6000615d7684828501615d3d565b91505092915050565b7f5769746864726177206661696c65640000000000000000000000000000000000600082015250565b6000615db5600f83615c80565b9150615dc082615d7f565b602082019050919050565b60006020820190508181036000830152615de481615da8565b9050919050565b7f4e487b7100000000000000000000000000000000000000000000000000000000600052603260045260246000fd5b7f4e487b7100000000000000000000000000000000000000000000000000000000600052601160045260246000fd5b6000615e548261480e565b91507fffffffffffffffffffffffffffffffffffffffffffffffffffffffffffffffff8203615e8657615e85615e1a565b5b600182019050919050565b7f4170706172746d656e74206e6f7420666f756e64000000000000000000000000600082015250565b6000615ec7601483615c80565b9150615ed282615e91565b602082019050919050565b60006020820190508181036000830152615ef681615eba565b9050919050565b7f556e617574686f72697a656420656e7469747900000000000000000000000000600082015250565b6000615f33601383615c80565b9150615f3e82615efd565b602082019050919050565b60006020820190508181036000830152615f6281615f26565b9050919050565b7f4e487b7100000000000000000000000000000000000000000000000000000000600052602260045260246000fd5b60006002820490506001821680615fb057607f821691505b602082108103615fc357615fc2615f69565b5b50919050565b60008190508160005260206000209050919050565b60006020601f8301049050919050565b600082821b905092915050565b60006008830261602b7fffffffffffffffffffffffffffffffffffffffffffffffffffffffffffffffff82615fee565b6160358683615fee565b95508019841693508086168417925050509392505050565b600061606861606361605e8461480e565b6151f9565b61480e565b9050919050565b6000819050919050565b6160828361604d565b61609661608e8261606f565b848454615ffb565b825550505050565b600090565b6160ab61609e565b6160b6818484616079565b505050565b5b818110156160da576160cf6000826160a3565b6001810190506160bc565b5050565b601f82111561611f576160f081615fc9565b6160f984615fde565b81016020851015616108578190505b61611c61611485615fde565b8301826160bb565b50505b505050565b600082821c905092915050565b600061614260001984600802616124565b1980831691505092915050565b600061615b8383616131565b9150826002028217905092915050565b61617482615372565b67ffffffffffffffff81111561618d5761618c6149ac565b5b6161978254615f98565b6161a28282856160de565b600060209050601f8311600181146161d557600084156161c3578287015190505b6161cd858261614f565b865550616235565b601f1984166161e386615fc9565b60005b8281101561620b578489015182556001820191506020850194506020810190506161e6565b868310156162285784890151616224601f891682616131565b8355505b6001600288020188555050505b505050505050565b600061624882615372565b6162528185615c80565b935061626281856020860161538e565b61626b8161499b565b840191505092915050565b60006060820190508181036000830152616290818661623d565b905061629f6020830185614caa565b6162ac604083018461531c565b949350505050565b7f556e617574686f72697a656420456e7469747900000000000000000000000000600082015250565b60006162ea601383615c80565b91506162f5826162b4565b602082019050919050565b60006020820190508181036000830152616319816162dd565b9050919050565b7f4e6f7420636865636b656420696e000000000000000000000000000000000000600082015250565b6000616356600e83615c80565b915061636182616320565b602082019050919050565b6000602082019050818103600083015261638581616349565b9050919050565b7f446174657320617265206e6f7420626f6f6b6564000000000000000000000000600082015250565b60006163c2601483615c80565b91506163cd8261638c565b602082019050919050565b600060208201905081810360008301526163f1816163b5565b9050919050565b60006164038261480e565b915061640e8361480e565b925082820390508181111561642657616425615e1a565b5b92915050565b7f4e487b7100000000000000000000000000000000000000000000000000000000600052603160045260246000fd5b7f4e616d652063616e6e6f7420626520656d707479000000000000000000000000600082015250565b6000616491601483615c80565b915061649c8261645b565b602082019050919050565b600060208201905081810360008301526164c081616484565b9050919050565b7f4465736372697074696f6e2063616e6e6f7420626520656d7074790000000000600082015250565b60006164fd601b83615c80565b9150616508826164c7565b602082019050919050565b6000602082019050818103600083015261652c816164f0565b9050919050565b7f4c6f636174696f6e2063616e6e6f7420626520656d7074790000000000000000600082015250565b6000616569601883615c80565b915061657482616533565b602082019050919050565b600060208201905081810360008301526165988161655c565b9050919050565b7f496d616765732063616e6e6f7420626520656d70747900000000000000000000600082015250565b60006165d5601683615c80565b91506165e08261659f565b602082019050919050565b60006020820190508181036000830152616604816165c8565b9050919050565b7f526f6f6d732063616e6e6f74206265207a65726f000000000000000000000000600082015250565b6000616641601483615c80565b915061664c8261660b565b602082019050919050565b6000602082019050818103600083015261667081616634565b9050919050565b7f50726963652063616e6e6f74206265207a65726f000000000000000000000000600082015250565b60006166ad601483615c80565b91506166b882616677565b602082019050919050565b600060208201905081810360008301526166dc816166a0565b9050919050565b600060808201905081810360008301526166fd818761623d565b905061670c6020830186614caa565b616719604083018561531c565b6167266060830184614caa565b95945050505050565b7f4170706172746d656e74206e6f7420617661696c61626c650000000000000000600082015250565b6000616765601883615c80565b91506167708261672f565b602082019050919050565b6000602082019050818103600083015261679481616758565b9050919050565b7f426f6f6b206669727374206265666f7265207265766965770000000000000000600082015250565b60006167d1601883615c80565b91506167dc8261679b565b602082019050919050565b60006020820190508181036000830152616800816167c4565b9050919050565b7f436f6d6d656e742063616e6e6f7420626520656d707479000000000000000000600082015250565b600061683d601783615c80565b915061684882616807565b602082019050919050565b6000602082019050818103600083015261686c81616830565b9050919050565b7f5574696c69747920666565206d7573742062652067726561746572207468616e60008201527f2030000000000000000000000000000000000000000000000000000000000000602082015250565b60006168cf602283615c80565b91506168da82616873565b604082019050919050565b600060208201905081810360008301526168fe816168c2565b9050919050565b60006169108261480e565b915061691b8361480e565b92508282026169298161480e565b915082820484148315176169405761693f615e1a565b5b5092915050565b7f41706172746d656e74206e6f7420666f756e6421000000000000000000000000600082015250565b600061697d601483615c80565b915061698882616947565b602082019050919050565b600060208201905081810360008301526169ac81616970565b9050919050565b7f4f6e65206f72206d6f7265206461746573206e6f7420617661696c61626c6500600082015250565b60006169e9601f83615c80565b91506169f4826169b3565b602082019050919050565b60006020820190508181036000830152616a18816169dc565b9050919050565b7f4461746520616c726561647920626f6f6b656400000000000000000000000000600082015250565b6000616a55601383615c80565b9150616a6082616a1f565b602082019050919050565b60006020820190508181036000830152616a8481616a48565b9050919050565b6000616a968261480e565b9150616aa18361480e565b9250828201905080821115616ab957616ab8615e1a565b5b92915050565b7f496e73756666696369656e742062616c616e6365000000000000000000000000600082015250565b6000616af5601483615c80565b9150616b0082616abf565b602082019050919050565b60006020820190508181036000830152616b2481616ae8565b9050919050565b7f416c726561647920636865636b656420696e0000000000000000000000000000600082015250565b6000616b61601283615c80565b9150616b6c82616b2b565b602082019050919050565b60006020820190508181036000830152616b9081616b54565b9050919050565b7f446964206e6f7420626f6f6b206f6e2074686973206461746521000000000000600082015250565b6000616bcd601a83615c80565b9150616bd882616b97565b602082019050919050565b60006020820190508181036000830152616bfc81616bc0565b9050919050565b7f556e617574686f72697a65642074656e616e7421000000000000000000000000600082015250565b6000616c39601483615c80565b9150616c4482616c03565b602082019050919050565b60006020820190508181036000830152616c6881616c2c565b9050919050565b7f43616e206e6f206c6f6e67657220726566756e642c20626f6f6b696e6720646160008201527f7465207374617274656400000000000000000000000000000000000000000000602082015250565b6000616ccb602a83615c80565b9150616cd682616c6f565b604082019050919050565b60006020820190508181036000830152616cfa81616cbe565b9050919050565b7f44617465206973206e6f7420626f6f6b65640000000000000000000000000000600082015250565b6000616d37601283615c80565b9150616d4282616d01565b602082019050919050565b60006020820190508181036000830152616d6681616d2a565b9050919050565b7f41706172746d656e7420646f6573206e6f742065786973742100000000000000600082015250565b6000616da3601983615c80565b9150616dae82616d6d565b602082019050919050565b60006020820190508181036000830152616dd281616d96565b9050919050565b7f426f6f6b696e6720686173206265656e2063616e63656c6c6564210000000000600082015250565b6000616e0f601b83615c80565b9150616e1a82616dd9565b602082019050919050565b60006020820190508181036000830152616e3e81616e02565b9050919050565b7f436865636b2d696e2064617465206e6f74207265616368656420796574210000600082015250565b6000616e7b601e83615c80565b9150616e8682616e45565b602082019050919050565b60006020820190508181036000830152616eaa81616e6e565b9050919050565b7f436865636b2d696e20706572696f642065787069726564210000000000000000600082015250565b6000616ee7601883615c80565b9150616ef282616eb1565b602082019050919050565b60006020820190508181036000830152616f1681616eda565b9050919050565b7f53746172742064617465206d75737420626520696e2074686520667574757265600082015250565b6000616f53602083615c80565b9150616f5e82616f1d565b602082019050919050565b60006020820190508181036000830152616f8281616f46565b9050919050565b7f4e487b7100000000000000000000000000000000000000000000000000000000600052601260045260246000fd5b6000616fc38261480e565b9150616fce8361480e565b925082616fde57616fdd616f89565b5b828204905092915050565b6000604082019050616ffe600083018561531c565b61700b602083018461531c565b9392505050565b61701b81614ad7565b82525050565b61702a81614b10565b82525050565b600060e082019050617045600083018a61531c565b617052602083018961531c565b61705f6040830188614caa565b61706c6060830187614caa565b6170796080830186617012565b61708660a0830185617021565b61709360c0830184617021565b98975050505050505050565b7f416c6c6f77616e636520746f6f206c6f77000000000000000000000000000000600082015250565b60006170d5601183615c80565b91506170e08261709f565b602082019050919050565b60006020820190508181036000830152617104816170c8565b9050919050565b7f496e76616c69642073656e646572000000000000000000000000000000000000600082015250565b6000617141600e83615c80565b915061714c8261710b565b602082019050919050565b6000602082019050818103600083015261717081617134565b9050919050565b7f496e76616c696420726563697069656e74000000000000000000000000000000600082015250565b60006171ad601183615c80565b91506171b882617177565b602082019050919050565b600060208201905081810360008301526171dc816171a0565b9050919050565b7f416d6f756e74206d7573742062652067726561746572207468616e207a65726f600082015250565b6000617219602083615c80565b9150617224826171e3565b602082019050919050565b600060208201905081810360008301526172488161720c565b9050919050565b6000606082019050617264600083018661531c565b617271602083018561531c565b61727e6040830184614caa565b949350505050565b7f546f6b656e207472616e73666572206661696c65640000000000000000000000600082015250565b60006172bc601583615c80565b91506172c782617286565b602082019050919050565b600060208201905081810360008301526172eb816172af565b9050919050565b7f496e76616c696420726563697069656e74206164647265737300000000000000600082015250565b6000617328601983615c80565b9150617333826172f2565b602082019050919050565b600060208201905081810360008301526173578161731b565b905091905056fea264697066735822122090692542d5664bcc5c5b935ba01b9fb6d0d5500602f4e14a636d6eed70f61e6964736f6c63430008180033",
  "linkReferences": {},
  "deployedLinkReferences": {}
}