{
  "_format": "hh-sol-artifact-1",
  "contractName": "Rentdapp",
  "sourceName": "contracts/Rentdapp.sol",
  "abi": [
    {
      "inputs": [
        {
          "internalType": "address",
          "name": "_tokenAddress",
          "type": "address"
        }
      ],
      "stateMutability": "nonpayable",
      "type": "constructor"
    },
    {
      "inputs": [],
      "name": "ReentrancyGuardReentrantCall",
      "type": "error"
    },
    {
      "anonymous": false,
      "inputs": [
        {
          "indexed": false,
          "internalType": "string",
          "name": "name",
          "type": "string"
        },
        {
          "indexed": false,
          "internalType": "uint256",
          "name": "price",
          "type": "uint256"
        },
        {
          "indexed": false,
          "internalType": "address",
          "name": "owner",
          "type": "address"
        },
        {
          "indexed": false,
          "internalType": "uint256",
          "name": "id",
          "type": "uint256"
        }
      ],
      "name": "ApartmentCreated",
      "type": "event"
    },
    {
      "anonymous": false,
      "inputs": [
        {
          "indexed": false,
          "internalType": "string",
          "name": "name",
          "type": "string"
        },
        {
          "indexed": false,
          "internalType": "uint256",
          "name": "price",
          "type": "uint256"
        },
        {
          "indexed": false,
          "internalType": "address",
          "name": "owner",
          "type": "address"
        }
      ],
      "name": "ApartmentUpdated",
      "type": "event"
    },
    {
      "inputs": [],
      "name": "PERCENTAGE_FACTOR",
      "outputs": [
        {
          "internalType": "uint256",
          "name": "",
          "type": "uint256"
        }
      ],
      "stateMutability": "view",
      "type": "function"
    },
    {
      "inputs": [],
      "name": "_totalAppartments",
      "outputs": [
        {
          "internalType": "uint256",
          "name": "",
          "type": "uint256"
        }
      ],
      "stateMutability": "view",
      "type": "function"
    },
    {
      "inputs": [],
      "name": "_totalBookings",
      "outputs": [
        {
          "internalType": "uint256",
          "name": "",
          "type": "uint256"
        }
      ],
      "stateMutability": "view",
      "type": "function"
    },
    {
      "inputs": [
        {
          "internalType": "uint256",
          "name": "aid",
          "type": "uint256"
        },
        {
          "internalType": "string",
          "name": "comment",
          "type": "string"
        }
      ],
      "name": "addReview",
      "outputs": [],
      "stateMutability": "nonpayable",
      "type": "function"
    },
    {
      "inputs": [],
      "name": "allowanceAmount",
      "outputs": [
        {
          "internalType": "uint256",
          "name": "",
          "type": "uint256"
        }
      ],
      "stateMutability": "view",
      "type": "function"
    },
    {
      "inputs": [
        {
          "internalType": "uint256",
          "name": "aid",
          "type": "uint256"
        },
        {
          "internalType": "uint256[]",
          "name": "dates",
          "type": "uint256[]"
        },
        {
          "internalType": "uint256",
          "name": "deadline",
          "type": "uint256"
        },
        {
          "internalType": "uint8",
          "name": "v",
          "type": "uint8"
        },
        {
          "internalType": "bytes32",
          "name": "r",
          "type": "bytes32"
        },
        {
          "internalType": "bytes32",
          "name": "s",
          "type": "bytes32"
        }
      ],
      "name": "bookApartment",
      "outputs": [],
      "stateMutability": "nonpayable",
      "type": "function"
    },
    {
      "inputs": [
        {
          "internalType": "uint256",
          "name": "aid",
          "type": "uint256"
        },
        {
          "internalType": "uint256",
          "name": "bookingId",
          "type": "uint256"
        },
        {
          "internalType": "uint256",
          "name": "deadline",
          "type": "uint256"
        },
        {
          "internalType": "uint8",
          "name": "v",
          "type": "uint8"
        },
        {
          "internalType": "bytes32",
          "name": "r",
          "type": "bytes32"
        },
        {
          "internalType": "bytes32",
          "name": "s",
          "type": "bytes32"
        }
      ],
      "name": "cancelBooking",
      "outputs": [],
      "stateMutability": "nonpayable",
      "type": "function"
    },
    {
      "inputs": [
        {
          "internalType": "uint256",
          "name": "aid",
          "type": "uint256"
        },
        {
          "internalType": "uint256",
          "name": "bookingId",
          "type": "uint256"
        },
        {
          "internalType": "uint256",
          "name": "deadline",
          "type": "uint256"
        },
        {
          "internalType": "uint8",
          "name": "v",
          "type": "uint8"
        },
        {
          "internalType": "bytes32",
          "name": "r",
          "type": "bytes32"
        },
        {
          "internalType": "bytes32",
          "name": "s",
          "type": "bytes32"
        }
      ],
      "name": "checkInApartment",
      "outputs": [],
      "stateMutability": "nonpayable",
      "type": "function"
    },
    {
      "inputs": [
        {
          "internalType": "uint256",
          "name": "aid",
          "type": "uint256"
        },
        {
          "internalType": "uint256",
          "name": "bookingId",
          "type": "uint256"
        },
        {
          "internalType": "uint256[]",
          "name": "dates",
          "type": "uint256[]"
        },
        {
          "internalType": "uint256",
          "name": "deadline",
          "type": "uint256"
        },
        {
          "internalType": "uint8",
          "name": "v",
          "type": "uint8"
        },
        {
          "internalType": "bytes32",
          "name": "r",
          "type": "bytes32"
        },
        {
          "internalType": "bytes32",
          "name": "s",
          "type": "bytes32"
        }
      ],
      "name": "checkOutApartment",
      "outputs": [],
      "stateMutability": "nonpayable",
      "type": "function"
    },
    {
      "inputs": [],
      "name": "contractBalance",
      "outputs": [
        {
          "internalType": "uint256",
          "name": "",
          "type": "uint256"
        }
      ],
      "stateMutability": "view",
      "type": "function"
    },
    {
      "inputs": [
        {
          "internalType": "string",
          "name": "name",
          "type": "string"
        },
        {
          "internalType": "string",
          "name": "description",
          "type": "string"
        },
        {
          "internalType": "string",
          "name": "category",
          "type": "string"
        },
        {
          "internalType": "string",
          "name": "location",
          "type": "string"
        },
        {
          "internalType": "string",
          "name": "images",
          "type": "string"
        },
        {
          "internalType": "uint256",
          "name": "rooms",
          "type": "uint256"
        },
        {
          "internalType": "uint256",
          "name": "price",
          "type": "uint256"
        },
        {
          "internalType": "uint256",
          "name": "deadline",
          "type": "uint256"
        },
        {
          "internalType": "uint8",
          "name": "v",
          "type": "uint8"
        },
        {
          "internalType": "bytes32",
          "name": "r",
          "type": "bytes32"
        },
        {
          "internalType": "bytes32",
          "name": "s",
          "type": "bytes32"
        }
      ],
      "name": "createApartment",
      "outputs": [],
      "stateMutability": "nonpayable",
      "type": "function"
    },
    {
      "inputs": [
        {
          "internalType": "uint256",
          "name": "aid",
          "type": "uint256"
        },
        {
          "internalType": "uint256[]",
          "name": "dates",
          "type": "uint256[]"
        }
      ],
      "name": "datesAreCleared",
      "outputs": [
        {
          "internalType": "bool",
          "name": "",
          "type": "bool"
        }
      ],
      "stateMutability": "view",
      "type": "function"
    },
    {
      "inputs": [
        {
          "internalType": "uint256",
          "name": "startDate",
          "type": "uint256"
        }
      ],
      "name": "daysUntilStartDate",
      "outputs": [
        {
          "internalType": "uint256",
          "name": "",
          "type": "uint256"
        }
      ],
      "stateMutability": "view",
      "type": "function"
    },
    {
      "inputs": [
        {
          "internalType": "uint256",
          "name": "id",
          "type": "uint256"
        },
        {
          "internalType": "uint256",
          "name": "deadline",
          "type": "uint256"
        },
        {
          "internalType": "uint8",
          "name": "v",
          "type": "uint8"
        },
        {
          "internalType": "bytes32",
          "name": "r",
          "type": "bytes32"
        },
        {
          "internalType": "bytes32",
          "name": "s",
          "type": "bytes32"
        }
      ],
      "name": "deleteApartment",
      "outputs": [],
      "stateMutability": "nonpayable",
      "type": "function"
    },
    {
      "inputs": [
        {
          "internalType": "uint256",
          "name": "id",
          "type": "uint256"
        }
      ],
      "name": "getApartment",
      "outputs": [
        {
          "components": [
            {
              "internalType": "uint256",
              "name": "id",
              "type": "uint256"
            },
            {
              "internalType": "string",
              "name": "name",
              "type": "string"
            },
            {
              "internalType": "string",
              "name": "description",
              "type": "string"
            },
            {
              "internalType": "string",
              "name": "category",
              "type": "string"
            },
            {
              "internalType": "string",
              "name": "location",
              "type": "string"
            },
            {
              "internalType": "string",
              "name": "images",
              "type": "string"
            },
            {
              "internalType": "uint256",
              "name": "rooms",
              "type": "uint256"
            },
            {
              "internalType": "uint256",
              "name": "price",
              "type": "uint256"
            },
            {
              "internalType": "address",
              "name": "owner",
              "type": "address"
            },
            {
              "internalType": "bool",
              "name": "booked",
              "type": "bool"
            },
            {
              "internalType": "bool",
              "name": "deleted",
              "type": "bool"
            },
            {
              "internalType": "uint256",
              "name": "timestamp",
              "type": "uint256"
            }
          ],
          "internalType": "struct Rentdapp.ApartmentStruct",
          "name": "",
          "type": "tuple"
        }
      ],
      "stateMutability": "view",
      "type": "function"
    },
    {
      "inputs": [],
      "name": "getApartmentCount",
      "outputs": [
        {
          "internalType": "uint256",
          "name": "",
          "type": "uint256"
        }
      ],
      "stateMutability": "view",
      "type": "function"
    },
    {
      "inputs": [],
      "name": "getApartments",
      "outputs": [
        {
          "components": [
            {
              "internalType": "uint256",
              "name": "id",
              "type": "uint256"
            },
            {
              "internalType": "string",
              "name": "name",
              "type": "string"
            },
            {
              "internalType": "string",
              "name": "description",
              "type": "string"
            },
            {
              "internalType": "string",
              "name": "category",
              "type": "string"
            },
            {
              "internalType": "string",
              "name": "location",
              "type": "string"
            },
            {
              "internalType": "string",
              "name": "images",
              "type": "string"
            },
            {
              "internalType": "uint256",
              "name": "rooms",
              "type": "uint256"
            },
            {
              "internalType": "uint256",
              "name": "price",
              "type": "uint256"
            },
            {
              "internalType": "address",
              "name": "owner",
              "type": "address"
            },
            {
              "internalType": "bool",
              "name": "booked",
              "type": "bool"
            },
            {
              "internalType": "bool",
              "name": "deleted",
              "type": "bool"
            },
            {
              "internalType": "uint256",
              "name": "timestamp",
              "type": "uint256"
            }
          ],
          "internalType": "struct Rentdapp.ApartmentStruct[]",
          "name": "Apartments",
          "type": "tuple[]"
        },
        {
          "internalType": "uint256",
          "name": "total_appartment_aval",
          "type": "uint256"
        }
      ],
      "stateMutability": "view",
      "type": "function"
    },
    {
      "inputs": [
        {
          "internalType": "uint256",
          "name": "aid",
          "type": "uint256"
        },
        {
          "internalType": "uint256",
          "name": "bookingId",
          "type": "uint256"
        }
      ],
      "name": "getBooking",
      "outputs": [
        {
          "components": [
            {
              "internalType": "uint256",
              "name": "id",
              "type": "uint256"
            },
            {
              "internalType": "uint256",
              "name": "aid",
              "type": "uint256"
            },
            {
              "internalType": "address",
              "name": "tenant",
              "type": "address"
            },
            {
              "internalType": "uint256",
              "name": "date",
              "type": "uint256"
            },
            {
              "internalType": "uint256",
              "name": "price",
              "type": "uint256"
            },
            {
              "internalType": "bool",
              "name": "checked",
              "type": "bool"
            },
            {
              "internalType": "bool",
              "name": "cancelled",
              "type": "bool"
            },
            {
              "internalType": "uint256",
              "name": "collateral",
              "type": "uint256"
            },
            {
              "internalType": "uint256",
              "name": "commision",
              "type": "uint256"
            }
          ],
          "internalType": "struct Rentdapp.BookingStruct",
          "name": "",
          "type": "tuple"
        }
      ],
      "stateMutability": "view",
      "type": "function"
    },
    {
      "inputs": [
        {
          "internalType": "uint256",
          "name": "aid",
          "type": "uint256"
        }
      ],
      "name": "getBookings",
      "outputs": [
        {
          "components": [
            {
              "internalType": "uint256",
              "name": "id",
              "type": "uint256"
            },
            {
              "internalType": "uint256",
              "name": "aid",
              "type": "uint256"
            },
            {
              "internalType": "address",
              "name": "tenant",
              "type": "address"
            },
            {
              "internalType": "uint256",
              "name": "date",
              "type": "uint256"
            },
            {
              "internalType": "uint256",
              "name": "price",
              "type": "uint256"
            },
            {
              "internalType": "bool",
              "name": "checked",
              "type": "bool"
            },
            {
              "internalType": "bool",
              "name": "cancelled",
              "type": "bool"
            },
            {
              "internalType": "uint256",
              "name": "collateral",
              "type": "uint256"
            },
            {
              "internalType": "uint256",
              "name": "commision",
              "type": "uint256"
            }
          ],
          "internalType": "struct Rentdapp.BookingStruct[]",
          "name": "",
          "type": "tuple[]"
        }
      ],
      "stateMutability": "view",
      "type": "function"
    },
    {
      "inputs": [
        {
          "internalType": "uint256",
          "name": "aid",
          "type": "uint256"
        }
      ],
      "name": "getQualifiedReviewers",
      "outputs": [
        {
          "internalType": "address[]",
          "name": "Tenants",
          "type": "address[]"
        }
      ],
      "stateMutability": "view",
      "type": "function"
    },
    {
      "inputs": [
        {
          "internalType": "uint256",
          "name": "aid",
          "type": "uint256"
        }
      ],
      "name": "getReviews",
      "outputs": [
        {
          "components": [
            {
              "internalType": "uint256",
              "name": "id",
              "type": "uint256"
            },
            {
              "internalType": "uint256",
              "name": "aid",
              "type": "uint256"
            },
            {
              "internalType": "string",
              "name": "reviewText",
              "type": "string"
            },
            {
              "internalType": "uint256",
              "name": "timestamp",
              "type": "uint256"
            },
            {
              "internalType": "address",
              "name": "owner",
              "type": "address"
            }
          ],
          "internalType": "struct Rentdapp.ReviewStruct[]",
          "name": "",
          "type": "tuple[]"
        }
      ],
      "stateMutability": "view",
      "type": "function"
    },
    {
      "inputs": [
        {
          "internalType": "uint256",
          "name": "aid",
          "type": "uint256"
        }
      ],
      "name": "getUnavailableDates",
      "outputs": [
        {
          "internalType": "uint256[]",
          "name": "",
          "type": "uint256[]"
        }
      ],
      "stateMutability": "view",
      "type": "function"
    },
    {
      "inputs": [],
      "name": "getUtilityFee",
      "outputs": [
        {
          "internalType": "uint256",
          "name": "",
          "type": "uint256"
        }
      ],
      "stateMutability": "view",
      "type": "function"
    },
    {
      "inputs": [],
      "name": "owner",
      "outputs": [
        {
          "internalType": "address",
          "name": "",
          "type": "address"
        }
      ],
      "stateMutability": "view",
      "type": "function"
    },
    {
      "inputs": [],
      "name": "permitToken",
      "outputs": [
        {
          "internalType": "contract IERC20Permit",
          "name": "",
          "type": "address"
        }
      ],
      "stateMutability": "view",
      "type": "function"
    },
    {
      "inputs": [
        {
          "internalType": "uint256",
          "name": "_newFee",
          "type": "uint256"
        }
      ],
      "name": "setUtilityFee",
      "outputs": [],
      "stateMutability": "nonpayable",
      "type": "function"
    },
    {
      "inputs": [
        {
          "internalType": "uint256",
          "name": "appartmentId",
          "type": "uint256"
        }
      ],
      "name": "tenantBooked",
      "outputs": [
        {
          "internalType": "bool",
          "name": "",
          "type": "bool"
        }
      ],
      "stateMutability": "view",
      "type": "function"
    },
    {
      "inputs": [],
      "name": "token",
      "outputs": [
        {
          "internalType": "contract IERC20",
          "name": "",
          "type": "address"
        }
      ],
      "stateMutability": "view",
      "type": "function"
    },
    {
      "inputs": [
        {
          "internalType": "uint256",
          "name": "id",
          "type": "uint256"
        },
        {
          "internalType": "string",
          "name": "name",
          "type": "string"
        },
        {
          "internalType": "string",
          "name": "description",
          "type": "string"
        },
        {
          "internalType": "string",
          "name": "location",
          "type": "string"
        },
        {
          "internalType": "string",
          "name": "images",
          "type": "string"
        },
        {
          "internalType": "uint256",
          "name": "rooms",
          "type": "uint256"
        },
        {
          "internalType": "uint256",
          "name": "price",
          "type": "uint256"
        },
        {
          "internalType": "uint256",
          "name": "deadline",
          "type": "uint256"
        },
        {
          "internalType": "uint8",
          "name": "v",
          "type": "uint8"
        },
        {
          "internalType": "bytes32",
          "name": "r",
          "type": "bytes32"
        },
        {
          "internalType": "bytes32",
          "name": "s",
          "type": "bytes32"
        }
      ],
      "name": "updateApartment",
      "outputs": [],
      "stateMutability": "nonpayable",
      "type": "function"
    },
    {
      "inputs": [],
      "name": "utilityFee",
      "outputs": [
        {
          "internalType": "uint256",
          "name": "",
          "type": "uint256"
        }
      ],
      "stateMutability": "view",
      "type": "function"
    },
    {
      "inputs": [
        {
          "internalType": "address",
          "name": "recipient",
          "type": "address"
        },
        {
          "internalType": "uint256",
          "name": "amount",
          "type": "uint256"
        }
      ],
      "name": "withdrawTokens",
      "outputs": [],
      "stateMutability": "nonpayable",
      "type": "function"
    }
  ],
  "bytecode": "0x60806040526605af3107a4000060065569d3c20dee1639f99c000060075534801561002957600080fd5b506040516174c43803806174c4833981810160405281019061004b919061017f565b600160008190555080600160006101000a81548173ffffffffffffffffffffffffffffffffffffffff021916908373ffffffffffffffffffffffffffffffffffffffff16021790555080600260006101000a81548173ffffffffffffffffffffffffffffffffffffffff021916908373ffffffffffffffffffffffffffffffffffffffff16021790555033600360006101000a81548173ffffffffffffffffffffffffffffffffffffffff021916908373ffffffffffffffffffffffffffffffffffffffff160217905550506101ac565b600080fd5b600073ffffffffffffffffffffffffffffffffffffffff82169050919050565b600061014c82610121565b9050919050565b61015c81610141565b811461016757600080fd5b50565b60008151905061017981610153565b92915050565b6000602082840312156101955761019461011c565b5b60006101a38482850161016a565b91505092915050565b617309806101bb6000396000f3fe608060405234801561001057600080fd5b50600436106101e55760003560e01c80638b7afe2e1161010f578063c4452e06116100a2578063ee01e5e711610071578063ee01e5e714610593578063f4010995146105b1578063f62eca84146105e1578063fc0c546a146105fd576101e5565b8063c4452e06146104e5578063c6bfd15414610515578063db2f80b714610545578063dccd8bd214610575576101e5565b80639f31a2be116100de5780639f31a2be1461045e578063b1c980991461048e578063b7aa67a3146104ad578063beafdc9c146104c9576101e5565b80638b7afe2e146103d65780638ba15f3f146103f45780638da5cb5b146104105780639d4a22551461042e576101e5565b8063463c1ddf116101875780635bb0c5d6116101565780635bb0c5d614610362578063895ec2331461037e578063898700af1461039a5780638b560818146103b8576101e5565b8063463c1ddf146102da57806347a49fd9146102f65780635872cf9c146103145780635ac2f3bc14610332576101e5565b80632258eb3b116101c35780632258eb3b1461025257806328e4c59f14610270578063375d69df1461028c578063455b3070146102aa576101e5565b806306b091f9146101ea5780630bb9ce331461020657806313ee890b14610236575b600080fd5b61020460048036038101906101ff919061477a565b61061b565b005b610220600480360381019061021b91906147ba565b61087c565b60405161022d91906148a5565b60405180910390f35b610250600480360381019061024b9190614a7c565b610a8a565b005b61025a611120565b6040516102679190614bef565b60405180910390f35b61028a60048036038101906102859190614cd2565b61112a565b005b6102946114c0565b6040516102a19190614bef565b60405180910390f35b6102c460048036038101906102bf9190614d90565b6114c6565b6040516102d19190614eb1565b60405180910390f35b6102f460048036038101906102ef9190614ecd565b6115dd565b005b6102fe611a08565b60405161030b9190614bef565b60405180910390f35b61031c611a0e565b6040516103299190614bef565b60405180910390f35b61034c6004803603810190610347919061504d565b611a14565b60405161035991906150b8565b60405180910390f35b61037c600480360381019061037791906150d3565b611a99565b005b610398600480360381019061039391906147ba565b611d1d565b005b6103a2611dfa565b6040516103af919061518e565b60405180910390f35b6103c0611e20565b6040516103cd9190614bef565b60405180910390f35b6103de611e2a565b6040516103eb9190614bef565b60405180910390f35b61040e600480360381019061040991906151a9565b611ecd565b005b610418612486565b6040516104259190615261565b60405180910390f35b610448600480360381019061044391906147ba565b6124ac565b6040516104559190615433565b60405180910390f35b610478600480360381019061047391906147ba565b612624565b60405161048591906150b8565b60405180910390f35b61049661268b565b6040516104a4929190615637565b60405180910390f35b6104c760048036038101906104c29190615667565b612b70565b005b6104e360048036038101906104de9190615667565b6130e5565b005b6104ff60048036038101906104fa91906147ba565b6135fc565b60405161050c9190615814565b60405180910390f35b61052f600480360381019061052a91906147ba565b6139b8565b60405161053c9190614bef565b60405180910390f35b61055f600480360381019061055a91906147ba565b613a1d565b60405161056c91906158e5565b60405180910390f35b61057d613a88565b60405161058a9190614bef565b60405180910390f35b61059b613a8e565b6040516105a89190614bef565b60405180910390f35b6105cb60048036038101906105c691906147ba565b613a93565b6040516105d89190615a6e565b60405180910390f35b6105fb60048036038101906105f69190615a90565b613bce565b005b610605613d4b565b6040516106129190615b2c565b60405180910390f35b600360009054906101000a900473ffffffffffffffffffffffffffffffffffffffff1673ffffffffffffffffffffffffffffffffffffffff163373ffffffffffffffffffffffffffffffffffffffff16146106ab576040517f08c379a00000000000000000000000000000000000000000000000000000000081526004016106a290615ba4565b60405180910390fd5b6106b3613d71565b80600260009054906101000a900473ffffffffffffffffffffffffffffffffffffffff1673ffffffffffffffffffffffffffffffffffffffff166370a08231306040518263ffffffff1660e01b815260040161070f9190615261565b602060405180830381865afa15801561072c573d6000803e3d6000fd5b505050506040513d601f19601f820116820180604052508101906107509190615bd9565b1015610791576040517f08c379a000000000000000000000000000000000000000000000000000000000815260040161078890615c52565b60405180910390fd5b600260009054906101000a900473ffffffffffffffffffffffffffffffffffffffff1673ffffffffffffffffffffffffffffffffffffffff1663a9059cbb83836040518363ffffffff1660e01b81526004016107ee929190615c72565b6020604051808303816000875af115801561080d573d6000803e3d6000fd5b505050506040513d601f19601f820116820180604052508101906108319190615cc7565b610870576040517f08c379a000000000000000000000000000000000000000000000000000000000815260040161086790615d40565b60405180910390fd5b610878613db7565b5050565b6060600080600090505b6009600085815260200190815260200160002080549050811015610909576009600085815260200190815260200160002081815481106108c9576108c8615d60565b5b906000526020600020906008020160050160009054906101000a900460ff16156108fc5781806108f890615dbe565b9250505b8080600101915050610886565b508067ffffffffffffffff811115610924576109236148e2565b5b6040519080825280602002602001820160405280156109525781602001602082028036833780820191505090505b509150600080600090505b6009600086815260200190815260200160002080549050811015610a82576009600086815260200190815260200160002081815481106109a05761099f615d60565b5b906000526020600020906008020160050160009054906101000a900460ff1615610a75576009600086815260200190815260200160002081815481106109e9576109e8615d60565b5b906000526020600020906008020160020160009054906101000a900473ffffffffffffffffffffffffffffffffffffffff16848380610a2790615dbe565b945081518110610a3a57610a39615d60565b5b602002602001019073ffffffffffffffffffffffffffffffffffffffff16908173ffffffffffffffffffffffffffffffffffffffff16815250505b808060010191505061095d565b505050919050565b600b60008c815260200190815260200160002060009054906101000a900460ff16610aea576040517f08c379a0000000000000000000000000000000000000000000000000000000008152600401610ae190615e52565b60405180910390fd5b600860008c815260200190815260200160002060080160009054906101000a900473ffffffffffffffffffffffffffffffffffffffff1673ffffffffffffffffffffffffffffffffffffffff163373ffffffffffffffffffffffffffffffffffffffff1614610b8e576040517f08c379a0000000000000000000000000000000000000000000000000000000008152600401610b8590615ebe565b60405180910390fd5b6000600860008d81526020019081526020016000206040518061018001604052908160008201548152602001600182018054610bc990615f0d565b80601f0160208091040260200160405190810160405280929190818152602001828054610bf590615f0d565b8015610c425780601f10610c1757610100808354040283529160200191610c42565b820191906000526020600020905b815481529060010190602001808311610c2557829003601f168201915b50505050508152602001600282018054610c5b90615f0d565b80601f0160208091040260200160405190810160405280929190818152602001828054610c8790615f0d565b8015610cd45780601f10610ca957610100808354040283529160200191610cd4565b820191906000526020600020905b815481529060010190602001808311610cb757829003601f168201915b50505050508152602001600382018054610ced90615f0d565b80601f0160208091040260200160405190810160405280929190818152602001828054610d1990615f0d565b8015610d665780601f10610d3b57610100808354040283529160200191610d66565b820191906000526020600020905b815481529060010190602001808311610d4957829003601f168201915b50505050508152602001600482018054610d7f90615f0d565b80601f0160208091040260200160405190810160405280929190818152602001828054610dab90615f0d565b8015610df85780601f10610dcd57610100808354040283529160200191610df8565b820191906000526020600020905b815481529060010190602001808311610ddb57829003601f168201915b50505050508152602001600582018054610e1190615f0d565b80601f0160208091040260200160405190810160405280929190818152602001828054610e3d90615f0d565b8015610e8a5780601f10610e5f57610100808354040283529160200191610e8a565b820191906000526020600020905b815481529060010190602001808311610e6d57829003601f168201915b5050505050815260200160068201548152602001600782015481526020016008820160009054906101000a900473ffffffffffffffffffffffffffffffffffffffff1673ffffffffffffffffffffffffffffffffffffffff1673ffffffffffffffffffffffffffffffffffffffff1681526020016008820160149054906101000a900460ff161515151581526020016008820160159054906101000a900460ff1615151515815260200160098201548152505090508a8160200181905250898160400181905250888160800181905250878160a00181905250868160c0018181525050858160e0018181525050806008600083600001518152602001908152602001600020600082015181600001556020820151816001019081610fae91906160e0565b506040820151816002019081610fc491906160e0565b506060820151816003019081610fda91906160e0565b506080820151816004019081610ff091906160e0565b5060a082015181600501908161100691906160e0565b5060c0820151816006015560e082015181600701556101008201518160080160006101000a81548173ffffffffffffffffffffffffffffffffffffffff021916908373ffffffffffffffffffffffffffffffffffffffff1602179055506101208201518160080160146101000a81548160ff0219169083151502179055506101408201518160080160156101000a81548160ff0219169083151502179055506101608201518160090155905050600060065490506110c933308389898989613dc1565b7f219242c38af47599659b8884972ac47cbae53eecb21cd56fbc1a7355e96e66cf82602001518360e00151846101000151604051611109939291906161eb565b60405180910390a150505050505050505050505050565b6000600454905090565b611132613d71565b600060096000898152602001908152602001600020878154811061115957611158615d60565b5b90600052602060002090600802016040518061012001604052908160008201548152602001600182015481526020016002820160009054906101000a900473ffffffffffffffffffffffffffffffffffffffff1673ffffffffffffffffffffffffffffffffffffffff1673ffffffffffffffffffffffffffffffffffffffff16815260200160038201548152602001600482015481526020016005820160009054906101000a900460ff161515151581526020016005820160019054906101000a900460ff16151515158152602001600682015481526020016007820154815250509050806040015173ffffffffffffffffffffffffffffffffffffffff163373ffffffffffffffffffffffffffffffffffffffff16146112af576040517f08c379a00000000000000000000000000000000000000000000000000000000081526004016112a690616275565b60405180910390fd5b8060a001516112f3576040517f08c379a00000000000000000000000000000000000000000000000000000000081526004016112ea906162e1565b60405180910390fd5b6112fd8887611a14565b1561133d576040517f08c379a00000000000000000000000000000000000000000000000000000000081526004016113349061634d565b60405180910390fd5b6001600960008a8152602001908152602001600020888154811061136457611363615d60565b5b906000526020600020906008020160050160016101000a81548160ff0219169083151502179055506000600d60008a815260200190815260200160002060008360600151815260200190815260200160002060006101000a81548160ff02191690831515021790555060006001600c60008b8152602001908152602001600020805490506113f2919061636d565b90506000600c60008b8152602001908152602001600020828154811061141b5761141a615d60565b5b9060005260206000200154905080600c60008c81526020019081526020016000208a8154811061144e5761144d615d60565b5b9060005260206000200181905550600c60008b815260200190815260200160002080548061147f5761147e6163a1565b5b60019003818190600052602060002001600090559055600060065490506114ab3330838b8b8b8b613dc1565b505050506114b7613db7565b50505050505050565b60075481565b6114ce6145ac565b6009600084815260200190815260200160002082815481106114f3576114f2615d60565b5b90600052602060002090600802016040518061012001604052908160008201548152602001600182015481526020016002820160009054906101000a900473ffffffffffffffffffffffffffffffffffffffff1673ffffffffffffffffffffffffffffffffffffffff1673ffffffffffffffffffffffffffffffffffffffff16815260200160038201548152602001600482015481526020016005820160009054906101000a900460ff161515151581526020016005820160019054906101000a900460ff1615151515815260200160068201548152602001600782015481525050905092915050565b60008b5111611621576040517f08c379a00000000000000000000000000000000000000000000000000000000081526004016116189061641c565b60405180910390fd5b60008a5111611665576040517f08c379a000000000000000000000000000000000000000000000000000000000815260040161165c90616488565b60405180910390fd5b60008851116116a9576040517f08c379a00000000000000000000000000000000000000000000000000000000081526004016116a0906164f4565b60405180910390fd5b60008751116116ed576040517f08c379a00000000000000000000000000000000000000000000000000000000081526004016116e490616560565b60405180910390fd5b60008611611730576040517f08c379a0000000000000000000000000000000000000000000000000000000008152600401611727906165cc565b60405180910390fd5b60008511611773576040517f08c379a000000000000000000000000000000000000000000000000000000000815260040161176a90616638565b60405180910390fd5b60046000815461178290615dbe565b91905081905550611791614612565b6004548160000181815250508b81602001819052508a8160400181905250898160600181905250888160800181905250878160a00181905250868160c0018181525050858160e00181815250503381610100019073ffffffffffffffffffffffffffffffffffffffff16908173ffffffffffffffffffffffffffffffffffffffff168152505061181f6142dd565b816101600181815250506001600b60008360000151815260200190815260200160002060006101000a81548160ff02191690831515021790555080600860008360000151815260200190815260200160002060008201518160000155602082015181600101908161189091906160e0565b5060408201518160020190816118a691906160e0565b5060608201518160030190816118bc91906160e0565b5060808201518160040190816118d291906160e0565b5060a08201518160050190816118e891906160e0565b5060c0820151816006015560e082015181600701556101008201518160080160006101000a81548173ffffffffffffffffffffffffffffffffffffffff021916908373ffffffffffffffffffffffffffffffffffffffff1602179055506101208201518160080160146101000a81548160ff0219169083151502179055506101408201518160080160156101000a81548160ff0219169083151502179055506101608201518160090155905050600060065490506119ab33308389898989613dc1565b7f6129ffb6f3beb35c9d53678c1cb25b7b5d068ebfa8a53c7a319ef1f0fe39e84b82602001518360e0015184610100015185600001516040516119f19493929190616658565b60405180910390a150505050505050505050505050565b60055481565b60045481565b600080600090505b8251811015611a8d57600d60008581526020019081526020016000206000848381518110611a4d57611a4c615d60565b5b6020026020010151815260200190815260200160002060009054906101000a900460ff1615611a80576000915050611a93565b8080600101915050611a1c565b50600190505b92915050565b600b600083815260200190815260200160002060009054906101000a900460ff16611af9576040517f08c379a0000000000000000000000000000000000000000000000000000000008152600401611af0906166f0565b60405180910390fd5b600e60003373ffffffffffffffffffffffffffffffffffffffff1673ffffffffffffffffffffffffffffffffffffffff168152602001908152602001600020600083815260200190815260200160002060009054906101000a900460ff16611b96576040517f08c379a0000000000000000000000000000000000000000000000000000000008152600401611b8d9061675c565b60405180910390fd5b6000815111611bda576040517f08c379a0000000000000000000000000000000000000000000000000000000008152600401611bd1906167c8565b60405180910390fd5b611be261468d565b600a6000848152602001908152602001600020805490508160000181815250508281602001818152505081816040018190525033816080019073ffffffffffffffffffffffffffffffffffffffff16908173ffffffffffffffffffffffffffffffffffffffff1681525050611c556142dd565b816060018181525050600a600084815260200190815260200160002081908060018154018082558091505060019003906000526020600020906005020160009091909190915060008201518160000155602082015181600101556040820151816002019081611cc491906160e0565b506060820151816003015560808201518160040160006101000a81548173ffffffffffffffffffffffffffffffffffffffff021916908373ffffffffffffffffffffffffffffffffffffffff1602179055505050505050565b600360009054906101000a900473ffffffffffffffffffffffffffffffffffffffff1673ffffffffffffffffffffffffffffffffffffffff163373ffffffffffffffffffffffffffffffffffffffff1614611dad576040517f08c379a0000000000000000000000000000000000000000000000000000000008152600401611da490615ba4565b60405180910390fd5b60008111611df0576040517f08c379a0000000000000000000000000000000000000000000000000000000008152600401611de79061685a565b60405180910390fd5b8060068190555050565b600160009054906101000a900473ffffffffffffffffffffffffffffffffffffffff1681565b6000600654905090565b6000600260009054906101000a900473ffffffffffffffffffffffffffffffffffffffff1673ffffffffffffffffffffffffffffffffffffffff166370a08231306040518263ffffffff1660e01b8152600401611e879190615261565b602060405180830381865afa158015611ea4573d6000803e3d6000fd5b505050506040513d601f19601f82011682018060405250810190611ec89190615bd9565b905090565b611ed5613d71565b600085516008600089815260200190815260200160002060070154611efa919061687a565b90506000600b600089815260200190815260200160002060009054906101000a900460ff16611f5e576040517f08c379a0000000000000000000000000000000000000000000000000000000008152600401611f5590616908565b60405180910390fd5b611f688888611a14565b611fa7576040517f08c379a0000000000000000000000000000000000000000000000000000000008152600401611f9e90616974565b60405180910390fd5b60005b875181101561235e57600d60008a81526020019081526020016000206000898381518110611fdb57611fda615d60565b5b6020026020010151815260200190815260200160002060009054906101000a900460ff161561203f576040517f08c379a0000000000000000000000000000000000000000000000000000000008152600401612036906169e0565b60405180910390fd5b6120476145ac565b600960008b8152602001908152602001600020805490508160000181815250508981602001818152505033816040019073ffffffffffffffffffffffffffffffffffffffff16908173ffffffffffffffffffffffffffffffffffffffff16815250508882815181106120bc576120bb615d60565b5b6020026020010151816060018181525050600860008b8152602001908152602001600020600701548160800181815250506000612101826080015183606001516142fd565b90506000612112836080015161434f565b9050818360e00181815250508083610100018181525050600960008d8152602001908152602001600020839080600181540180825580915050600190039060005260206000209060080201600090919091909150600082015181600001556020820151816001015560408201518160020160006101000a81548173ffffffffffffffffffffffffffffffffffffffff021916908373ffffffffffffffffffffffffffffffffffffffff160217905550606082015181600301556080820151816004015560a08201518160050160006101000a81548160ff02191690831515021790555060c08201518160050160016101000a81548160ff02191690831515021790555060e0820151816006015561010082015181600701555050600c60008d81526020019081526020016000208b858151811061225257612251615d60565b5b602002602001015190806001815401808255809150506001900390600052602060002001600090919091909150556001600d60008e815260200190815260200160002060008d87815181106122aa576122a9615d60565b5b6020026020010151815260200190815260200160002060006101000a81548160ff0219169083151502179055506001600e60003373ffffffffffffffffffffffffffffffffffffffff1673ffffffffffffffffffffffffffffffffffffffff16815260200190815260200160002060008e815260200190815260200160002060006101000a81548160ff021916908315150217905550818561234c9190616a00565b94505050508080600101915050611faa565b50808261236b9190616a00565b600260009054906101000a900473ffffffffffffffffffffffffffffffffffffffff1673ffffffffffffffffffffffffffffffffffffffff166370a08231336040518263ffffffff1660e01b81526004016123c69190615261565b602060405180830381865afa1580156123e3573d6000803e3d6000fd5b505050506040513d601f19601f820116820180604052508101906124079190615bd9565b1015612448576040517f08c379a000000000000000000000000000000000000000000000000000000000815260040161243f90616a80565b60405180910390fd5b6000600654905060008290506124633330848b8b8b8b613dc1565b6124723330838b8b8b8b613dc1565b5050505061247e613db7565b505050505050565b600360009054906101000a900473ffffffffffffffffffffffffffffffffffffffff1681565b6060600a6000838152602001908152602001600020805480602002602001604051908101604052809291908181526020016000905b8282101561261957838290600052602060002090600502016040518060a0016040529081600082015481526020016001820154815260200160028201805461252890615f0d565b80601f016020809104026020016040519081016040528092919081815260200182805461255490615f0d565b80156125a15780601f10612576576101008083540402835291602001916125a1565b820191906000526020600020905b81548152906001019060200180831161258457829003601f168201915b50505050508152602001600382015481526020016004820160009054906101000a900473ffffffffffffffffffffffffffffffffffffffff1673ffffffffffffffffffffffffffffffffffffffff1673ffffffffffffffffffffffffffffffffffffffff1681525050815260200190600101906124e1565b505050509050919050565b6000600e60003373ffffffffffffffffffffffffffffffffffffffff1673ffffffffffffffffffffffffffffffffffffffff168152602001908152602001600020600083815260200190815260200160002060009054906101000a900460ff169050919050565b60606000806000600190505b60045481116126ea576008600082815260200190815260200160002060080160159054906101000a900460ff166126d75781806126d390615dbe565b9250505b80806126e290615dbe565b915050612697565b508067ffffffffffffffff811115612705576127046148e2565b5b60405190808252806020026020018201604052801561273e57816020015b61272b614612565b8152602001906001900390816127235790505b509250600080600190505b6004548111612b65576008600082815260200190815260200160002060080160159054906101000a900460ff16612b52576008600082815260200190815260200160002060405180610180016040529081600082015481526020016001820180546127b390615f0d565b80601f01602080910402602001604051908101604052809291908181526020018280546127df90615f0d565b801561282c5780601f106128015761010080835404028352916020019161282c565b820191906000526020600020905b81548152906001019060200180831161280f57829003601f168201915b5050505050815260200160028201805461284590615f0d565b80601f016020809104026020016040519081016040528092919081815260200182805461287190615f0d565b80156128be5780601f10612893576101008083540402835291602001916128be565b820191906000526020600020905b8154815290600101906020018083116128a157829003601f168201915b505050505081526020016003820180546128d790615f0d565b80601f016020809104026020016040519081016040528092919081815260200182805461290390615f0d565b80156129505780601f1061292557610100808354040283529160200191612950565b820191906000526020600020905b81548152906001019060200180831161293357829003601f168201915b5050505050815260200160048201805461296990615f0d565b80601f016020809104026020016040519081016040528092919081815260200182805461299590615f0d565b80156129e25780601f106129b7576101008083540402835291602001916129e2565b820191906000526020600020905b8154815290600101906020018083116129c557829003601f168201915b505050505081526020016005820180546129fb90615f0d565b80601f0160208091040260200160405190810160405280929190818152602001828054612a2790615f0d565b8015612a745780601f10612a4957610100808354040283529160200191612a74565b820191906000526020600020905b815481529060010190602001808311612a5757829003601f168201915b5050505050815260200160068201548152602001600782015481526020016008820160009054906101000a900473ffffffffffffffffffffffffffffffffffffffff1673ffffffffffffffffffffffffffffffffffffffff1673ffffffffffffffffffffffffffffffffffffffff1681526020016008820160149054906101000a900460ff161515151581526020016008820160159054906101000a900460ff16151515158152602001600982015481525050858380612b3390615dbe565b945081518110612b4657612b45615d60565b5b60200260200101819052505b8080612b5d90615dbe565b915050612749565b508351925050509091565b612b78613d71565b6000600960008881526020019081526020016000208681548110612b9f57612b9e615d60565b5b90600052602060002090600802016040518061012001604052908160008201548152602001600182015481526020016002820160009054906101000a900473ffffffffffffffffffffffffffffffffffffffff1673ffffffffffffffffffffffffffffffffffffffff1673ffffffffffffffffffffffffffffffffffffffff16815260200160038201548152602001600482015481526020016005820160009054906101000a900460ff161515151581526020016005820160019054906101000a900460ff16151515158152602001600682015481526020016007820154815250509050600b600088815260200190815260200160002060009054906101000a900460ff16612ce3576040517f08c379a0000000000000000000000000000000000000000000000000000000008152600401612cda90616908565b60405180910390fd5b8060a0015115612d28576040517f08c379a0000000000000000000000000000000000000000000000000000000008152600401612d1f90616aec565b60405180910390fd5b600d600088815260200190815260200160002060008260600151815260200190815260200160002060009054906101000a900460ff16612d9d576040517f08c379a0000000000000000000000000000000000000000000000000000000008152600401612d9490616b58565b60405180910390fd5b600360009054906101000a900473ffffffffffffffffffffffffffffffffffffffff1673ffffffffffffffffffffffffffffffffffffffff163373ffffffffffffffffffffffffffffffffffffffff1614612eb257806040015173ffffffffffffffffffffffffffffffffffffffff163373ffffffffffffffffffffffffffffffffffffffff1614612e64576040517f08c379a0000000000000000000000000000000000000000000000000000000008152600401612e5b90616bc4565b60405180910390fd5b612e6c6142dd565b816060015111612eb1576040517f08c379a0000000000000000000000000000000000000000000000000000000008152600401612ea890616c56565b60405180910390fd5b5b600d600088815260200190815260200160002060008260600151815260200190815260200160002060009054906101000a900460ff16612f27576040517f08c379a0000000000000000000000000000000000000000000000000000000008152600401612f1e90616cc2565b60405180910390fd5b60018160c00190151590811515815250506000600d600089815260200190815260200160002060008360600151815260200190815260200160002060006101000a81548160ff02191690831515021790555060006001600c60008a815260200190815260200160002080549050612f9e919061636d565b90506000600c60008a81526020019081526020016000208281548110612fc757612fc6615d60565b5b9060005260206000200154905080600c60008b81526020019081526020016000208981548110612ffa57612ff9615d60565b5b9060005260206000200181905550600c60008a815260200190815260200160002080548061302b5761302a6163a1565b5b600190038181906000526020600020016000905590556000600654905061308c600860008c815260200190815260200160002060080160009054906101000a900473ffffffffffffffffffffffffffffffffffffffff168560e00151614376565b6130c233600360009054906101000a900473ffffffffffffffffffffffffffffffffffffffff168661010001518b8b8b8b613dc1565b6130d13330838b8b8b8b613dc1565b505050506130dd613db7565b505050505050565b6130ed613d71565b600060096000888152602001908152602001600020868154811061311457613113615d60565b5b90600052602060002090600802016040518061012001604052908160008201548152602001600182015481526020016002820160009054906101000a900473ffffffffffffffffffffffffffffffffffffffff1673ffffffffffffffffffffffffffffffffffffffff1673ffffffffffffffffffffffffffffffffffffffff16815260200160038201548152602001600482015481526020016005820160009054906101000a900460ff161515151581526020016005820160019054906101000a900460ff16151515158152602001600682015481526020016007820154815250509050806040015173ffffffffffffffffffffffffffffffffffffffff163373ffffffffffffffffffffffffffffffffffffffff161461326a576040517f08c379a000000000000000000000000000000000000000000000000000000000815260040161326190616275565b60405180910390fd5b8060a00151156132af576040517f08c379a00000000000000000000000000000000000000000000000000000000081526004016132a690616aec565b60405180910390fd5b600b600088815260200190815260200160002060009054906101000a900460ff1661330f576040517f08c379a000000000000000000000000000000000000000000000000000000000815260040161330690616d2e565b60405180910390fd5b8060c0015115613354576040517f08c379a000000000000000000000000000000000000000000000000000000000815260040161334b90616d9a565b60405180910390fd5b806060015142101561339b576040517f08c379a000000000000000000000000000000000000000000000000000000000815260040161339290616e06565b60405180910390fd5b6201518081606001516133ae9190616a00565b4211156133f0576040517f08c379a00000000000000000000000000000000000000000000000000000000081526004016133e790616e72565b60405180910390fd5b6000600260009054906101000a900473ffffffffffffffffffffffffffffffffffffffff1673ffffffffffffffffffffffffffffffffffffffff166370a08231336040518263ffffffff1660e01b815260040161344d9190615261565b602060405180830381865afa15801561346a573d6000803e3d6000fd5b505050506040513d601f19601f8201168201806040525081019061348e9190615bd9565b9050600082608001519050808210156134dc576040517f08c379a00000000000000000000000000000000000000000000000000000000081526004016134d390616a80565b60405180910390fd5b6001600960008b8152602001908152602001600020898154811061350357613502615d60565b5b906000526020600020906008020160050160006101000a81548160ff0219169083151502179055506000600654905060008460e00151905061359433600860008e815260200190815260200160002060080160009054906101000a900473ffffffffffffffffffffffffffffffffffffffff16876101000151886080015161358b919061636d565b8c8c8c8c613dc1565b6135ca33600360009054906101000a900473ffffffffffffffffffffffffffffffffffffffff168761010001518c8c8c8c613dc1565b6135d8856040015182614376565b6135e73330848c8c8c8c613dc1565b50505050506135f4613db7565b505050505050565b613604614612565b60086000838152602001908152602001600020604051806101800160405290816000820154815260200160018201805461363d90615f0d565b80601f016020809104026020016040519081016040528092919081815260200182805461366990615f0d565b80156136b65780601f1061368b576101008083540402835291602001916136b6565b820191906000526020600020905b81548152906001019060200180831161369957829003601f168201915b505050505081526020016002820180546136cf90615f0d565b80601f01602080910402602001604051908101604052809291908181526020018280546136fb90615f0d565b80156137485780601f1061371d57610100808354040283529160200191613748565b820191906000526020600020905b81548152906001019060200180831161372b57829003601f168201915b5050505050815260200160038201805461376190615f0d565b80601f016020809104026020016040519081016040528092919081815260200182805461378d90615f0d565b80156137da5780601f106137af576101008083540402835291602001916137da565b820191906000526020600020905b8154815290600101906020018083116137bd57829003601f168201915b505050505081526020016004820180546137f390615f0d565b80601f016020809104026020016040519081016040528092919081815260200182805461381f90615f0d565b801561386c5780601f106138415761010080835404028352916020019161386c565b820191906000526020600020905b81548152906001019060200180831161384f57829003601f168201915b5050505050815260200160058201805461388590615f0d565b80601f01602080910402602001604051908101604052809291908181526020018280546138b190615f0d565b80156138fe5780601f106138d3576101008083540402835291602001916138fe565b820191906000526020600020905b8154815290600101906020018083116138e157829003601f168201915b5050505050815260200160068201548152602001600782015481526020016008820160009054906101000a900473ffffffffffffffffffffffffffffffffffffffff1673ffffffffffffffffffffffffffffffffffffffff1673ffffffffffffffffffffffffffffffffffffffff1681526020016008820160149054906101000a900460ff161515151581526020016008820160159054906101000a900460ff161515151581526020016009820154815250509050919050565b60004282116139fc576040517f08c379a00000000000000000000000000000000000000000000000000000000081526004016139f390616ede565b60405180910390fd5b620151804283613a0c919061636d565b613a169190616f2d565b9050919050565b6060600c6000838152602001908152602001600020805480602002602001604051908101604052809291908181526020018280548015613a7c57602002820191906000526020600020905b815481526020019060010190808311613a68575b50505050509050919050565b60065481565b606481565b606060096000838152602001908152602001600020805480602002602001604051908101604052809291908181526020016000905b82821015613bc357838290600052602060002090600802016040518061012001604052908160008201548152602001600182015481526020016002820160009054906101000a900473ffffffffffffffffffffffffffffffffffffffff1673ffffffffffffffffffffffffffffffffffffffff1673ffffffffffffffffffffffffffffffffffffffff16815260200160038201548152602001600482015481526020016005820160009054906101000a900460ff161515151581526020016005820160019054906101000a900460ff161515151581526020016006820154815260200160078201548152505081526020019060010190613ac8565b505050509050919050565b600b600086815260200190815260200160002060009054906101000a900460ff16613c2e576040517f08c379a0000000000000000000000000000000000000000000000000000000008152600401613c2590615e52565b60405180910390fd5b6008600086815260200190815260200160002060080160009054906101000a900473ffffffffffffffffffffffffffffffffffffffff1673ffffffffffffffffffffffffffffffffffffffff163373ffffffffffffffffffffffffffffffffffffffff1614613cd2576040517f08c379a0000000000000000000000000000000000000000000000000000000008152600401613cc990615ebe565b60405180910390fd5b6000600b600087815260200190815260200160002060006101000a81548160ff02191690831515021790555060016008600087815260200190815260200160002060080160156101000a81548160ff02191690831515021790555060006006549050613d4333308388888888613dc1565b505050505050565b600260009054906101000a900473ffffffffffffffffffffffffffffffffffffffff1681565b600260005403613dad576040517f3ee5aeb500000000000000000000000000000000000000000000000000000000815260040160405180910390fd5b6002600081905550565b6001600081905550565b6000600260009054906101000a900473ffffffffffffffffffffffffffffffffffffffff1673ffffffffffffffffffffffffffffffffffffffff166370a08231896040518263ffffffff1660e01b8152600401613e1e9190615261565b602060405180830381865afa158015613e3b573d6000803e3d6000fd5b505050506040513d601f19601f82011682018060405250810190613e5f9190615bd9565b905085811015613ea4576040517f08c379a0000000000000000000000000000000000000000000000000000000008152600401613e9b90616a80565b60405180910390fd5b6000600260009054906101000a900473ffffffffffffffffffffffffffffffffffffffff1673ffffffffffffffffffffffffffffffffffffffff1663dd62ed3e33306040518363ffffffff1660e01b8152600401613f03929190616f5e565b602060405180830381865afa158015613f20573d6000803e3d6000fd5b505050506040513d601f19601f82011682018060405250810190613f449190615bd9565b905086811015613fea57600160009054906101000a900473ffffffffffffffffffffffffffffffffffffffff1673ffffffffffffffffffffffffffffffffffffffff1663d505accf33306007548a8a8a8a6040518863ffffffff1660e01b8152600401613fb79796959493929190616fa5565b600060405180830381600087803b158015613fd157600080fd5b505af1158015613fe5573d6000803e3d6000fd5b505050505b86600260009054906101000a900473ffffffffffffffffffffffffffffffffffffffff1673ffffffffffffffffffffffffffffffffffffffff1663dd62ed3e33306040518363ffffffff1660e01b8152600401614048929190616f5e565b602060405180830381865afa158015614065573d6000803e3d6000fd5b505050506040513d601f19601f820116820180604052508101906140899190615bd9565b10156140ca576040517f08c379a00000000000000000000000000000000000000000000000000000000081526004016140c190617060565b60405180910390fd5b600073ffffffffffffffffffffffffffffffffffffffff168973ffffffffffffffffffffffffffffffffffffffff1603614139576040517f08c379a0000000000000000000000000000000000000000000000000000000008152600401614130906170cc565b60405180910390fd5b600073ffffffffffffffffffffffffffffffffffffffff168873ffffffffffffffffffffffffffffffffffffffff16036141a8576040517f08c379a000000000000000000000000000000000000000000000000000000000815260040161419f90617138565b60405180910390fd5b600087116141eb576040517f08c379a00000000000000000000000000000000000000000000000000000000081526004016141e2906171a4565b60405180910390fd5b6000600260009054906101000a900473ffffffffffffffffffffffffffffffffffffffff1673ffffffffffffffffffffffffffffffffffffffff166323b872dd8b8b8b6040518463ffffffff1660e01b815260040161424c939291906171c4565b6020604051808303816000875af115801561426b573d6000803e3d6000fd5b505050506040513d601f19601f8201168201806040525081019061428f9190615cc7565b9050806142d1576040517f08c379a00000000000000000000000000000000000000000000000000000000081526004016142c890617247565b60405180910390fd5b50505050505050505050565b60006103e880426142ee919061687a565b6142f89190616a00565b905090565b600080614309836139b8565b9050600060648061431a919061687a565b60aa86614327919061687a565b6143319190616f2d565b905060008183614341919061687a565b905080935050505092915050565b6000806064600884614361919061687a565b61436b9190616f2d565b905080915050919050565b600073ffffffffffffffffffffffffffffffffffffffff168273ffffffffffffffffffffffffffffffffffffffff16036143e5576040517f08c379a00000000000000000000000000000000000000000000000000000000081526004016143dc906172b3565b60405180910390fd5b80600260009054906101000a900473ffffffffffffffffffffffffffffffffffffffff1673ffffffffffffffffffffffffffffffffffffffff166370a08231306040518263ffffffff1660e01b81526004016144419190615261565b602060405180830381865afa15801561445e573d6000803e3d6000fd5b505050506040513d601f19601f820116820180604052508101906144829190615bd9565b10156144c3576040517f08c379a00000000000000000000000000000000000000000000000000000000081526004016144ba90616a80565b60405180910390fd5b6000600260009054906101000a900473ffffffffffffffffffffffffffffffffffffffff1673ffffffffffffffffffffffffffffffffffffffff1663a9059cbb84846040518363ffffffff1660e01b8152600401614522929190615c72565b6020604051808303816000875af1158015614541573d6000803e3d6000fd5b505050506040513d601f19601f820116820180604052508101906145659190615cc7565b9050806145a7576040517f08c379a000000000000000000000000000000000000000000000000000000000815260040161459e90617247565b60405180910390fd5b505050565b6040518061012001604052806000815260200160008152602001600073ffffffffffffffffffffffffffffffffffffffff168152602001600081526020016000815260200160001515815260200160001515815260200160008152602001600081525090565b6040518061018001604052806000815260200160608152602001606081526020016060815260200160608152602001606081526020016000815260200160008152602001600073ffffffffffffffffffffffffffffffffffffffff168152602001600015158152602001600015158152602001600081525090565b6040518060a0016040528060008152602001600081526020016060815260200160008152602001600073ffffffffffffffffffffffffffffffffffffffff1681525090565b6000604051905090565b600080fd5b600080fd5b600073ffffffffffffffffffffffffffffffffffffffff82169050919050565b6000614711826146e6565b9050919050565b61472181614706565b811461472c57600080fd5b50565b60008135905061473e81614718565b92915050565b6000819050919050565b61475781614744565b811461476257600080fd5b50565b6000813590506147748161474e565b92915050565b60008060408385031215614791576147906146dc565b5b600061479f8582860161472f565b92505060206147b085828601614765565b9150509250929050565b6000602082840312156147d0576147cf6146dc565b5b60006147de84828501614765565b91505092915050565b600081519050919050565b600082825260208201905092915050565b6000819050602082019050919050565b61481c81614706565b82525050565b600061482e8383614813565b60208301905092915050565b6000602082019050919050565b6000614852826147e7565b61485c81856147f2565b935061486783614803565b8060005b8381101561489857815161487f8882614822565b975061488a8361483a565b92505060018101905061486b565b5085935050505092915050565b600060208201905081810360008301526148bf8184614847565b905092915050565b600080fd5b600080fd5b6000601f19601f8301169050919050565b7f4e487b7100000000000000000000000000000000000000000000000000000000600052604160045260246000fd5b61491a826148d1565b810181811067ffffffffffffffff82111715614939576149386148e2565b5b80604052505050565b600061494c6146d2565b90506149588282614911565b919050565b600067ffffffffffffffff821115614978576149776148e2565b5b614981826148d1565b9050602081019050919050565b82818337600083830152505050565b60006149b06149ab8461495d565b614942565b9050828152602081018484840111156149cc576149cb6148cc565b5b6149d784828561498e565b509392505050565b600082601f8301126149f4576149f36148c7565b5b8135614a0484826020860161499d565b91505092915050565b600060ff82169050919050565b614a2381614a0d565b8114614a2e57600080fd5b50565b600081359050614a4081614a1a565b92915050565b6000819050919050565b614a5981614a46565b8114614a6457600080fd5b50565b600081359050614a7681614a50565b92915050565b60008060008060008060008060008060006101608c8e031215614aa257614aa16146dc565b5b6000614ab08e828f01614765565b9b505060208c013567ffffffffffffffff811115614ad157614ad06146e1565b5b614add8e828f016149df565b9a505060408c013567ffffffffffffffff811115614afe57614afd6146e1565b5b614b0a8e828f016149df565b99505060608c013567ffffffffffffffff811115614b2b57614b2a6146e1565b5b614b378e828f016149df565b98505060808c013567ffffffffffffffff811115614b5857614b576146e1565b5b614b648e828f016149df565b97505060a0614b758e828f01614765565b96505060c0614b868e828f01614765565b95505060e0614b978e828f01614765565b945050610100614ba98e828f01614a31565b935050610120614bbb8e828f01614a67565b925050610140614bcd8e828f01614a67565b9150509295989b509295989b9093969950565b614be981614744565b82525050565b6000602082019050614c046000830184614be0565b92915050565b600067ffffffffffffffff821115614c2557614c246148e2565b5b602082029050602081019050919050565b600080fd5b6000614c4e614c4984614c0a565b614942565b90508083825260208201905060208402830185811115614c7157614c70614c36565b5b835b81811015614c9a5780614c868882614765565b845260208401935050602081019050614c73565b5050509392505050565b600082601f830112614cb957614cb86148c7565b5b8135614cc9848260208601614c3b565b91505092915050565b600080600080600080600060e0888a031215614cf157614cf06146dc565b5b6000614cff8a828b01614765565b9750506020614d108a828b01614765565b965050604088013567ffffffffffffffff811115614d3157614d306146e1565b5b614d3d8a828b01614ca4565b9550506060614d4e8a828b01614765565b9450506080614d5f8a828b01614a31565b93505060a0614d708a828b01614a67565b92505060c0614d818a828b01614a67565b91505092959891949750929550565b60008060408385031215614da757614da66146dc565b5b6000614db585828601614765565b9250506020614dc685828601614765565b9150509250929050565b614dd981614744565b82525050565b60008115159050919050565b614df481614ddf565b82525050565b61012082016000820151614e116000850182614dd0565b506020820151614e246020850182614dd0565b506040820151614e376040850182614813565b506060820151614e4a6060850182614dd0565b506080820151614e5d6080850182614dd0565b5060a0820151614e7060a0850182614deb565b5060c0820151614e8360c0850182614deb565b5060e0820151614e9660e0850182614dd0565b50610100820151614eab610100850182614dd0565b50505050565b600061012082019050614ec76000830184614dfa565b92915050565b60008060008060008060008060008060006101608c8e031215614ef357614ef26146dc565b5b60008c013567ffffffffffffffff811115614f1157614f106146e1565b5b614f1d8e828f016149df565b9b505060208c013567ffffffffffffffff811115614f3e57614f3d6146e1565b5b614f4a8e828f016149df565b9a505060408c013567ffffffffffffffff811115614f6b57614f6a6146e1565b5b614f778e828f016149df565b99505060608c013567ffffffffffffffff811115614f9857614f976146e1565b5b614fa48e828f016149df565b98505060808c013567ffffffffffffffff811115614fc557614fc46146e1565b5b614fd18e828f016149df565b97505060a0614fe28e828f01614765565b96505060c0614ff38e828f01614765565b95505060e06150048e828f01614765565b9450506101006150168e828f01614a31565b9350506101206150288e828f01614a67565b92505061014061503a8e828f01614a67565b9150509295989b509295989b9093969950565b60008060408385031215615064576150636146dc565b5b600061507285828601614765565b925050602083013567ffffffffffffffff811115615093576150926146e1565b5b61509f85828601614ca4565b9150509250929050565b6150b281614ddf565b82525050565b60006020820190506150cd60008301846150a9565b92915050565b600080604083850312156150ea576150e96146dc565b5b60006150f885828601614765565b925050602083013567ffffffffffffffff811115615119576151186146e1565b5b615125858286016149df565b9150509250929050565b6000819050919050565b600061515461514f61514a846146e6565b61512f565b6146e6565b9050919050565b600061516682615139565b9050919050565b60006151788261515b565b9050919050565b6151888161516d565b82525050565b60006020820190506151a3600083018461517f565b92915050565b60008060008060008060c087890312156151c6576151c56146dc565b5b60006151d489828a01614765565b965050602087013567ffffffffffffffff8111156151f5576151f46146e1565b5b61520189828a01614ca4565b955050604061521289828a01614765565b945050606061522389828a01614a31565b935050608061523489828a01614a67565b92505060a061524589828a01614a67565b9150509295509295509295565b61525b81614706565b82525050565b60006020820190506152766000830184615252565b92915050565b600081519050919050565b600082825260208201905092915050565b6000819050602082019050919050565b600081519050919050565b600082825260208201905092915050565b60005b838110156152e25780820151818401526020810190506152c7565b60008484015250505050565b60006152f9826152a8565b61530381856152b3565b93506153138185602086016152c4565b61531c816148d1565b840191505092915050565b600060a08301600083015161533f6000860182614dd0565b5060208301516153526020860182614dd0565b506040830151848203604086015261536a82826152ee565b915050606083015161537f6060860182614dd0565b5060808301516153926080860182614813565b508091505092915050565b60006153a98383615327565b905092915050565b6000602082019050919050565b60006153c98261527c565b6153d38185615287565b9350836020820285016153e585615298565b8060005b858110156154215784840389528151615402858261539d565b945061540d836153b1565b925060208a019950506001810190506153e9565b50829750879550505050505092915050565b6000602082019050818103600083015261544d81846153be565b905092915050565b600081519050919050565b600082825260208201905092915050565b6000819050602082019050919050565b60006101808301600083015161549a6000860182614dd0565b50602083015184820360208601526154b282826152ee565b915050604083015184820360408601526154cc82826152ee565b915050606083015184820360608601526154e682826152ee565b9150506080830151848203608086015261550082826152ee565b91505060a083015184820360a086015261551a82826152ee565b91505060c083015161552f60c0860182614dd0565b5060e083015161554260e0860182614dd0565b50610100830151615557610100860182614813565b5061012083015161556c610120860182614deb565b50610140830151615581610140860182614deb565b50610160830151615596610160860182614dd0565b508091505092915050565b60006155ad8383615481565b905092915050565b6000602082019050919050565b60006155cd82615455565b6155d78185615460565b9350836020820285016155e985615471565b8060005b85811015615625578484038952815161560685826155a1565b9450615611836155b5565b925060208a019950506001810190506155ed565b50829750879550505050505092915050565b6000604082019050818103600083015261565181856155c2565b90506156606020830184614be0565b9392505050565b60008060008060008060c08789031215615684576156836146dc565b5b600061569289828a01614765565b96505060206156a389828a01614765565b95505060406156b489828a01614765565b94505060606156c589828a01614a31565b93505060806156d689828a01614a67565b92505060a06156e789828a01614a67565b9150509295509295509295565b60006101808301600083015161570d6000860182614dd0565b506020830151848203602086015261572582826152ee565b9150506040830151848203604086015261573f82826152ee565b9150506060830151848203606086015261575982826152ee565b9150506080830151848203608086015261577382826152ee565b91505060a083015184820360a086015261578d82826152ee565b91505060c08301516157a260c0860182614dd0565b5060e08301516157b560e0860182614dd0565b506101008301516157ca610100860182614813565b506101208301516157df610120860182614deb565b506101408301516157f4610140860182614deb565b50610160830151615809610160860182614dd0565b508091505092915050565b6000602082019050818103600083015261582e81846156f4565b905092915050565b600081519050919050565b600082825260208201905092915050565b6000819050602082019050919050565b600061586e8383614dd0565b60208301905092915050565b6000602082019050919050565b600061589282615836565b61589c8185615841565b93506158a783615852565b8060005b838110156158d85781516158bf8882615862565b97506158ca8361587a565b9250506001810190506158ab565b5085935050505092915050565b600060208201905081810360008301526158ff8184615887565b905092915050565b600081519050919050565b600082825260208201905092915050565b6000819050602082019050919050565b6101208201600082015161594a6000850182614dd0565b50602082015161595d6020850182614dd0565b5060408201516159706040850182614813565b5060608201516159836060850182614dd0565b5060808201516159966080850182614dd0565b5060a08201516159a960a0850182614deb565b5060c08201516159bc60c0850182614deb565b5060e08201516159cf60e0850182614dd0565b506101008201516159e4610100850182614dd0565b50505050565b60006159f68383615933565b6101208301905092915050565b6000602082019050919050565b6000615a1b82615907565b615a258185615912565b9350615a3083615923565b8060005b83811015615a61578151615a4888826159ea565b9750615a5383615a03565b925050600181019050615a34565b5085935050505092915050565b60006020820190508181036000830152615a888184615a10565b905092915050565b600080600080600060a08688031215615aac57615aab6146dc565b5b6000615aba88828901614765565b9550506020615acb88828901614765565b9450506040615adc88828901614a31565b9350506060615aed88828901614a67565b9250506080615afe88828901614a67565b9150509295509295909350565b6000615b168261515b565b9050919050565b615b2681615b0b565b82525050565b6000602082019050615b416000830184615b1d565b92915050565b600082825260208201905092915050565b7f4e6f7420636f6e7472616374206f776e65720000000000000000000000000000600082015250565b6000615b8e601283615b47565b9150615b9982615b58565b602082019050919050565b60006020820190508181036000830152615bbd81615b81565b9050919050565b600081519050615bd38161474e565b92915050565b600060208284031215615bef57615bee6146dc565b5b6000615bfd84828501615bc4565b91505092915050565b7f496e73756666696369656e7420636f6e74726163742062616c616e6365000000600082015250565b6000615c3c601d83615b47565b9150615c4782615c06565b602082019050919050565b60006020820190508181036000830152615c6b81615c2f565b9050919050565b6000604082019050615c876000830185615252565b615c946020830184614be0565b9392505050565b615ca481614ddf565b8114615caf57600080fd5b50565b600081519050615cc181615c9b565b92915050565b600060208284031215615cdd57615cdc6146dc565b5b6000615ceb84828501615cb2565b91505092915050565b7f5769746864726177206661696c65640000000000000000000000000000000000600082015250565b6000615d2a600f83615b47565b9150615d3582615cf4565b602082019050919050565b60006020820190508181036000830152615d5981615d1d565b9050919050565b7f4e487b7100000000000000000000000000000000000000000000000000000000600052603260045260246000fd5b7f4e487b7100000000000000000000000000000000000000000000000000000000600052601160045260246000fd5b6000615dc982614744565b91507fffffffffffffffffffffffffffffffffffffffffffffffffffffffffffffffff8203615dfb57615dfa615d8f565b5b600182019050919050565b7f4170706172746d656e74206e6f7420666f756e64000000000000000000000000600082015250565b6000615e3c601483615b47565b9150615e4782615e06565b602082019050919050565b60006020820190508181036000830152615e6b81615e2f565b9050919050565b7f556e617574686f72697a656420656e7469747900000000000000000000000000600082015250565b6000615ea8601383615b47565b9150615eb382615e72565b602082019050919050565b60006020820190508181036000830152615ed781615e9b565b9050919050565b7f4e487b7100000000000000000000000000000000000000000000000000000000600052602260045260246000fd5b60006002820490506001821680615f2557607f821691505b602082108103615f3857615f37615ede565b5b50919050565b60008190508160005260206000209050919050565b60006020601f8301049050919050565b600082821b905092915050565b600060088302615fa07fffffffffffffffffffffffffffffffffffffffffffffffffffffffffffffffff82615f63565b615faa8683615f63565b95508019841693508086168417925050509392505050565b6000615fdd615fd8615fd384614744565b61512f565b614744565b9050919050565b6000819050919050565b615ff783615fc2565b61600b61600382615fe4565b848454615f70565b825550505050565b600090565b616020616013565b61602b818484615fee565b505050565b5b8181101561604f57616044600082616018565b600181019050616031565b5050565b601f8211156160945761606581615f3e565b61606e84615f53565b8101602085101561607d578190505b61609161608985615f53565b830182616030565b50505b505050565b600082821c905092915050565b60006160b760001984600802616099565b1980831691505092915050565b60006160d083836160a6565b9150826002028217905092915050565b6160e9826152a8565b67ffffffffffffffff811115616102576161016148e2565b5b61610c8254615f0d565b616117828285616053565b600060209050601f83116001811461614a5760008415616138578287015190505b61614285826160c4565b8655506161aa565b601f19841661615886615f3e565b60005b828110156161805784890151825560018201915060208501945060208101905061615b565b8683101561619d5784890151616199601f8916826160a6565b8355505b6001600288020188555050505b505050505050565b60006161bd826152a8565b6161c78185615b47565b93506161d78185602086016152c4565b6161e0816148d1565b840191505092915050565b6000606082019050818103600083015261620581866161b2565b90506162146020830185614be0565b6162216040830184615252565b949350505050565b7f556e617574686f72697a656420456e7469747900000000000000000000000000600082015250565b600061625f601383615b47565b915061626a82616229565b602082019050919050565b6000602082019050818103600083015261628e81616252565b9050919050565b7f4e6f7420636865636b656420696e000000000000000000000000000000000000600082015250565b60006162cb600e83615b47565b91506162d682616295565b602082019050919050565b600060208201905081810360008301526162fa816162be565b9050919050565b7f446174657320617265206e6f7420626f6f6b6564000000000000000000000000600082015250565b6000616337601483615b47565b915061634282616301565b602082019050919050565b600060208201905081810360008301526163668161632a565b9050919050565b600061637882614744565b915061638383614744565b925082820390508181111561639b5761639a615d8f565b5b92915050565b7f4e487b7100000000000000000000000000000000000000000000000000000000600052603160045260246000fd5b7f4e616d652063616e6e6f7420626520656d707479000000000000000000000000600082015250565b6000616406601483615b47565b9150616411826163d0565b602082019050919050565b60006020820190508181036000830152616435816163f9565b9050919050565b7f4465736372697074696f6e2063616e6e6f7420626520656d7074790000000000600082015250565b6000616472601b83615b47565b915061647d8261643c565b602082019050919050565b600060208201905081810360008301526164a181616465565b9050919050565b7f4c6f636174696f6e2063616e6e6f7420626520656d7074790000000000000000600082015250565b60006164de601883615b47565b91506164e9826164a8565b602082019050919050565b6000602082019050818103600083015261650d816164d1565b9050919050565b7f496d616765732063616e6e6f7420626520656d70747900000000000000000000600082015250565b600061654a601683615b47565b915061655582616514565b602082019050919050565b600060208201905081810360008301526165798161653d565b9050919050565b7f526f6f6d732063616e6e6f74206265207a65726f000000000000000000000000600082015250565b60006165b6601483615b47565b91506165c182616580565b602082019050919050565b600060208201905081810360008301526165e5816165a9565b9050919050565b7f50726963652063616e6e6f74206265207a65726f000000000000000000000000600082015250565b6000616622601483615b47565b915061662d826165ec565b602082019050919050565b6000602082019050818103600083015261665181616615565b9050919050565b6000608082019050818103600083015261667281876161b2565b90506166816020830186614be0565b61668e6040830185615252565b61669b6060830184614be0565b95945050505050565b7f4170706172746d656e74206e6f7420617661696c61626c650000000000000000600082015250565b60006166da601883615b47565b91506166e5826166a4565b602082019050919050565b60006020820190508181036000830152616709816166cd565b9050919050565b7f426f6f6b206669727374206265666f7265207265766965770000000000000000600082015250565b6000616746601883615b47565b915061675182616710565b602082019050919050565b6000602082019050818103600083015261677581616739565b9050919050565b7f436f6d6d656e742063616e6e6f7420626520656d707479000000000000000000600082015250565b60006167b2601783615b47565b91506167bd8261677c565b602082019050919050565b600060208201905081810360008301526167e1816167a5565b9050919050565b7f5574696c69747920666565206d7573742062652067726561746572207468616e60008201527f2030000000000000000000000000000000000000000000000000000000000000602082015250565b6000616844602283615b47565b915061684f826167e8565b604082019050919050565b6000602082019050818103600083015261687381616837565b9050919050565b600061688582614744565b915061689083614744565b925082820261689e81614744565b915082820484148315176168b5576168b4615d8f565b5b5092915050565b7f41706172746d656e74206e6f7420666f756e6421000000000000000000000000600082015250565b60006168f2601483615b47565b91506168fd826168bc565b602082019050919050565b60006020820190508181036000830152616921816168e5565b9050919050565b7f4f6e65206f72206d6f7265206461746573206e6f7420617661696c61626c6500600082015250565b600061695e601f83615b47565b915061696982616928565b602082019050919050565b6000602082019050818103600083015261698d81616951565b9050919050565b7f4461746520616c726561647920626f6f6b656400000000000000000000000000600082015250565b60006169ca601383615b47565b91506169d582616994565b602082019050919050565b600060208201905081810360008301526169f9816169bd565b9050919050565b6000616a0b82614744565b9150616a1683614744565b9250828201905080821115616a2e57616a2d615d8f565b5b92915050565b7f496e73756666696369656e742062616c616e6365000000000000000000000000600082015250565b6000616a6a601483615b47565b9150616a7582616a34565b602082019050919050565b60006020820190508181036000830152616a9981616a5d565b9050919050565b7f416c726561647920636865636b656420696e0000000000000000000000000000600082015250565b6000616ad6601283615b47565b9150616ae182616aa0565b602082019050919050565b60006020820190508181036000830152616b0581616ac9565b9050919050565b7f446964206e6f7420626f6f6b206f6e2074686973206461746521000000000000600082015250565b6000616b42601a83615b47565b9150616b4d82616b0c565b602082019050919050565b60006020820190508181036000830152616b7181616b35565b9050919050565b7f556e617574686f72697a65642074656e616e7421000000000000000000000000600082015250565b6000616bae601483615b47565b9150616bb982616b78565b602082019050919050565b60006020820190508181036000830152616bdd81616ba1565b9050919050565b7f43616e206e6f206c6f6e67657220726566756e642c20626f6f6b696e6720646160008201527f7465207374617274656400000000000000000000000000000000000000000000602082015250565b6000616c40602a83615b47565b9150616c4b82616be4565b604082019050919050565b60006020820190508181036000830152616c6f81616c33565b9050919050565b7f44617465206973206e6f7420626f6f6b65640000000000000000000000000000600082015250565b6000616cac601283615b47565b9150616cb782616c76565b602082019050919050565b60006020820190508181036000830152616cdb81616c9f565b9050919050565b7f41706172746d656e7420646f6573206e6f742065786973742100000000000000600082015250565b6000616d18601983615b47565b9150616d2382616ce2565b602082019050919050565b60006020820190508181036000830152616d4781616d0b565b9050919050565b7f426f6f6b696e6720686173206265656e2063616e63656c6c6564210000000000600082015250565b6000616d84601b83615b47565b9150616d8f82616d4e565b602082019050919050565b60006020820190508181036000830152616db381616d77565b9050919050565b7f436865636b2d696e2064617465206e6f74207265616368656420796574210000600082015250565b6000616df0601e83615b47565b9150616dfb82616dba565b602082019050919050565b60006020820190508181036000830152616e1f81616de3565b9050919050565b7f436865636b2d696e20706572696f642065787069726564210000000000000000600082015250565b6000616e5c601883615b47565b9150616e6782616e26565b602082019050919050565b60006020820190508181036000830152616e8b81616e4f565b9050919050565b7f53746172742064617465206d75737420626520696e2074686520667574757265600082015250565b6000616ec8602083615b47565b9150616ed382616e92565b602082019050919050565b60006020820190508181036000830152616ef781616ebb565b9050919050565b7f4e487b7100000000000000000000000000000000000000000000000000000000600052601260045260246000fd5b6000616f3882614744565b9150616f4383614744565b925082616f5357616f52616efe565b5b828204905092915050565b6000604082019050616f736000830185615252565b616f806020830184615252565b9392505050565b616f9081614a0d565b82525050565b616f9f81614a46565b82525050565b600060e082019050616fba600083018a615252565b616fc76020830189615252565b616fd46040830188614be0565b616fe16060830187614be0565b616fee6080830186616f87565b616ffb60a0830185616f96565b61700860c0830184616f96565b98975050505050505050565b7f416c6c6f77616e636520746f6f206c6f77000000000000000000000000000000600082015250565b600061704a601183615b47565b915061705582617014565b602082019050919050565b600060208201905081810360008301526170798161703d565b9050919050565b7f496e76616c69642073656e646572000000000000000000000000000000000000600082015250565b60006170b6600e83615b47565b91506170c182617080565b602082019050919050565b600060208201905081810360008301526170e5816170a9565b9050919050565b7f496e76616c696420726563697069656e74000000000000000000000000000000600082015250565b6000617122601183615b47565b915061712d826170ec565b602082019050919050565b6000602082019050818103600083015261715181617115565b9050919050565b7f416d6f756e74206d7573742062652067726561746572207468616e207a65726f600082015250565b600061718e602083615b47565b915061719982617158565b602082019050919050565b600060208201905081810360008301526171bd81617181565b9050919050565b60006060820190506171d96000830186615252565b6171e66020830185615252565b6171f36040830184614be0565b949350505050565b7f546f6b656e207472616e73666572206661696c65640000000000000000000000600082015250565b6000617231601583615b47565b915061723c826171fb565b602082019050919050565b6000602082019050818103600083015261726081617224565b9050919050565b7f496e76616c696420726563697069656e74206164647265737300000000000000600082015250565b600061729d601983615b47565b91506172a882617267565b602082019050919050565b600060208201905081810360008301526172cc81617290565b905091905056fea2646970667358221220a77ad1473c4427ac917d19f8be07719590bccd0475ed59af136d34c3891f800964736f6c634300081c0033",
  "linkReferences": {},
  "deployedLinkReferences": {}
}