{
  "_format": "hh-sol-artifact-1",
  "contractName": "Token",
  "sourceName": "contracts/Token.sol",
  "abi": [
    {
      "inputs": [],
      "stateMutability": "nonpayable",
      "type": "constructor"
    },
    {
      "inputs": [],
      "name": "ECDSAInvalidSignature",
      "type": "error"
    },
    {
      "inputs": [
        {
          "internalType": "uint256",
          "name": "length",
          "type": "uint256"
        }
      ],
      "name": "ECDSAInvalidSignatureLength",
      "type": "error"
    },
    {
      "inputs": [
        {
          "internalType": "bytes32",
          "name": "s",
          "type": "bytes32"
        }
      ],
      "name": "ECDSAInvalidSignatureS",
      "type": "error"
    },
    {
      "inputs": [
        {
          "internalType": "address",
          "name": "spender",
          "type": "address"
        },
        {
          "internalType": "uint256",
          "name": "allowance",
          "type": "uint256"
        },
        {
          "internalType": "uint256",
          "name": "needed",
          "type": "uint256"
        }
      ],
      "name": "ERC20InsufficientAllowance",
      "type": "error"
    },
    {
      "inputs": [
        {
          "internalType": "address",
          "name": "sender",
          "type": "address"
        },
        {
          "internalType": "uint256",
          "name": "balance",
          "type": "uint256"
        },
        {
          "internalType": "uint256",
          "name": "needed",
          "type": "uint256"
        }
      ],
      "name": "ERC20InsufficientBalance",
      "type": "error"
    },
    {
      "inputs": [
        {
          "internalType": "address",
          "name": "approver",
          "type": "address"
        }
      ],
      "name": "ERC20InvalidApprover",
      "type": "error"
    },
    {
      "inputs": [
        {
          "internalType": "address",
          "name": "receiver",
          "type": "address"
        }
      ],
      "name": "ERC20InvalidReceiver",
      "type": "error"
    },
    {
      "inputs": [
        {
          "internalType": "address",
          "name": "sender",
          "type": "address"
        }
      ],
      "name": "ERC20InvalidSender",
      "type": "error"
    },
    {
      "inputs": [
        {
          "internalType": "address",
          "name": "spender",
          "type": "address"
        }
      ],
      "name": "ERC20InvalidSpender",
      "type": "error"
    },
    {
      "inputs": [
        {
          "internalType": "uint256",
          "name": "deadline",
          "type": "uint256"
        }
      ],
      "name": "ERC2612ExpiredSignature",
      "type": "error"
    },
    {
      "inputs": [
        {
          "internalType": "address",
          "name": "signer",
          "type": "address"
        },
        {
          "internalType": "address",
          "name": "owner",
          "type": "address"
        }
      ],
      "name": "ERC2612InvalidSigner",
      "type": "error"
    },
    {
      "inputs": [
        {
          "internalType": "address",
          "name": "account",
          "type": "address"
        },
        {
          "internalType": "uint256",
          "name": "currentNonce",
          "type": "uint256"
        }
      ],
      "name": "InvalidAccountNonce",
      "type": "error"
    },
    {
      "inputs": [],
      "name": "InvalidShortString",
      "type": "error"
    },
    {
      "inputs": [
        {
          "internalType": "address",
          "name": "owner",
          "type": "address"
        }
      ],
      "name": "OwnableInvalidOwner",
      "type": "error"
    },
    {
      "inputs": [
        {
          "internalType": "address",
          "name": "account",
          "type": "address"
        }
      ],
      "name": "OwnableUnauthorizedAccount",
      "type": "error"
    },
    {
      "inputs": [
        {
          "internalType": "string",
          "name": "str",
          "type": "string"
        }
      ],
      "name": "StringTooLong",
      "type": "error"
    },
    {
      "anonymous": false,
      "inputs": [
        {
          "indexed": true,
          "internalType": "address",
          "name": "owner",
          "type": "address"
        },
        {
          "indexed": true,
          "internalType": "address",
          "name": "spender",
          "type": "address"
        },
        {
          "indexed": false,
          "internalType": "uint256",
          "name": "value",
          "type": "uint256"
        }
      ],
      "name": "Approval",
      "type": "event"
    },
    {
      "anonymous": false,
      "inputs": [],
      "name": "EIP712DomainChanged",
      "type": "event"
    },
    {
      "anonymous": false,
      "inputs": [
        {
          "indexed": true,
          "internalType": "address",
          "name": "previousOwner",
          "type": "address"
        },
        {
          "indexed": true,
          "internalType": "address",
          "name": "newOwner",
          "type": "address"
        }
      ],
      "name": "OwnershipTransferred",
      "type": "event"
    },
    {
      "anonymous": false,
      "inputs": [
        {
          "indexed": true,
          "internalType": "address",
          "name": "from",
          "type": "address"
        },
        {
          "indexed": true,
          "internalType": "address",
          "name": "to",
          "type": "address"
        },
        {
          "indexed": false,
          "internalType": "uint256",
          "name": "value",
          "type": "uint256"
        }
      ],
      "name": "Transfer",
      "type": "event"
    },
    {
      "inputs": [],
      "name": "DOMAIN_SEPARATOR",
      "outputs": [
        {
          "internalType": "bytes32",
          "name": "",
          "type": "bytes32"
        }
      ],
      "stateMutability": "view",
      "type": "function"
    },
    {
      "inputs": [],
      "name": "TOKEN_PRICE",
      "outputs": [
        {
          "internalType": "uint256",
          "name": "",
          "type": "uint256"
        }
      ],
      "stateMutability": "view",
      "type": "function"
    },
    {
      "inputs": [
        {
          "internalType": "address",
          "name": "owner",
          "type": "address"
        },
        {
          "internalType": "address",
          "name": "spender",
          "type": "address"
        }
      ],
      "name": "allowance",
      "outputs": [
        {
          "internalType": "uint256",
          "name": "",
          "type": "uint256"
        }
      ],
      "stateMutability": "view",
      "type": "function"
    },
    {
      "inputs": [
        {
          "internalType": "address",
          "name": "spender",
          "type": "address"
        },
        {
          "internalType": "uint256",
          "name": "value",
          "type": "uint256"
        }
      ],
      "name": "approve",
      "outputs": [
        {
          "internalType": "bool",
          "name": "",
          "type": "bool"
        }
      ],
      "stateMutability": "nonpayable",
      "type": "function"
    },
    {
      "inputs": [
        {
          "internalType": "address",
          "name": "account",
          "type": "address"
        }
      ],
      "name": "balanceOf",
      "outputs": [
        {
          "internalType": "uint256",
          "name": "",
          "type": "uint256"
        }
      ],
      "stateMutability": "view",
      "type": "function"
    },
    {
      "inputs": [],
      "name": "buyTokens",
      "outputs": [],
      "stateMutability": "payable",
      "type": "function"
    },
    {
      "inputs": [],
      "name": "decimals",
      "outputs": [
        {
          "internalType": "uint8",
          "name": "",
          "type": "uint8"
        }
      ],
      "stateMutability": "view",
      "type": "function"
    },
    {
      "inputs": [],
      "name": "eip712Domain",
      "outputs": [
        {
          "internalType": "bytes1",
          "name": "fields",
          "type": "bytes1"
        },
        {
          "internalType": "string",
          "name": "name",
          "type": "string"
        },
        {
          "internalType": "string",
          "name": "version",
          "type": "string"
        },
        {
          "internalType": "uint256",
          "name": "chainId",
          "type": "uint256"
        },
        {
          "internalType": "address",
          "name": "verifyingContract",
          "type": "address"
        },
        {
          "internalType": "bytes32",
          "name": "salt",
          "type": "bytes32"
        },
        {
          "internalType": "uint256[]",
          "name": "extensions",
          "type": "uint256[]"
        }
      ],
      "stateMutability": "view",
      "type": "function"
    },
    {
      "inputs": [],
      "name": "name",
      "outputs": [
        {
          "internalType": "string",
          "name": "",
          "type": "string"
        }
      ],
      "stateMutability": "view",
      "type": "function"
    },
    {
      "inputs": [
        {
          "internalType": "address",
          "name": "owner",
          "type": "address"
        }
      ],
      "name": "nonces",
      "outputs": [
        {
          "internalType": "uint256",
          "name": "",
          "type": "uint256"
        }
      ],
      "stateMutability": "view",
      "type": "function"
    },
    {
      "inputs": [],
      "name": "owner",
      "outputs": [
        {
          "internalType": "address",
          "name": "",
          "type": "address"
        }
      ],
      "stateMutability": "view",
      "type": "function"
    },
    {
      "inputs": [
        {
          "internalType": "address",
          "name": "owner",
          "type": "address"
        },
        {
          "internalType": "address",
          "name": "spender",
          "type": "address"
        },
        {
          "internalType": "uint256",
          "name": "value",
          "type": "uint256"
        },
        {
          "internalType": "uint256",
          "name": "deadline",
          "type": "uint256"
        },
        {
          "internalType": "uint8",
          "name": "v",
          "type": "uint8"
        },
        {
          "internalType": "bytes32",
          "name": "r",
          "type": "bytes32"
        },
        {
          "internalType": "bytes32",
          "name": "s",
          "type": "bytes32"
        }
      ],
      "name": "permit",
      "outputs": [],
      "stateMutability": "nonpayable",
      "type": "function"
    },
    {
      "inputs": [],
      "name": "renounceOwnership",
      "outputs": [],
      "stateMutability": "nonpayable",
      "type": "function"
    },
    {
      "inputs": [],
      "name": "symbol",
      "outputs": [
        {
          "internalType": "string",
          "name": "",
          "type": "string"
        }
      ],
      "stateMutability": "view",
      "type": "function"
    },
    {
      "inputs": [],
      "name": "totalSupply",
      "outputs": [
        {
          "internalType": "uint256",
          "name": "",
          "type": "uint256"
        }
      ],
      "stateMutability": "view",
      "type": "function"
    },
    {
      "inputs": [
        {
          "internalType": "address",
          "name": "to",
          "type": "address"
        },
        {
          "internalType": "uint256",
          "name": "value",
          "type": "uint256"
        }
      ],
      "name": "transfer",
      "outputs": [
        {
          "internalType": "bool",
          "name": "",
          "type": "bool"
        }
      ],
      "stateMutability": "nonpayable",
      "type": "function"
    },
    {
      "inputs": [
        {
          "internalType": "address",
          "name": "from",
          "type": "address"
        },
        {
          "internalType": "address",
          "name": "to",
          "type": "address"
        },
        {
          "internalType": "uint256",
          "name": "value",
          "type": "uint256"
        }
      ],
      "name": "transferFrom",
      "outputs": [
        {
          "internalType": "bool",
          "name": "",
          "type": "bool"
        }
      ],
      "stateMutability": "nonpayable",
      "type": "function"
    },
    {
      "inputs": [
        {
          "internalType": "address",
          "name": "newOwner",
          "type": "address"
        }
      ],
      "name": "transferOwnership",
      "outputs": [],
      "stateMutability": "nonpayable",
      "type": "function"
    },
    {
      "inputs": [],
      "name": "withdraw",
      "outputs": [],
      "stateMutability": "nonpayable",
      "type": "function"
    }
  ],
  "bytecode": "0x61016060405234801561001157600080fd5b50336040518060400160405280600d81526020017f4d795065726d6974546f6b656e00000000000000000000000000000000000000815250806040518060400160405280600181526020017f31000000000000000000000000000000000000000000000000000000000000008152506040518060400160405280600e81526020017f52656e746461707020546f6b656e0000000000000000000000000000000000008152506040518060400160405280600381526020017f524454000000000000000000000000000000000000000000000000000000000081525081600390816100fb9190610960565b50806004908161010b9190610960565b50505061012260058361027760201b90919060201c565b610120818152505061013e60068261027760201b90919060201c565b6101408181525050818051906020012060e08181525050808051906020012061010081815250504660a0818152505061017b6102c760201b60201c565b608081815250503073ffffffffffffffffffffffffffffffffffffffff1660c08173ffffffffffffffffffffffffffffffffffffffff1681525050505050600073ffffffffffffffffffffffffffffffffffffffff168173ffffffffffffffffffffffffffffffffffffffff160361022b5760006040517f1e4fbdf70000000000000000000000000000000000000000000000000000000081526004016102229190610a73565b60405180910390fd5b61023a8161032260201b60201c565b506102723361024d6103e860201b60201c565b600a6102599190610bfd565b620f42406102679190610c48565b6103f160201b60201c565b610ec9565b6000602083511015610299576102928361047960201b60201c565b90506102c1565b826102a9836104e160201b60201c565b60000190816102b89190610960565b5060ff60001b90505b92915050565b60007f8b73c3c69bb8fe3d512ecc4cf759cc79239f7b179b0ffacaa9a75d522b39400f60e051610100514630604051602001610307959493929190610cb2565b60405160208183030381529060405280519060200120905090565b6000600860009054906101000a900473ffffffffffffffffffffffffffffffffffffffff16905081600860006101000a81548173ffffffffffffffffffffffffffffffffffffffff021916908373ffffffffffffffffffffffffffffffffffffffff1602179055508173ffffffffffffffffffffffffffffffffffffffff168173ffffffffffffffffffffffffffffffffffffffff167f8be0079c531659141344cd1fd0a4f28419497f9722a3daafe3b4186f6b6457e060405160405180910390a35050565b60006012905090565b600073ffffffffffffffffffffffffffffffffffffffff168273ffffffffffffffffffffffffffffffffffffffff16036104635760006040517fec442f0500000000000000000000000000000000000000000000000000000000815260040161045a9190610a73565b60405180910390fd5b610475600083836104eb60201b60201c565b5050565b600080829050601f815111156104c657826040517f305a27a90000000000000000000000000000000000000000000000000000000081526004016104bd9190610d8a565b60405180910390fd5b8051816104d290610ddc565b60001c1760001b915050919050565b6000819050919050565b600073ffffffffffffffffffffffffffffffffffffffff168373ffffffffffffffffffffffffffffffffffffffff160361053d5780600260008282546105319190610e43565b92505081905550610610565b60008060008573ffffffffffffffffffffffffffffffffffffffff1673ffffffffffffffffffffffffffffffffffffffff168152602001908152602001600020549050818110156105c9578381836040517fe450d38c0000000000000000000000000000000000000000000000000000000081526004016105c093929190610e77565b60405180910390fd5b8181036000808673ffffffffffffffffffffffffffffffffffffffff1673ffffffffffffffffffffffffffffffffffffffff16815260200190815260200160002081905550505b600073ffffffffffffffffffffffffffffffffffffffff168273ffffffffffffffffffffffffffffffffffffffff160361065957806002600082825403925050819055506106a6565b806000808473ffffffffffffffffffffffffffffffffffffffff1673ffffffffffffffffffffffffffffffffffffffff168152602001908152602001600020600082825401925050819055505b8173ffffffffffffffffffffffffffffffffffffffff168373ffffffffffffffffffffffffffffffffffffffff167fddf252ad1be2c89b69c2b068fc378daa952ba7f163c4a11628f55a4df523b3ef836040516107039190610eae565b60405180910390a3505050565b600081519050919050565b7f4e487b7100000000000000000000000000000000000000000000000000000000600052604160045260246000fd5b7f4e487b7100000000000000000000000000000000000000000000000000000000600052602260045260246000fd5b6000600282049050600182168061079157607f821691505b6020821081036107a4576107a361074a565b5b50919050565b60008190508160005260206000209050919050565b60006020601f8301049050919050565b600082821b905092915050565b60006008830261080c7fffffffffffffffffffffffffffffffffffffffffffffffffffffffffffffffff826107cf565b61081686836107cf565b95508019841693508086168417925050509392505050565b6000819050919050565b6000819050919050565b600061085d6108586108538461082e565b610838565b61082e565b9050919050565b6000819050919050565b61087783610842565b61088b61088382610864565b8484546107dc565b825550505050565b600090565b6108a0610893565b6108ab81848461086e565b505050565b5b818110156108cf576108c4600082610898565b6001810190506108b1565b5050565b601f821115610914576108e5816107aa565b6108ee846107bf565b810160208510156108fd578190505b610911610909856107bf565b8301826108b0565b50505b505050565b600082821c905092915050565b600061093760001984600802610919565b1980831691505092915050565b60006109508383610926565b9150826002028217905092915050565b61096982610710565b67ffffffffffffffff8111156109825761098161071b565b5b61098c8254610779565b6109978282856108d3565b600060209050601f8311600181146109ca57600084156109b8578287015190505b6109c28582610944565b865550610a2a565b601f1984166109d8866107aa565b60005b82811015610a00578489015182556001820191506020850194506020810190506109db565b86831015610a1d5784890151610a19601f891682610926565b8355505b6001600288020188555050505b505050505050565b600073ffffffffffffffffffffffffffffffffffffffff82169050919050565b6000610a5d82610a32565b9050919050565b610a6d81610a52565b82525050565b6000602082019050610a886000830184610a64565b92915050565b7f4e487b7100000000000000000000000000000000000000000000000000000000600052601160045260246000fd5b60008160011c9050919050565b6000808291508390505b6001851115610b1457808604811115610af057610aef610a8e565b5b6001851615610aff5780820291505b8081029050610b0d85610abd565b9450610ad4565b94509492505050565b600082610b2d5760019050610be9565b81610b3b5760009050610be9565b8160018114610b515760028114610b5b57610b8a565b6001915050610be9565b60ff841115610b6d57610b6c610a8e565b5b8360020a915084821115610b8457610b83610a8e565b5b50610be9565b5060208310610133831016604e8410600b8410161715610bbf5782820a905083811115610bba57610bb9610a8e565b5b610be9565b610bcc8484846001610aca565b92509050818404811115610be357610be2610a8e565b5b81810290505b9392505050565b600060ff82169050919050565b6000610c088261082e565b9150610c1383610bf0565b9250610c407fffffffffffffffffffffffffffffffffffffffffffffffffffffffffffffffff8484610b1d565b905092915050565b6000610c538261082e565b9150610c5e8361082e565b9250828202610c6c8161082e565b91508282048414831517610c8357610c82610a8e565b5b5092915050565b6000819050919050565b610c9d81610c8a565b82525050565b610cac8161082e565b82525050565b600060a082019050610cc76000830188610c94565b610cd46020830187610c94565b610ce16040830186610c94565b610cee6060830185610ca3565b610cfb6080830184610a64565b9695505050505050565b600082825260208201905092915050565b60005b83811015610d34578082015181840152602081019050610d19565b60008484015250505050565b6000601f19601f8301169050919050565b6000610d5c82610710565b610d668185610d05565b9350610d76818560208601610d16565b610d7f81610d40565b840191505092915050565b60006020820190508181036000830152610da48184610d51565b905092915050565b600081519050919050565b6000819050602082019050919050565b6000610dd38251610c8a565b80915050919050565b6000610de782610dac565b82610df184610db7565b9050610dfc81610dc7565b92506020821015610e3c57610e377fffffffffffffffffffffffffffffffffffffffffffffffffffffffffffffffff836020036008026107cf565b831692505b5050919050565b6000610e4e8261082e565b9150610e598361082e565b9250828201905080821115610e7157610e70610a8e565b5b92915050565b6000606082019050610e8c6000830186610a64565b610e996020830185610ca3565b610ea66040830184610ca3565b949350505050565b6000602082019050610ec36000830184610ca3565b92915050565b60805160a05160c05160e05161010051610120516101405161242e610f236000396000610f3701526000610efc0152600061144c0152600061142b01526000610caa01526000610d0001526000610d29015261242e6000f3fe6080604052600436106101145760003560e01c80637ecebe00116100a0578063d0febe4c11610064578063d0febe4c146103ab578063d2d8cb67146103b5578063d505accf146103e0578063dd62ed3e14610409578063f2fde38b1461044657610114565b80637ecebe00146102aa57806384b0196e146102e75780638da5cb5b1461031857806395d89b4114610343578063a9059cbb1461036e57610114565b8063313ce567116100e7578063313ce567146101e95780633644e515146102145780633ccfd60b1461023f57806370a0823114610256578063715018a61461029357610114565b806306fdde0314610119578063095ea7b31461014457806318160ddd1461018157806323b872dd146101ac575b600080fd5b34801561012557600080fd5b5061012e61046f565b60405161013b9190611939565b60405180910390f35b34801561015057600080fd5b5061016b600480360381019061016691906119f4565b610501565b6040516101789190611a4f565b60405180910390f35b34801561018d57600080fd5b50610196610524565b6040516101a39190611a79565b60405180910390f35b3480156101b857600080fd5b506101d360048036038101906101ce9190611a94565b61052e565b6040516101e09190611a4f565b60405180910390f35b3480156101f557600080fd5b506101fe61055d565b60405161020b9190611b03565b60405180910390f35b34801561022057600080fd5b50610229610566565b6040516102369190611b37565b60405180910390f35b34801561024b57600080fd5b50610254610575565b005b34801561026257600080fd5b5061027d60048036038101906102789190611b52565b6105cd565b60405161028a9190611a79565b60405180910390f35b34801561029f57600080fd5b506102a8610615565b005b3480156102b657600080fd5b506102d160048036038101906102cc9190611b52565b610629565b6040516102de9190611a79565b60405180910390f35b3480156102f357600080fd5b506102fc61063b565b60405161030f9796959493929190611c87565b60405180910390f35b34801561032457600080fd5b5061032d6106e5565b60405161033a9190611d0b565b60405180910390f35b34801561034f57600080fd5b5061035861070f565b6040516103659190611939565b60405180910390f35b34801561037a57600080fd5b50610395600480360381019061039091906119f4565b6107a1565b6040516103a29190611a4f565b60405180910390f35b6103b36107c4565b005b3480156103c157600080fd5b506103ca6108a3565b6040516103d79190611a79565b60405180910390f35b3480156103ec57600080fd5b5061040760048036038101906104029190611d7e565b6108ae565b005b34801561041557600080fd5b50610430600480360381019061042b9190611e20565b6109f6565b60405161043d9190611a79565b60405180910390f35b34801561045257600080fd5b5061046d60048036038101906104689190611b52565b610a7d565b005b60606003805461047e90611e8f565b80601f01602080910402602001604051908101604052809291908181526020018280546104aa90611e8f565b80156104f75780601f106104cc576101008083540402835291602001916104f7565b820191906000526020600020905b8154815290600101906020018083116104da57829003601f168201915b5050505050905090565b60008061050c610b03565b9050610519818585610b0b565b600191505092915050565b6000600254905090565b600080610539610b03565b9050610546858285610b1d565b610551858585610bb2565b60019150509392505050565b60006012905090565b6000610570610ca6565b905090565b61057d610d5d565b6105856106e5565b73ffffffffffffffffffffffffffffffffffffffff166108fc479081150290604051600060405180830381858888f193505050501580156105ca573d6000803e3d6000fd5b50565b60008060008373ffffffffffffffffffffffffffffffffffffffff1673ffffffffffffffffffffffffffffffffffffffff168152602001908152602001600020549050919050565b61061d610d5d565b6106276000610de4565b565b600061063482610eaa565b9050919050565b60006060806000806000606061064f610ef3565b610657610f2e565b46306000801b600067ffffffffffffffff81111561067857610677611ec0565b5b6040519080825280602002602001820160405280156106a65781602001602082028036833780820191505090505b507f0f00000000000000000000000000000000000000000000000000000000000000959493929190965096509650965096509650965090919293949596565b6000600860009054906101000a900473ffffffffffffffffffffffffffffffffffffffff16905090565b60606004805461071e90611e8f565b80601f016020809104026020016040519081016040528092919081815260200182805461074a90611e8f565b80156107975780601f1061076c57610100808354040283529160200191610797565b820191906000526020600020905b81548152906001019060200180831161077a57829003601f168201915b5050505050905090565b6000806107ac610b03565b90506107b9818585610bb2565b600191505092915050565b60003411610807576040517f08c379a00000000000000000000000000000000000000000000000000000000081526004016107fe90611f3b565b60405180910390fd5b6000662386f26fc1000061081961055d565b600a61082591906120bd565b346108309190612108565b61083a9190612179565b90508061084d6108486106e5565b6105cd565b101561088e576040517f08c379a00000000000000000000000000000000000000000000000000000000081526004016108859061221c565b60405180910390fd5b6108a06108996106e5565b3383610bb2565b50565b662386f26fc1000081565b834211156108f357836040517f627913020000000000000000000000000000000000000000000000000000000081526004016108ea9190611a79565b60405180910390fd5b60007f6e71edae12b1b97f4d1f60370fef10105fa2faae0126114a169c64845d6126c98888886109228c610f69565b896040516020016109389695949392919061223c565b604051602081830303815290604052805190602001209050600061095b82610fc0565b9050600061096b82878787610fda565b90508973ffffffffffffffffffffffffffffffffffffffff168173ffffffffffffffffffffffffffffffffffffffff16146109df57808a6040517f4b800e460000000000000000000000000000000000000000000000000000000081526004016109d692919061229d565b60405180910390fd5b6109ea8a8a8a610b0b565b50505050505050505050565b6000600160008473ffffffffffffffffffffffffffffffffffffffff1673ffffffffffffffffffffffffffffffffffffffff16815260200190815260200160002060008373ffffffffffffffffffffffffffffffffffffffff1673ffffffffffffffffffffffffffffffffffffffff16815260200190815260200160002054905092915050565b610a85610d5d565b600073ffffffffffffffffffffffffffffffffffffffff168173ffffffffffffffffffffffffffffffffffffffff1603610af75760006040517f1e4fbdf7000000000000000000000000000000000000000000000000000000008152600401610aee9190611d0b565b60405180910390fd5b610b0081610de4565b50565b600033905090565b610b18838383600161100a565b505050565b6000610b2984846109f6565b90507fffffffffffffffffffffffffffffffffffffffffffffffffffffffffffffffff811015610bac5781811015610b9c578281836040517ffb8f41b2000000000000000000000000000000000000000000000000000000008152600401610b93939291906122c6565b60405180910390fd5b610bab8484848403600061100a565b5b50505050565b600073ffffffffffffffffffffffffffffffffffffffff168373ffffffffffffffffffffffffffffffffffffffff1603610c245760006040517f96c6fd1e000000000000000000000000000000000000000000000000000000008152600401610c1b9190611d0b565b60405180910390fd5b600073ffffffffffffffffffffffffffffffffffffffff168273ffffffffffffffffffffffffffffffffffffffff1603610c965760006040517fec442f05000000000000000000000000000000000000000000000000000000008152600401610c8d9190611d0b565b60405180910390fd5b610ca18383836111e1565b505050565b60007f000000000000000000000000000000000000000000000000000000000000000073ffffffffffffffffffffffffffffffffffffffff163073ffffffffffffffffffffffffffffffffffffffff16148015610d2257507f000000000000000000000000000000000000000000000000000000000000000046145b15610d4f577f00000000000000000000000000000000000000000000000000000000000000009050610d5a565b610d57611406565b90505b90565b610d65610b03565b73ffffffffffffffffffffffffffffffffffffffff16610d836106e5565b73ffffffffffffffffffffffffffffffffffffffff1614610de257610da6610b03565b6040517f118cdaa7000000000000000000000000000000000000000000000000000000008152600401610dd99190611d0b565b60405180910390fd5b565b6000600860009054906101000a900473ffffffffffffffffffffffffffffffffffffffff16905081600860006101000a81548173ffffffffffffffffffffffffffffffffffffffff021916908373ffffffffffffffffffffffffffffffffffffffff1602179055508173ffffffffffffffffffffffffffffffffffffffff168173ffffffffffffffffffffffffffffffffffffffff167f8be0079c531659141344cd1fd0a4f28419497f9722a3daafe3b4186f6b6457e060405160405180910390a35050565b6000600760008373ffffffffffffffffffffffffffffffffffffffff1673ffffffffffffffffffffffffffffffffffffffff168152602001908152602001600020549050919050565b6060610f2960057f000000000000000000000000000000000000000000000000000000000000000061149c90919063ffffffff16565b905090565b6060610f6460067f000000000000000000000000000000000000000000000000000000000000000061149c90919063ffffffff16565b905090565b6000600760008373ffffffffffffffffffffffffffffffffffffffff1673ffffffffffffffffffffffffffffffffffffffff1681526020019081526020016000206000815480929190600101919050559050919050565b6000610fd3610fcd610ca6565b8361154c565b9050919050565b600080600080610fec8888888861158d565b925092509250610ffc8282611681565b829350505050949350505050565b600073ffffffffffffffffffffffffffffffffffffffff168473ffffffffffffffffffffffffffffffffffffffff160361107c5760006040517fe602df050000000000000000000000000000000000000000000000000000000081526004016110739190611d0b565b60405180910390fd5b600073ffffffffffffffffffffffffffffffffffffffff168373ffffffffffffffffffffffffffffffffffffffff16036110ee5760006040517f94280d620000000000000000000000000000000000000000000000000000000081526004016110e59190611d0b565b60405180910390fd5b81600160008673ffffffffffffffffffffffffffffffffffffffff1673ffffffffffffffffffffffffffffffffffffffff16815260200190815260200160002060008573ffffffffffffffffffffffffffffffffffffffff1673ffffffffffffffffffffffffffffffffffffffff1681526020019081526020016000208190555080156111db578273ffffffffffffffffffffffffffffffffffffffff168473ffffffffffffffffffffffffffffffffffffffff167f8c5be1e5ebec7d5bd14f71427d1e84f3dd0314c0f7b2291e5b200ac8c7c3b925846040516111d29190611a79565b60405180910390a35b50505050565b600073ffffffffffffffffffffffffffffffffffffffff168373ffffffffffffffffffffffffffffffffffffffff160361123357806002600082825461122791906122fd565b92505081905550611306565b60008060008573ffffffffffffffffffffffffffffffffffffffff1673ffffffffffffffffffffffffffffffffffffffff168152602001908152602001600020549050818110156112bf578381836040517fe450d38c0000000000000000000000000000000000000000000000000000000081526004016112b6939291906122c6565b60405180910390fd5b8181036000808673ffffffffffffffffffffffffffffffffffffffff1673ffffffffffffffffffffffffffffffffffffffff16815260200190815260200160002081905550505b600073ffffffffffffffffffffffffffffffffffffffff168273ffffffffffffffffffffffffffffffffffffffff160361134f578060026000828254039250508190555061139c565b806000808473ffffffffffffffffffffffffffffffffffffffff1673ffffffffffffffffffffffffffffffffffffffff168152602001908152602001600020600082825401925050819055505b8173ffffffffffffffffffffffffffffffffffffffff168373ffffffffffffffffffffffffffffffffffffffff167fddf252ad1be2c89b69c2b068fc378daa952ba7f163c4a11628f55a4df523b3ef836040516113f99190611a79565b60405180910390a3505050565b60007f8b73c3c69bb8fe3d512ecc4cf759cc79239f7b179b0ffacaa9a75d522b39400f7f00000000000000000000000000000000000000000000000000000000000000007f00000000000000000000000000000000000000000000000000000000000000004630604051602001611481959493929190612331565b60405160208183030381529060405280519060200120905090565b606060ff60001b83146114b9576114b2836117e5565b9050611546565b8180546114c590611e8f565b80601f01602080910402602001604051908101604052809291908181526020018280546114f190611e8f565b801561153e5780601f106115135761010080835404028352916020019161153e565b820191906000526020600020905b81548152906001019060200180831161152157829003601f168201915b505050505090505b92915050565b60006040517f190100000000000000000000000000000000000000000000000000000000000081528360028201528260228201526042812091505092915050565b60008060007f7fffffffffffffffffffffffffffffff5d576e7357a4501ddfe92f46681b20a08460001c11156115cd576000600385925092509250611677565b6000600188888888604051600081526020016040526040516115f29493929190612384565b6020604051602081039080840390855afa158015611614573d6000803e3d6000fd5b505050602060405103519050600073ffffffffffffffffffffffffffffffffffffffff168173ffffffffffffffffffffffffffffffffffffffff160361166857600060016000801b93509350935050611677565b8060008060001b935093509350505b9450945094915050565b60006003811115611695576116946123c9565b5b8260038111156116a8576116a76123c9565b5b03156117e157600160038111156116c2576116c16123c9565b5b8260038111156116d5576116d46123c9565b5b0361170c576040517ff645eedf00000000000000000000000000000000000000000000000000000000815260040160405180910390fd5b600260038111156117205761171f6123c9565b5b826003811115611733576117326123c9565b5b03611778578060001c6040517ffce698f700000000000000000000000000000000000000000000000000000000815260040161176f9190611a79565b60405180910390fd5b60038081111561178b5761178a6123c9565b5b82600381111561179e5761179d6123c9565b5b036117e057806040517fd78bce0c0000000000000000000000000000000000000000000000000000000081526004016117d79190611b37565b60405180910390fd5b5b5050565b606060006117f283611859565b90506000602067ffffffffffffffff81111561181157611810611ec0565b5b6040519080825280601f01601f1916602001820160405280156118435781602001600182028036833780820191505090505b5090508181528360208201528092505050919050565b60008060ff8360001c169050601f8111156118a0576040517fb3512b0c00000000000000000000000000000000000000000000000000000000815260040160405180910390fd5b80915050919050565b600081519050919050565b600082825260208201905092915050565b60005b838110156118e35780820151818401526020810190506118c8565b60008484015250505050565b6000601f19601f8301169050919050565b600061190b826118a9565b61191581856118b4565b93506119258185602086016118c5565b61192e816118ef565b840191505092915050565b600060208201905081810360008301526119538184611900565b905092915050565b600080fd5b600073ffffffffffffffffffffffffffffffffffffffff82169050919050565b600061198b82611960565b9050919050565b61199b81611980565b81146119a657600080fd5b50565b6000813590506119b881611992565b92915050565b6000819050919050565b6119d1816119be565b81146119dc57600080fd5b50565b6000813590506119ee816119c8565b92915050565b60008060408385031215611a0b57611a0a61195b565b5b6000611a19858286016119a9565b9250506020611a2a858286016119df565b9150509250929050565b60008115159050919050565b611a4981611a34565b82525050565b6000602082019050611a646000830184611a40565b92915050565b611a73816119be565b82525050565b6000602082019050611a8e6000830184611a6a565b92915050565b600080600060608486031215611aad57611aac61195b565b5b6000611abb868287016119a9565b9350506020611acc868287016119a9565b9250506040611add868287016119df565b9150509250925092565b600060ff82169050919050565b611afd81611ae7565b82525050565b6000602082019050611b186000830184611af4565b92915050565b6000819050919050565b611b3181611b1e565b82525050565b6000602082019050611b4c6000830184611b28565b92915050565b600060208284031215611b6857611b6761195b565b5b6000611b76848285016119a9565b91505092915050565b60007fff0000000000000000000000000000000000000000000000000000000000000082169050919050565b611bb481611b7f565b82525050565b611bc381611980565b82525050565b600081519050919050565b600082825260208201905092915050565b6000819050602082019050919050565b611bfe816119be565b82525050565b6000611c108383611bf5565b60208301905092915050565b6000602082019050919050565b6000611c3482611bc9565b611c3e8185611bd4565b9350611c4983611be5565b8060005b83811015611c7a578151611c618882611c04565b9750611c6c83611c1c565b925050600181019050611c4d565b5085935050505092915050565b600060e082019050611c9c600083018a611bab565b8181036020830152611cae8189611900565b90508181036040830152611cc28188611900565b9050611cd16060830187611a6a565b611cde6080830186611bba565b611ceb60a0830185611b28565b81810360c0830152611cfd8184611c29565b905098975050505050505050565b6000602082019050611d206000830184611bba565b92915050565b611d2f81611ae7565b8114611d3a57600080fd5b50565b600081359050611d4c81611d26565b92915050565b611d5b81611b1e565b8114611d6657600080fd5b50565b600081359050611d7881611d52565b92915050565b600080600080600080600060e0888a031215611d9d57611d9c61195b565b5b6000611dab8a828b016119a9565b9750506020611dbc8a828b016119a9565b9650506040611dcd8a828b016119df565b9550506060611dde8a828b016119df565b9450506080611def8a828b01611d3d565b93505060a0611e008a828b01611d69565b92505060c0611e118a828b01611d69565b91505092959891949750929550565b60008060408385031215611e3757611e3661195b565b5b6000611e45858286016119a9565b9250506020611e56858286016119a9565b9150509250929050565b7f4e487b7100000000000000000000000000000000000000000000000000000000600052602260045260246000fd5b60006002820490506001821680611ea757607f821691505b602082108103611eba57611eb9611e60565b5b50919050565b7f4e487b7100000000000000000000000000000000000000000000000000000000600052604160045260246000fd5b7f4e6f204554482073656e74000000000000000000000000000000000000000000600082015250565b6000611f25600b836118b4565b9150611f3082611eef565b602082019050919050565b60006020820190508181036000830152611f5481611f18565b9050919050565b7f4e487b7100000000000000000000000000000000000000000000000000000000600052601160045260246000fd5b60008160011c9050919050565b6000808291508390505b6001851115611fe157808604811115611fbd57611fbc611f5b565b5b6001851615611fcc5780820291505b8081029050611fda85611f8a565b9450611fa1565b94509492505050565b600082611ffa57600190506120b6565b8161200857600090506120b6565b816001811461201e576002811461202857612057565b60019150506120b6565b60ff84111561203a57612039611f5b565b5b8360020a91508482111561205157612050611f5b565b5b506120b6565b5060208310610133831016604e8410600b841016171561208c5782820a90508381111561208757612086611f5b565b5b6120b6565b6120998484846001611f97565b925090508184048111156120b0576120af611f5b565b5b81810290505b9392505050565b60006120c8826119be565b91506120d383611ae7565b92506121007fffffffffffffffffffffffffffffffffffffffffffffffffffffffffffffffff8484611fea565b905092915050565b6000612113826119be565b915061211e836119be565b925082820261212c816119be565b9150828204841483151761214357612142611f5b565b5b5092915050565b7f4e487b7100000000000000000000000000000000000000000000000000000000600052601260045260246000fd5b6000612184826119be565b915061218f836119be565b92508261219f5761219e61214a565b5b828204905092915050565b7f4e6f7420656e6f75676820746f6b656e7320617661696c61626c6520666f722060008201527f73616c6500000000000000000000000000000000000000000000000000000000602082015250565b60006122066024836118b4565b9150612211826121aa565b604082019050919050565b60006020820190508181036000830152612235816121f9565b9050919050565b600060c0820190506122516000830189611b28565b61225e6020830188611bba565b61226b6040830187611bba565b6122786060830186611a6a565b6122856080830185611a6a565b61229260a0830184611a6a565b979650505050505050565b60006040820190506122b26000830185611bba565b6122bf6020830184611bba565b9392505050565b60006060820190506122db6000830186611bba565b6122e86020830185611a6a565b6122f56040830184611a6a565b949350505050565b6000612308826119be565b9150612313836119be565b925082820190508082111561232b5761232a611f5b565b5b92915050565b600060a0820190506123466000830188611b28565b6123536020830187611b28565b6123606040830186611b28565b61236d6060830185611a6a565b61237a6080830184611bba565b9695505050505050565b60006080820190506123996000830187611b28565b6123a66020830186611af4565b6123b36040830185611b28565b6123c06060830184611b28565b95945050505050565b7f4e487b7100000000000000000000000000000000000000000000000000000000600052602160045260246000fdfea26469706673582212205d6e79e19b5e87e6fa2051e67e15423baf5043e41fd3f9f87dbdca539808cdc664736f6c634300081c0033",
  "linkReferences": {},
  "deployedLinkReferences": {}
}