{
  "_format": "hh-sol-artifact-1",
  "contractName": "Token",
  "sourceName": "contracts/Token.sol",
  "abi": [
    {
      "inputs": [
        {
          "internalType": "string",
          "name": "name",
          "type": "string"
        },
        {
          "internalType": "string",
          "name": "symbol",
          "type": "string"
        },
        {
          "internalType": "uint256",
          "name": "maxTotalSupply",
          "type": "uint256"
        },
        {
          "internalType": "uint256",
          "name": "price",
          "type": "uint256"
        }
      ],
      "stateMutability": "nonpayable",
      "type": "constructor"
    },
    {
      "inputs": [],
      "name": "AccessControlBadConfirmation",
      "type": "error"
    },
    {
      "inputs": [
        {
          "internalType": "address",
          "name": "account",
          "type": "address"
        },
        {
          "internalType": "bytes32",
          "name": "neededRole",
          "type": "bytes32"
        }
      ],
      "name": "AccessControlUnauthorizedAccount",
      "type": "error"
    },
    {
      "inputs": [],
      "name": "ECDSAInvalidSignature",
      "type": "error"
    },
    {
      "inputs": [
        {
          "internalType": "uint256",
          "name": "length",
          "type": "uint256"
        }
      ],
      "name": "ECDSAInvalidSignatureLength",
      "type": "error"
    },
    {
      "inputs": [
        {
          "internalType": "bytes32",
          "name": "s",
          "type": "bytes32"
        }
      ],
      "name": "ECDSAInvalidSignatureS",
      "type": "error"
    },
    {
      "inputs": [
        {
          "internalType": "address",
          "name": "spender",
          "type": "address"
        },
        {
          "internalType": "uint256",
          "name": "allowance",
          "type": "uint256"
        },
        {
          "internalType": "uint256",
          "name": "needed",
          "type": "uint256"
        }
      ],
      "name": "ERC20InsufficientAllowance",
      "type": "error"
    },
    {
      "inputs": [
        {
          "internalType": "address",
          "name": "sender",
          "type": "address"
        },
        {
          "internalType": "uint256",
          "name": "balance",
          "type": "uint256"
        },
        {
          "internalType": "uint256",
          "name": "needed",
          "type": "uint256"
        }
      ],
      "name": "ERC20InsufficientBalance",
      "type": "error"
    },
    {
      "inputs": [
        {
          "internalType": "address",
          "name": "approver",
          "type": "address"
        }
      ],
      "name": "ERC20InvalidApprover",
      "type": "error"
    },
    {
      "inputs": [
        {
          "internalType": "address",
          "name": "receiver",
          "type": "address"
        }
      ],
      "name": "ERC20InvalidReceiver",
      "type": "error"
    },
    {
      "inputs": [
        {
          "internalType": "address",
          "name": "sender",
          "type": "address"
        }
      ],
      "name": "ERC20InvalidSender",
      "type": "error"
    },
    {
      "inputs": [
        {
          "internalType": "address",
          "name": "spender",
          "type": "address"
        }
      ],
      "name": "ERC20InvalidSpender",
      "type": "error"
    },
    {
      "inputs": [
        {
          "internalType": "uint256",
          "name": "deadline",
          "type": "uint256"
        }
      ],
      "name": "ERC2612ExpiredSignature",
      "type": "error"
    },
    {
      "inputs": [
        {
          "internalType": "address",
          "name": "signer",
          "type": "address"
        },
        {
          "internalType": "address",
          "name": "owner",
          "type": "address"
        }
      ],
      "name": "ERC2612InvalidSigner",
      "type": "error"
    },
    {
      "inputs": [
        {
          "internalType": "address",
          "name": "account",
          "type": "address"
        },
        {
          "internalType": "uint256",
          "name": "currentNonce",
          "type": "uint256"
        }
      ],
      "name": "InvalidAccountNonce",
      "type": "error"
    },
    {
      "inputs": [],
      "name": "InvalidShortString",
      "type": "error"
    },
    {
      "inputs": [
        {
          "internalType": "string",
          "name": "str",
          "type": "string"
        }
      ],
      "name": "StringTooLong",
      "type": "error"
    },
    {
      "anonymous": false,
      "inputs": [
        {
          "indexed": true,
          "internalType": "address",
          "name": "owner",
          "type": "address"
        },
        {
          "indexed": true,
          "internalType": "address",
          "name": "spender",
          "type": "address"
        },
        {
          "indexed": false,
          "internalType": "uint256",
          "name": "value",
          "type": "uint256"
        }
      ],
      "name": "Approval",
      "type": "event"
    },
    {
      "anonymous": false,
      "inputs": [],
      "name": "EIP712DomainChanged",
      "type": "event"
    },
    {
      "anonymous": false,
      "inputs": [
        {
          "indexed": true,
          "internalType": "bytes32",
          "name": "role",
          "type": "bytes32"
        },
        {
          "indexed": true,
          "internalType": "bytes32",
          "name": "previousAdminRole",
          "type": "bytes32"
        },
        {
          "indexed": true,
          "internalType": "bytes32",
          "name": "newAdminRole",
          "type": "bytes32"
        }
      ],
      "name": "RoleAdminChanged",
      "type": "event"
    },
    {
      "anonymous": false,
      "inputs": [
        {
          "indexed": true,
          "internalType": "bytes32",
          "name": "role",
          "type": "bytes32"
        },
        {
          "indexed": true,
          "internalType": "address",
          "name": "account",
          "type": "address"
        },
        {
          "indexed": true,
          "internalType": "address",
          "name": "sender",
          "type": "address"
        }
      ],
      "name": "RoleGranted",
      "type": "event"
    },
    {
      "anonymous": false,
      "inputs": [
        {
          "indexed": true,
          "internalType": "bytes32",
          "name": "role",
          "type": "bytes32"
        },
        {
          "indexed": true,
          "internalType": "address",
          "name": "account",
          "type": "address"
        },
        {
          "indexed": true,
          "internalType": "address",
          "name": "sender",
          "type": "address"
        }
      ],
      "name": "RoleRevoked",
      "type": "event"
    },
    {
      "anonymous": false,
      "inputs": [
        {
          "indexed": true,
          "internalType": "address",
          "name": "from",
          "type": "address"
        },
        {
          "indexed": true,
          "internalType": "address",
          "name": "to",
          "type": "address"
        },
        {
          "indexed": false,
          "internalType": "uint256",
          "name": "value",
          "type": "uint256"
        }
      ],
      "name": "Transfer",
      "type": "event"
    },
    {
      "inputs": [],
      "name": "DEFAULT_ADMIN_ROLE",
      "outputs": [
        {
          "internalType": "bytes32",
          "name": "",
          "type": "bytes32"
        }
      ],
      "stateMutability": "view",
      "type": "function"
    },
    {
      "inputs": [],
      "name": "DOMAIN_SEPARATOR",
      "outputs": [
        {
          "internalType": "bytes32",
          "name": "",
          "type": "bytes32"
        }
      ],
      "stateMutability": "view",
      "type": "function"
    },
    {
      "inputs": [],
      "name": "MINTER_ROLE",
      "outputs": [
        {
          "internalType": "bytes32",
          "name": "",
          "type": "bytes32"
        }
      ],
      "stateMutability": "view",
      "type": "function"
    },
    {
      "inputs": [
        {
          "internalType": "address",
          "name": "owner",
          "type": "address"
        },
        {
          "internalType": "address",
          "name": "spender",
          "type": "address"
        }
      ],
      "name": "allowance",
      "outputs": [
        {
          "internalType": "uint256",
          "name": "",
          "type": "uint256"
        }
      ],
      "stateMutability": "view",
      "type": "function"
    },
    {
      "inputs": [
        {
          "internalType": "address",
          "name": "spender",
          "type": "address"
        },
        {
          "internalType": "uint256",
          "name": "value",
          "type": "uint256"
        }
      ],
      "name": "approve",
      "outputs": [
        {
          "internalType": "bool",
          "name": "",
          "type": "bool"
        }
      ],
      "stateMutability": "nonpayable",
      "type": "function"
    },
    {
      "inputs": [
        {
          "internalType": "address",
          "name": "account",
          "type": "address"
        }
      ],
      "name": "balanceOf",
      "outputs": [
        {
          "internalType": "uint256",
          "name": "",
          "type": "uint256"
        }
      ],
      "stateMutability": "view",
      "type": "function"
    },
    {
      "inputs": [
        {
          "internalType": "uint256",
          "name": "amount",
          "type": "uint256"
        }
      ],
      "name": "buyTokens",
      "outputs": [],
      "stateMutability": "payable",
      "type": "function"
    },
    {
      "inputs": [],
      "name": "decimals",
      "outputs": [
        {
          "internalType": "uint8",
          "name": "",
          "type": "uint8"
        }
      ],
      "stateMutability": "view",
      "type": "function"
    },
    {
      "inputs": [],
      "name": "eip712Domain",
      "outputs": [
        {
          "internalType": "bytes1",
          "name": "fields",
          "type": "bytes1"
        },
        {
          "internalType": "string",
          "name": "name",
          "type": "string"
        },
        {
          "internalType": "string",
          "name": "version",
          "type": "string"
        },
        {
          "internalType": "uint256",
          "name": "chainId",
          "type": "uint256"
        },
        {
          "internalType": "address",
          "name": "verifyingContract",
          "type": "address"
        },
        {
          "internalType": "bytes32",
          "name": "salt",
          "type": "bytes32"
        },
        {
          "internalType": "uint256[]",
          "name": "extensions",
          "type": "uint256[]"
        }
      ],
      "stateMutability": "view",
      "type": "function"
    },
    {
      "inputs": [],
      "name": "getMaxTotalSupply",
      "outputs": [
        {
          "internalType": "uint256",
          "name": "",
          "type": "uint256"
        }
      ],
      "stateMutability": "view",
      "type": "function"
    },
    {
      "inputs": [
        {
          "internalType": "bytes32",
          "name": "role",
          "type": "bytes32"
        }
      ],
      "name": "getRoleAdmin",
      "outputs": [
        {
          "internalType": "bytes32",
          "name": "",
          "type": "bytes32"
        }
      ],
      "stateMutability": "view",
      "type": "function"
    },
    {
      "inputs": [],
      "name": "getTokenPrice",
      "outputs": [
        {
          "internalType": "uint256",
          "name": "",
          "type": "uint256"
        }
      ],
      "stateMutability": "view",
      "type": "function"
    },
    {
      "inputs": [
        {
          "internalType": "bytes32",
          "name": "role",
          "type": "bytes32"
        },
        {
          "internalType": "address",
          "name": "account",
          "type": "address"
        }
      ],
      "name": "grantRole",
      "outputs": [],
      "stateMutability": "nonpayable",
      "type": "function"
    },
    {
      "inputs": [
        {
          "internalType": "bytes32",
          "name": "role",
          "type": "bytes32"
        },
        {
          "internalType": "address",
          "name": "account",
          "type": "address"
        }
      ],
      "name": "hasRole",
      "outputs": [
        {
          "internalType": "bool",
          "name": "",
          "type": "bool"
        }
      ],
      "stateMutability": "view",
      "type": "function"
    },
    {
      "inputs": [],
      "name": "name",
      "outputs": [
        {
          "internalType": "string",
          "name": "",
          "type": "string"
        }
      ],
      "stateMutability": "view",
      "type": "function"
    },
    {
      "inputs": [
        {
          "internalType": "address",
          "name": "owner",
          "type": "address"
        }
      ],
      "name": "nonces",
      "outputs": [
        {
          "internalType": "uint256",
          "name": "",
          "type": "uint256"
        }
      ],
      "stateMutability": "view",
      "type": "function"
    },
    {
      "inputs": [
        {
          "internalType": "address",
          "name": "owner",
          "type": "address"
        },
        {
          "internalType": "address",
          "name": "spender",
          "type": "address"
        },
        {
          "internalType": "uint256",
          "name": "value",
          "type": "uint256"
        },
        {
          "internalType": "uint256",
          "name": "deadline",
          "type": "uint256"
        },
        {
          "internalType": "uint8",
          "name": "v",
          "type": "uint8"
        },
        {
          "internalType": "bytes32",
          "name": "r",
          "type": "bytes32"
        },
        {
          "internalType": "bytes32",
          "name": "s",
          "type": "bytes32"
        }
      ],
      "name": "permit",
      "outputs": [],
      "stateMutability": "nonpayable",
      "type": "function"
    },
    {
      "inputs": [
        {
          "internalType": "bytes32",
          "name": "role",
          "type": "bytes32"
        },
        {
          "internalType": "address",
          "name": "callerConfirmation",
          "type": "address"
        }
      ],
      "name": "renounceRole",
      "outputs": [],
      "stateMutability": "nonpayable",
      "type": "function"
    },
    {
      "inputs": [
        {
          "internalType": "bytes32",
          "name": "role",
          "type": "bytes32"
        },
        {
          "internalType": "address",
          "name": "account",
          "type": "address"
        }
      ],
      "name": "revokeRole",
      "outputs": [],
      "stateMutability": "nonpayable",
      "type": "function"
    },
    {
      "inputs": [
        {
          "internalType": "uint256",
          "name": "newPrice",
          "type": "uint256"
        }
      ],
      "name": "setTokenPrice",
      "outputs": [],
      "stateMutability": "nonpayable",
      "type": "function"
    },
    {
      "inputs": [
        {
          "internalType": "bytes4",
          "name": "interfaceId",
          "type": "bytes4"
        }
      ],
      "name": "supportsInterface",
      "outputs": [
        {
          "internalType": "bool",
          "name": "",
          "type": "bool"
        }
      ],
      "stateMutability": "view",
      "type": "function"
    },
    {
      "inputs": [],
      "name": "symbol",
      "outputs": [
        {
          "internalType": "string",
          "name": "",
          "type": "string"
        }
      ],
      "stateMutability": "view",
      "type": "function"
    },
    {
      "inputs": [],
      "name": "tokenPrice",
      "outputs": [
        {
          "internalType": "uint256",
          "name": "",
          "type": "uint256"
        }
      ],
      "stateMutability": "view",
      "type": "function"
    },
    {
      "inputs": [],
      "name": "totalSupply",
      "outputs": [
        {
          "internalType": "uint256",
          "name": "",
          "type": "uint256"
        }
      ],
      "stateMutability": "view",
      "type": "function"
    },
    {
      "inputs": [
        {
          "internalType": "address",
          "name": "to",
          "type": "address"
        },
        {
          "internalType": "uint256",
          "name": "value",
          "type": "uint256"
        }
      ],
      "name": "transfer",
      "outputs": [
        {
          "internalType": "bool",
          "name": "",
          "type": "bool"
        }
      ],
      "stateMutability": "nonpayable",
      "type": "function"
    },
    {
      "inputs": [
        {
          "internalType": "address",
          "name": "from",
          "type": "address"
        },
        {
          "internalType": "address",
          "name": "to",
          "type": "address"
        },
        {
          "internalType": "uint256",
          "name": "value",
          "type": "uint256"
        }
      ],
      "name": "transferFrom",
      "outputs": [
        {
          "internalType": "bool",
          "name": "",
          "type": "bool"
        }
      ],
      "stateMutability": "nonpayable",
      "type": "function"
    },
    {
      "inputs": [],
      "name": "withdraw",
      "outputs": [],
      "stateMutability": "nonpayable",
      "type": "function"
    }
  ],
  "bytecode": "0x6101606040523480156200001257600080fd5b506040516200353f3803806200353f83398181016040528101906200003891906200061b565b83806040518060400160405280600181526020017f3100000000000000000000000000000000000000000000000000000000000000815250868681600390816200008391906200090c565b5080600490816200009591906200090c565b505050620000ae600583620001aa60201b90919060201c565b6101208181525050620000cc600682620001aa60201b90919060201c565b6101408181525050818051906020012060e08181525050808051906020012061010081815250504660a081815250506200010b6200020260201b60201c565b608081815250503073ffffffffffffffffffffffffffffffffffffffff1660c08173ffffffffffffffffffffffffffffffffffffffff16815250505050506200015e6000801b336200025f60201b60201c565b50620001917f9f2df0fed2c77648de5860a4cc508cd0818c85b8b8a1ab4ceeef8d981c8956a6336200025f60201b60201c565b508160098190555080600a819055505050505062000bd9565b6000602083511015620001d057620001c8836200036360201b60201c565b9050620001fc565b82620001e283620003d060201b60201c565b6000019081620001f391906200090c565b5060ff60001b90505b92915050565b60007f8b73c3c69bb8fe3d512ecc4cf759cc79239f7b179b0ffacaa9a75d522b39400f60e0516101005146306040516020016200024495949392919062000a64565b60405160208183030381529060405280519060200120905090565b6000620002738383620003da60201b60201c565b620003585760016008600085815260200190815260200160002060000160008473ffffffffffffffffffffffffffffffffffffffff1673ffffffffffffffffffffffffffffffffffffffff16815260200190815260200160002060006101000a81548160ff021916908315150217905550620002f46200044560201b60201c565b73ffffffffffffffffffffffffffffffffffffffff168273ffffffffffffffffffffffffffffffffffffffff16847f2f8788117e7eff1d82e926ec794901d17c78024a50270940304540a733656f0d60405160405180910390a4600190506200035d565b600090505b92915050565b600080829050601f81511115620003b357826040517f305a27a9000000000000000000000000000000000000000000000000000000008152600401620003aa919062000b13565b60405180910390fd5b805181620003c19062000b69565b60001c1760001b915050919050565b6000819050919050565b60006008600084815260200190815260200160002060000160008373ffffffffffffffffffffffffffffffffffffffff1673ffffffffffffffffffffffffffffffffffffffff16815260200190815260200160002060009054906101000a900460ff16905092915050565b600033905090565b6000604051905090565b600080fd5b600080fd5b600080fd5b600080fd5b6000601f19601f8301169050919050565b7f4e487b7100000000000000000000000000000000000000000000000000000000600052604160045260246000fd5b620004b6826200046b565b810181811067ffffffffffffffff82111715620004d857620004d76200047c565b5b80604052505050565b6000620004ed6200044d565b9050620004fb8282620004ab565b919050565b600067ffffffffffffffff8211156200051e576200051d6200047c565b5b62000529826200046b565b9050602081019050919050565b60005b838110156200055657808201518184015260208101905062000539565b60008484015250505050565b600062000579620005738462000500565b620004e1565b90508281526020810184848401111562000598576200059762000466565b5b620005a584828562000536565b509392505050565b600082601f830112620005c557620005c462000461565b5b8151620005d784826020860162000562565b91505092915050565b6000819050919050565b620005f581620005e0565b81146200060157600080fd5b50565b6000815190506200061581620005ea565b92915050565b6000806000806080858703121562000638576200063762000457565b5b600085015167ffffffffffffffff8111156200065957620006586200045c565b5b6200066787828801620005ad565b945050602085015167ffffffffffffffff8111156200068b576200068a6200045c565b5b6200069987828801620005ad565b9350506040620006ac8782880162000604565b9250506060620006bf8782880162000604565b91505092959194509250565b600081519050919050565b7f4e487b7100000000000000000000000000000000000000000000000000000000600052602260045260246000fd5b600060028204905060018216806200071e57607f821691505b602082108103620007345762000733620006d6565b5b50919050565b60008190508160005260206000209050919050565b60006020601f8301049050919050565b600082821b905092915050565b6000600883026200079e7fffffffffffffffffffffffffffffffffffffffffffffffffffffffffffffffff826200075f565b620007aa86836200075f565b95508019841693508086168417925050509392505050565b6000819050919050565b6000620007ed620007e7620007e184620005e0565b620007c2565b620005e0565b9050919050565b6000819050919050565b6200080983620007cc565b620008216200081882620007f4565b8484546200076c565b825550505050565b600090565b6200083862000829565b62000845818484620007fe565b505050565b5b818110156200086d57620008616000826200082e565b6001810190506200084b565b5050565b601f821115620008bc5762000886816200073a565b62000891846200074f565b81016020851015620008a1578190505b620008b9620008b0856200074f565b8301826200084a565b50505b505050565b600082821c905092915050565b6000620008e160001984600802620008c1565b1980831691505092915050565b6000620008fc8383620008ce565b9150826002028217905092915050565b6200091782620006cb565b67ffffffffffffffff8111156200093357620009326200047c565b5b6200093f825462000705565b6200094c82828562000871565b600060209050601f8311600181146200098457600084156200096f578287015190505b6200097b8582620008ee565b865550620009eb565b601f19841662000994866200073a565b60005b82811015620009be5784890151825560018201915060208501945060208101905062000997565b86831015620009de5784890151620009da601f891682620008ce565b8355505b6001600288020188555050505b505050505050565b6000819050919050565b62000a0881620009f3565b82525050565b62000a1981620005e0565b82525050565b600073ffffffffffffffffffffffffffffffffffffffff82169050919050565b600062000a4c8262000a1f565b9050919050565b62000a5e8162000a3f565b82525050565b600060a08201905062000a7b6000830188620009fd565b62000a8a6020830187620009fd565b62000a996040830186620009fd565b62000aa8606083018562000a0e565b62000ab7608083018462000a53565b9695505050505050565b600082825260208201905092915050565b600062000adf82620006cb565b62000aeb818562000ac1565b935062000afd81856020860162000536565b62000b08816200046b565b840191505092915050565b6000602082019050818103600083015262000b2f818462000ad2565b905092915050565b600081519050919050565b6000819050602082019050919050565b600062000b608251620009f3565b80915050919050565b600062000b768262000b37565b8262000b828462000b42565b905062000b8f8162000b52565b9250602082101562000bd25762000bcd7fffffffffffffffffffffffffffffffffffffffffffffffffffffffffffffffff836020036008026200075f565b831692505b5050919050565b60805160a05160c05160e05161010051610120516101405161290b62000c34600039600061147f01526000611444015260006119e5015260006119c40152600061133f01526000611395015260006113be015261290b6000f3fe60806040526004361061019c5760003560e01c80635db30bb1116100ec57806395d89b411161008a578063d505accf11610064578063d505accf146105eb578063d539139314610614578063d547741f1461063f578063dd62ed3e146106685761019c565b806395d89b4114610558578063a217fddf14610583578063a9059cbb146105ae5761019c565b80637ecebe00116100c65780637ecebe00146104825780637ff9b596146104bf57806384b0196e146104ea57806391d148541461051b5761019c565b80635db30bb1146103f15780636a61e5fc1461041c57806370a08231146104455761019c565b80632f2ff15d116101595780633644e515116101335780633644e5151461035b57806336568abe146103865780633ccfd60b146103af5780634b94f50e146103c65761019c565b80632f2ff15d146102eb578063313ce567146103145780633610724e1461033f5761019c565b806301ffc9a7146101a157806306fdde03146101de578063095ea7b31461020957806318160ddd1461024657806323b872dd14610271578063248a9ca3146102ae575b600080fd5b3480156101ad57600080fd5b506101c860048036038101906101c39190611e9f565b6106a5565b6040516101d59190611ee7565b60405180910390f35b3480156101ea57600080fd5b506101f361071f565b6040516102009190611f92565b60405180910390f35b34801561021557600080fd5b50610230600480360381019061022b9190612048565b6107b1565b60405161023d9190611ee7565b60405180910390f35b34801561025257600080fd5b5061025b6107d4565b6040516102689190612097565b60405180910390f35b34801561027d57600080fd5b50610298600480360381019061029391906120b2565b6107de565b6040516102a59190611ee7565b60405180910390f35b3480156102ba57600080fd5b506102d560048036038101906102d0919061213b565b61080d565b6040516102e29190612177565b60405180910390f35b3480156102f757600080fd5b50610312600480360381019061030d9190612192565b61082d565b005b34801561032057600080fd5b5061032961084f565b60405161033691906121ee565b60405180910390f35b61035960048036038101906103549190612209565b610858565b005b34801561036757600080fd5b50610370610961565b60405161037d9190612177565b60405180910390f35b34801561039257600080fd5b506103ad60048036038101906103a89190612192565b610970565b005b3480156103bb57600080fd5b506103c46109eb565b005b3480156103d257600080fd5b506103db610a42565b6040516103e89190612097565b60405180910390f35b3480156103fd57600080fd5b50610406610a4c565b6040516104139190612097565b60405180910390f35b34801561042857600080fd5b50610443600480360381019061043e9190612209565b610a56565b005b34801561045157600080fd5b5061046c60048036038101906104679190612236565b610a6e565b6040516104799190612097565b60405180910390f35b34801561048e57600080fd5b506104a960048036038101906104a49190612236565b610ab6565b6040516104b69190612097565b60405180910390f35b3480156104cb57600080fd5b506104d4610ac8565b6040516104e19190612097565b60405180910390f35b3480156104f657600080fd5b506104ff610ace565b604051610512979695949392919061236b565b60405180910390f35b34801561052757600080fd5b50610542600480360381019061053d9190612192565b610b78565b60405161054f9190611ee7565b60405180910390f35b34801561056457600080fd5b5061056d610be3565b60405161057a9190611f92565b60405180910390f35b34801561058f57600080fd5b50610598610c75565b6040516105a59190612177565b60405180910390f35b3480156105ba57600080fd5b506105d560048036038101906105d09190612048565b610c7c565b6040516105e29190611ee7565b60405180910390f35b3480156105f757600080fd5b50610612600480360381019061060d919061241b565b610c9f565b005b34801561062057600080fd5b50610629610de7565b6040516106369190612177565b60405180910390f35b34801561064b57600080fd5b5061066660048036038101906106619190612192565b610e0b565b005b34801561067457600080fd5b5061068f600480360381019061068a91906124bd565b610e2d565b60405161069c9190612097565b60405180910390f35b60007f7965db0b000000000000000000000000000000000000000000000000000000007bffffffffffffffffffffffffffffffffffffffffffffffffffffffff1916827bffffffffffffffffffffffffffffffffffffffffffffffffffffffff19161480610718575061071782610eb4565b5b9050919050565b60606003805461072e9061252c565b80601f016020809104026020016040519081016040528092919081815260200182805461075a9061252c565b80156107a75780601f1061077c576101008083540402835291602001916107a7565b820191906000526020600020905b81548152906001019060200180831161078a57829003601f168201915b5050505050905090565b6000806107bc610f1e565b90506107c9818585610f26565b600191505092915050565b6000600254905090565b6000806107e9610f1e565b90506107f6858285610f38565b610801858585610fcc565b60019150509392505050565b600060086000838152602001908152602001600020600101549050919050565b6108368261080d565b61083f816110c0565b61084983836110d4565b50505050565b60006012905090565b600a5481610866919061258c565b34146108a7576040517f08c379a000000000000000000000000000000000000000000000000000000000815260040161089e9061261a565b60405180910390fd5b600954816108b36107d4565b6108bd919061263a565b11156108fe576040517f08c379a00000000000000000000000000000000000000000000000000000000081526004016108f5906126ba565b60405180910390fd5b6109287f9f2df0fed2c77648de5860a4cc508cd0818c85b8b8a1ab4ceeef8d981c8956a6336110d4565b5061093333826111c6565b61095d7f9f2df0fed2c77648de5860a4cc508cd0818c85b8b8a1ab4ceeef8d981c8956a633611248565b5050565b600061096b61133b565b905090565b610978610f1e565b73ffffffffffffffffffffffffffffffffffffffff168173ffffffffffffffffffffffffffffffffffffffff16146109dc576040517f6697b23200000000000000000000000000000000000000000000000000000000815260040160405180910390fd5b6109e68282611248565b505050565b6000801b6109f8816110c0565b3373ffffffffffffffffffffffffffffffffffffffff166108fc479081150290604051600060405180830381858888f19350505050158015610a3e573d6000803e3d6000fd5b5050565b6000600a54905090565b6000600954905090565b6000801b610a63816110c0565b81600a819055505050565b60008060008373ffffffffffffffffffffffffffffffffffffffff1673ffffffffffffffffffffffffffffffffffffffff168152602001908152602001600020549050919050565b6000610ac1826113f2565b9050919050565b600a5481565b600060608060008060006060610ae261143b565b610aea611476565b46306000801b600067ffffffffffffffff811115610b0b57610b0a6126da565b5b604051908082528060200260200182016040528015610b395781602001602082028036833780820191505090505b507f0f00000000000000000000000000000000000000000000000000000000000000959493929190965096509650965096509650965090919293949596565b60006008600084815260200190815260200160002060000160008373ffffffffffffffffffffffffffffffffffffffff1673ffffffffffffffffffffffffffffffffffffffff16815260200190815260200160002060009054906101000a900460ff16905092915050565b606060048054610bf29061252c565b80601f0160208091040260200160405190810160405280929190818152602001828054610c1e9061252c565b8015610c6b5780601f10610c4057610100808354040283529160200191610c6b565b820191906000526020600020905b815481529060010190602001808311610c4e57829003601f168201915b5050505050905090565b6000801b81565b600080610c87610f1e565b9050610c94818585610fcc565b600191505092915050565b83421115610ce457836040517f62791302000000000000000000000000000000000000000000000000000000008152600401610cdb9190612097565b60405180910390fd5b60007f6e71edae12b1b97f4d1f60370fef10105fa2faae0126114a169c64845d6126c9888888610d138c6114b1565b89604051602001610d2996959493929190612709565b6040516020818303038152906040528051906020012090506000610d4c82611508565b90506000610d5c82878787611522565b90508973ffffffffffffffffffffffffffffffffffffffff168173ffffffffffffffffffffffffffffffffffffffff1614610dd057808a6040517f4b800e46000000000000000000000000000000000000000000000000000000008152600401610dc792919061276a565b60405180910390fd5b610ddb8a8a8a610f26565b50505050505050505050565b7f9f2df0fed2c77648de5860a4cc508cd0818c85b8b8a1ab4ceeef8d981c8956a681565b610e148261080d565b610e1d816110c0565b610e278383611248565b50505050565b6000600160008473ffffffffffffffffffffffffffffffffffffffff1673ffffffffffffffffffffffffffffffffffffffff16815260200190815260200160002060008373ffffffffffffffffffffffffffffffffffffffff1673ffffffffffffffffffffffffffffffffffffffff16815260200190815260200160002054905092915050565b60007f01ffc9a7000000000000000000000000000000000000000000000000000000007bffffffffffffffffffffffffffffffffffffffffffffffffffffffff1916827bffffffffffffffffffffffffffffffffffffffffffffffffffffffff1916149050919050565b600033905090565b610f338383836001611552565b505050565b6000610f448484610e2d565b90507fffffffffffffffffffffffffffffffffffffffffffffffffffffffffffffffff8114610fc65781811015610fb6578281836040517ffb8f41b2000000000000000000000000000000000000000000000000000000008152600401610fad93929190612793565b60405180910390fd5b610fc584848484036000611552565b5b50505050565b600073ffffffffffffffffffffffffffffffffffffffff168373ffffffffffffffffffffffffffffffffffffffff160361103e5760006040517f96c6fd1e00000000000000000000000000000000000000000000000000000000815260040161103591906127ca565b60405180910390fd5b600073ffffffffffffffffffffffffffffffffffffffff168273ffffffffffffffffffffffffffffffffffffffff16036110b05760006040517fec442f050000000000000000000000000000000000000000000000000000000081526004016110a791906127ca565b60405180910390fd5b6110bb838383611729565b505050565b6110d1816110cc610f1e565b61194e565b50565b60006110e08383610b78565b6111bb5760016008600085815260200190815260200160002060000160008473ffffffffffffffffffffffffffffffffffffffff1673ffffffffffffffffffffffffffffffffffffffff16815260200190815260200160002060006101000a81548160ff021916908315150217905550611158610f1e565b73ffffffffffffffffffffffffffffffffffffffff168273ffffffffffffffffffffffffffffffffffffffff16847f2f8788117e7eff1d82e926ec794901d17c78024a50270940304540a733656f0d60405160405180910390a4600190506111c0565b600090505b92915050565b600073ffffffffffffffffffffffffffffffffffffffff168273ffffffffffffffffffffffffffffffffffffffff16036112385760006040517fec442f0500000000000000000000000000000000000000000000000000000000815260040161122f91906127ca565b60405180910390fd5b61124460008383611729565b5050565b60006112548383610b78565b156113305760006008600085815260200190815260200160002060000160008473ffffffffffffffffffffffffffffffffffffffff1673ffffffffffffffffffffffffffffffffffffffff16815260200190815260200160002060006101000a81548160ff0219169083151502179055506112cd610f1e565b73ffffffffffffffffffffffffffffffffffffffff168273ffffffffffffffffffffffffffffffffffffffff16847ff6391f5c32d9c69d2a47ea670b442974b53935d1edc7fd64eb21e047a839171b60405160405180910390a460019050611335565b600090505b92915050565b60007f000000000000000000000000000000000000000000000000000000000000000073ffffffffffffffffffffffffffffffffffffffff163073ffffffffffffffffffffffffffffffffffffffff161480156113b757507f000000000000000000000000000000000000000000000000000000000000000046145b156113e4577f000000000000000000000000000000000000000000000000000000000000000090506113ef565b6113ec61199f565b90505b90565b6000600760008373ffffffffffffffffffffffffffffffffffffffff1673ffffffffffffffffffffffffffffffffffffffff168152602001908152602001600020549050919050565b606061147160057f0000000000000000000000000000000000000000000000000000000000000000611a3590919063ffffffff16565b905090565b60606114ac60067f0000000000000000000000000000000000000000000000000000000000000000611a3590919063ffffffff16565b905090565b6000600760008373ffffffffffffffffffffffffffffffffffffffff1673ffffffffffffffffffffffffffffffffffffffff1681526020019081526020016000206000815480929190600101919050559050919050565b600061151b61151561133b565b83611ae5565b9050919050565b60008060008061153488888888611b26565b9250925092506115448282611c1a565b829350505050949350505050565b600073ffffffffffffffffffffffffffffffffffffffff168473ffffffffffffffffffffffffffffffffffffffff16036115c45760006040517fe602df050000000000000000000000000000000000000000000000000000000081526004016115bb91906127ca565b60405180910390fd5b600073ffffffffffffffffffffffffffffffffffffffff168373ffffffffffffffffffffffffffffffffffffffff16036116365760006040517f94280d6200000000000000000000000000000000000000000000000000000000815260040161162d91906127ca565b60405180910390fd5b81600160008673ffffffffffffffffffffffffffffffffffffffff1673ffffffffffffffffffffffffffffffffffffffff16815260200190815260200160002060008573ffffffffffffffffffffffffffffffffffffffff1673ffffffffffffffffffffffffffffffffffffffff168152602001908152602001600020819055508015611723578273ffffffffffffffffffffffffffffffffffffffff168473ffffffffffffffffffffffffffffffffffffffff167f8c5be1e5ebec7d5bd14f71427d1e84f3dd0314c0f7b2291e5b200ac8c7c3b9258460405161171a9190612097565b60405180910390a35b50505050565b600073ffffffffffffffffffffffffffffffffffffffff168373ffffffffffffffffffffffffffffffffffffffff160361177b57806002600082825461176f919061263a565b9250508190555061184e565b60008060008573ffffffffffffffffffffffffffffffffffffffff1673ffffffffffffffffffffffffffffffffffffffff16815260200190815260200160002054905081811015611807578381836040517fe450d38c0000000000000000000000000000000000000000000000000000000081526004016117fe93929190612793565b60405180910390fd5b8181036000808673ffffffffffffffffffffffffffffffffffffffff1673ffffffffffffffffffffffffffffffffffffffff16815260200190815260200160002081905550505b600073ffffffffffffffffffffffffffffffffffffffff168273ffffffffffffffffffffffffffffffffffffffff160361189757806002600082825403925050819055506118e4565b806000808473ffffffffffffffffffffffffffffffffffffffff1673ffffffffffffffffffffffffffffffffffffffff168152602001908152602001600020600082825401925050819055505b8173ffffffffffffffffffffffffffffffffffffffff168373ffffffffffffffffffffffffffffffffffffffff167fddf252ad1be2c89b69c2b068fc378daa952ba7f163c4a11628f55a4df523b3ef836040516119419190612097565b60405180910390a3505050565b6119588282610b78565b61199b5780826040517fe2517d3f0000000000000000000000000000000000000000000000000000000081526004016119929291906127e5565b60405180910390fd5b5050565b60007f8b73c3c69bb8fe3d512ecc4cf759cc79239f7b179b0ffacaa9a75d522b39400f7f00000000000000000000000000000000000000000000000000000000000000007f00000000000000000000000000000000000000000000000000000000000000004630604051602001611a1a95949392919061280e565b60405160208183030381529060405280519060200120905090565b606060ff60001b8314611a5257611a4b83611d7e565b9050611adf565b818054611a5e9061252c565b80601f0160208091040260200160405190810160405280929190818152602001828054611a8a9061252c565b8015611ad75780601f10611aac57610100808354040283529160200191611ad7565b820191906000526020600020905b815481529060010190602001808311611aba57829003601f168201915b505050505090505b92915050565b60006040517f190100000000000000000000000000000000000000000000000000000000000081528360028201528260228201526042812091505092915050565b60008060007f7fffffffffffffffffffffffffffffff5d576e7357a4501ddfe92f46681b20a08460001c1115611b66576000600385925092509250611c10565b600060018888888860405160008152602001604052604051611b8b9493929190612861565b6020604051602081039080840390855afa158015611bad573d6000803e3d6000fd5b505050602060405103519050600073ffffffffffffffffffffffffffffffffffffffff168173ffffffffffffffffffffffffffffffffffffffff1603611c0157600060016000801b93509350935050611c10565b8060008060001b935093509350505b9450945094915050565b60006003811115611c2e57611c2d6128a6565b5b826003811115611c4157611c406128a6565b5b0315611d7a5760016003811115611c5b57611c5a6128a6565b5b826003811115611c6e57611c6d6128a6565b5b03611ca5576040517ff645eedf00000000000000000000000000000000000000000000000000000000815260040160405180910390fd5b60026003811115611cb957611cb86128a6565b5b826003811115611ccc57611ccb6128a6565b5b03611d11578060001c6040517ffce698f7000000000000000000000000000000000000000000000000000000008152600401611d089190612097565b60405180910390fd5b600380811115611d2457611d236128a6565b5b826003811115611d3757611d366128a6565b5b03611d7957806040517fd78bce0c000000000000000000000000000000000000000000000000000000008152600401611d709190612177565b60405180910390fd5b5b5050565b60606000611d8b83611df2565b90506000602067ffffffffffffffff811115611daa57611da96126da565b5b6040519080825280601f01601f191660200182016040528015611ddc5781602001600182028036833780820191505090505b5090508181528360208201528092505050919050565b60008060ff8360001c169050601f811115611e39576040517fb3512b0c00000000000000000000000000000000000000000000000000000000815260040160405180910390fd5b80915050919050565b600080fd5b60007fffffffff0000000000000000000000000000000000000000000000000000000082169050919050565b611e7c81611e47565b8114611e8757600080fd5b50565b600081359050611e9981611e73565b92915050565b600060208284031215611eb557611eb4611e42565b5b6000611ec384828501611e8a565b91505092915050565b60008115159050919050565b611ee181611ecc565b82525050565b6000602082019050611efc6000830184611ed8565b92915050565b600081519050919050565b600082825260208201905092915050565b60005b83811015611f3c578082015181840152602081019050611f21565b60008484015250505050565b6000601f19601f8301169050919050565b6000611f6482611f02565b611f6e8185611f0d565b9350611f7e818560208601611f1e565b611f8781611f48565b840191505092915050565b60006020820190508181036000830152611fac8184611f59565b905092915050565b600073ffffffffffffffffffffffffffffffffffffffff82169050919050565b6000611fdf82611fb4565b9050919050565b611fef81611fd4565b8114611ffa57600080fd5b50565b60008135905061200c81611fe6565b92915050565b6000819050919050565b61202581612012565b811461203057600080fd5b50565b6000813590506120428161201c565b92915050565b6000806040838503121561205f5761205e611e42565b5b600061206d85828601611ffd565b925050602061207e85828601612033565b9150509250929050565b61209181612012565b82525050565b60006020820190506120ac6000830184612088565b92915050565b6000806000606084860312156120cb576120ca611e42565b5b60006120d986828701611ffd565b93505060206120ea86828701611ffd565b92505060406120fb86828701612033565b9150509250925092565b6000819050919050565b61211881612105565b811461212357600080fd5b50565b6000813590506121358161210f565b92915050565b60006020828403121561215157612150611e42565b5b600061215f84828501612126565b91505092915050565b61217181612105565b82525050565b600060208201905061218c6000830184612168565b92915050565b600080604083850312156121a9576121a8611e42565b5b60006121b785828601612126565b92505060206121c885828601611ffd565b9150509250929050565b600060ff82169050919050565b6121e8816121d2565b82525050565b600060208201905061220360008301846121df565b92915050565b60006020828403121561221f5761221e611e42565b5b600061222d84828501612033565b91505092915050565b60006020828403121561224c5761224b611e42565b5b600061225a84828501611ffd565b91505092915050565b60007fff0000000000000000000000000000000000000000000000000000000000000082169050919050565b61229881612263565b82525050565b6122a781611fd4565b82525050565b600081519050919050565b600082825260208201905092915050565b6000819050602082019050919050565b6122e281612012565b82525050565b60006122f483836122d9565b60208301905092915050565b6000602082019050919050565b6000612318826122ad565b61232281856122b8565b935061232d836122c9565b8060005b8381101561235e57815161234588826122e8565b975061235083612300565b925050600181019050612331565b5085935050505092915050565b600060e082019050612380600083018a61228f565b81810360208301526123928189611f59565b905081810360408301526123a68188611f59565b90506123b56060830187612088565b6123c2608083018661229e565b6123cf60a0830185612168565b81810360c08301526123e1818461230d565b905098975050505050505050565b6123f8816121d2565b811461240357600080fd5b50565b600081359050612415816123ef565b92915050565b600080600080600080600060e0888a03121561243a57612439611e42565b5b60006124488a828b01611ffd565b97505060206124598a828b01611ffd565b965050604061246a8a828b01612033565b955050606061247b8a828b01612033565b945050608061248c8a828b01612406565b93505060a061249d8a828b01612126565b92505060c06124ae8a828b01612126565b91505092959891949750929550565b600080604083850312156124d4576124d3611e42565b5b60006124e285828601611ffd565b92505060206124f385828601611ffd565b9150509250929050565b7f4e487b7100000000000000000000000000000000000000000000000000000000600052602260045260246000fd5b6000600282049050600182168061254457607f821691505b602082108103612557576125566124fd565b5b50919050565b7f4e487b7100000000000000000000000000000000000000000000000000000000600052601160045260246000fd5b600061259782612012565b91506125a283612012565b92508282026125b081612012565b915082820484148315176125c7576125c661255d565b5b5092915050565b7f496e636f727265637420504f4c2073656e740000000000000000000000000000600082015250565b6000612604601283611f0d565b915061260f826125ce565b602082019050919050565b60006020820190508181036000830152612633816125f7565b9050919050565b600061264582612012565b915061265083612012565b92508282019050808211156126685761266761255d565b5b92915050565b7f4d696e742065786365656473206d617820737570706c79000000000000000000600082015250565b60006126a4601783611f0d565b91506126af8261266e565b602082019050919050565b600060208201905081810360008301526126d381612697565b9050919050565b7f4e487b7100000000000000000000000000000000000000000000000000000000600052604160045260246000fd5b600060c08201905061271e6000830189612168565b61272b602083018861229e565b612738604083018761229e565b6127456060830186612088565b6127526080830185612088565b61275f60a0830184612088565b979650505050505050565b600060408201905061277f600083018561229e565b61278c602083018461229e565b9392505050565b60006060820190506127a8600083018661229e565b6127b56020830185612088565b6127c26040830184612088565b949350505050565b60006020820190506127df600083018461229e565b92915050565b60006040820190506127fa600083018561229e565b6128076020830184612168565b9392505050565b600060a0820190506128236000830188612168565b6128306020830187612168565b61283d6040830186612168565b61284a6060830185612088565b612857608083018461229e565b9695505050505050565b60006080820190506128766000830187612168565b61288360208301866121df565b6128906040830185612168565b61289d6060830184612168565b95945050505050565b7f4e487b7100000000000000000000000000000000000000000000000000000000600052602160045260246000fdfea26469706673582212205d3364b079911b7a08e2a297f8a0b2825cee8efecb42634d735587ff8307056564736f6c63430008180033",
  "linkReferences": {},
  "deployedLinkReferences": {}
}